{
	"contracts/LiskGarden.sol": {
		"LiskGarden": {
			"abi": [
				{
					"inputs": [],
					"stateMutability": "nonpayable",
					"type": "constructor"
				},
				{
					"anonymous": false,
					"inputs": [
						{
							"indexed": true,
							"internalType": "uint256",
							"name": "plantId",
							"type": "uint256"
						}
					],
					"name": "PlantDied",
					"type": "event"
				},
				{
					"anonymous": false,
					"inputs": [
						{
							"indexed": true,
							"internalType": "uint256",
							"name": "plantId",
							"type": "uint256"
						},
						{
							"indexed": true,
							"internalType": "address",
							"name": "owner",
							"type": "address"
						},
						{
							"indexed": false,
							"internalType": "uint256",
							"name": "reward",
							"type": "uint256"
						}
					],
					"name": "PlantHarvested",
					"type": "event"
				},
				{
					"anonymous": false,
					"inputs": [
						{
							"indexed": true,
							"internalType": "address",
							"name": "owner",
							"type": "address"
						},
						{
							"indexed": true,
							"internalType": "uint256",
							"name": "plantId",
							"type": "uint256"
						}
					],
					"name": "PlantSeeded",
					"type": "event"
				},
				{
					"anonymous": false,
					"inputs": [
						{
							"indexed": true,
							"internalType": "uint256",
							"name": "plantId",
							"type": "uint256"
						},
						{
							"indexed": false,
							"internalType": "uint8",
							"name": "newWaterLevel",
							"type": "uint8"
						}
					],
					"name": "PlantWatered",
					"type": "event"
				},
				{
					"anonymous": false,
					"inputs": [
						{
							"indexed": true,
							"internalType": "uint256",
							"name": "plantId",
							"type": "uint256"
						},
						{
							"indexed": false,
							"internalType": "enum LiskGarden.GrowthStage",
							"name": "newStage",
							"type": "uint8"
						}
					],
					"name": "StageAdvanced",
					"type": "event"
				},
				{
					"inputs": [],
					"name": "HARVEST_REWARD",
					"outputs": [
						{
							"internalType": "uint256",
							"name": "",
							"type": "uint256"
						}
					],
					"stateMutability": "view",
					"type": "function"
				},
				{
					"inputs": [],
					"name": "PLANT_PRICE",
					"outputs": [
						{
							"internalType": "uint256",
							"name": "",
							"type": "uint256"
						}
					],
					"stateMutability": "view",
					"type": "function"
				},
				{
					"inputs": [],
					"name": "STAGE_DURATION",
					"outputs": [
						{
							"internalType": "uint256",
							"name": "",
							"type": "uint256"
						}
					],
					"stateMutability": "view",
					"type": "function"
				},
				{
					"inputs": [],
					"name": "WATER_DEPLETION_RATE",
					"outputs": [
						{
							"internalType": "uint8",
							"name": "",
							"type": "uint8"
						}
					],
					"stateMutability": "view",
					"type": "function"
				},
				{
					"inputs": [],
					"name": "WATER_DEPLETION_TIME",
					"outputs": [
						{
							"internalType": "uint256",
							"name": "",
							"type": "uint256"
						}
					],
					"stateMutability": "view",
					"type": "function"
				},
				{
					"inputs": [
						{
							"internalType": "uint256",
							"name": "plantId",
							"type": "uint256"
						}
					],
					"name": "calculateWaterLevel",
					"outputs": [
						{
							"internalType": "uint256",
							"name": "",
							"type": "uint256"
						}
					],
					"stateMutability": "view",
					"type": "function"
				},
				{
					"inputs": [
						{
							"internalType": "uint256",
							"name": "plantId",
							"type": "uint256"
						}
					],
					"name": "getPlant",
					"outputs": [
						{
							"components": [
								{
									"internalType": "uint256",
									"name": "id",
									"type": "uint256"
								},
								{
									"internalType": "address",
									"name": "owner",
									"type": "address"
								},
								{
									"internalType": "enum LiskGarden.GrowthStage",
									"name": "stage",
									"type": "uint8"
								},
								{
									"internalType": "uint256",
									"name": "plantedDate",
									"type": "uint256"
								},
								{
									"internalType": "uint256",
									"name": "lastWatered",
									"type": "uint256"
								},
								{
									"internalType": "uint256",
									"name": "waterLevel",
									"type": "uint256"
								},
								{
									"internalType": "bool",
									"name": "exists",
									"type": "bool"
								},
								{
									"internalType": "bool",
									"name": "isDead",
									"type": "bool"
								}
							],
							"internalType": "struct LiskGarden.Plant",
							"name": "",
							"type": "tuple"
						}
					],
					"stateMutability": "view",
					"type": "function"
				},
				{
					"inputs": [
						{
							"internalType": "address",
							"name": "user",
							"type": "address"
						}
					],
					"name": "getUserPlants",
					"outputs": [
						{
							"internalType": "uint256[]",
							"name": "",
							"type": "uint256[]"
						}
					],
					"stateMutability": "view",
					"type": "function"
				},
				{
					"inputs": [
						{
							"internalType": "uint256",
							"name": "plantId",
							"type": "uint256"
						}
					],
					"name": "harvestPlant",
					"outputs": [],
					"stateMutability": "nonpayable",
					"type": "function"
				},
				{
					"inputs": [],
					"name": "myPlant",
					"outputs": [
						{
							"internalType": "uint256",
							"name": "id",
							"type": "uint256"
						},
						{
							"internalType": "address",
							"name": "owner",
							"type": "address"
						},
						{
							"internalType": "enum LiskGarden.GrowthStage",
							"name": "stage",
							"type": "uint8"
						},
						{
							"internalType": "uint256",
							"name": "plantedDate",
							"type": "uint256"
						},
						{
							"internalType": "uint256",
							"name": "lastWatered",
							"type": "uint256"
						},
						{
							"internalType": "uint256",
							"name": "waterLevel",
							"type": "uint256"
						},
						{
							"internalType": "bool",
							"name": "exists",
							"type": "bool"
						},
						{
							"internalType": "bool",
							"name": "isDead",
							"type": "bool"
						}
					],
					"stateMutability": "view",
					"type": "function"
				},
				{
					"inputs": [],
					"name": "owner",
					"outputs": [
						{
							"internalType": "address",
							"name": "",
							"type": "address"
						}
					],
					"stateMutability": "view",
					"type": "function"
				},
				{
					"inputs": [],
					"name": "plantCounter",
					"outputs": [
						{
							"internalType": "uint256",
							"name": "",
							"type": "uint256"
						}
					],
					"stateMutability": "view",
					"type": "function"
				},
				{
					"inputs": [],
					"name": "plantSeed",
					"outputs": [
						{
							"internalType": "uint256",
							"name": "",
							"type": "uint256"
						}
					],
					"stateMutability": "payable",
					"type": "function"
				},
				{
					"inputs": [
						{
							"internalType": "uint256",
							"name": "",
							"type": "uint256"
						}
					],
					"name": "plants",
					"outputs": [
						{
							"internalType": "uint256",
							"name": "id",
							"type": "uint256"
						},
						{
							"internalType": "address",
							"name": "owner",
							"type": "address"
						},
						{
							"internalType": "enum LiskGarden.GrowthStage",
							"name": "stage",
							"type": "uint8"
						},
						{
							"internalType": "uint256",
							"name": "plantedDate",
							"type": "uint256"
						},
						{
							"internalType": "uint256",
							"name": "lastWatered",
							"type": "uint256"
						},
						{
							"internalType": "uint256",
							"name": "waterLevel",
							"type": "uint256"
						},
						{
							"internalType": "bool",
							"name": "exists",
							"type": "bool"
						},
						{
							"internalType": "bool",
							"name": "isDead",
							"type": "bool"
						}
					],
					"stateMutability": "view",
					"type": "function"
				},
				{
					"inputs": [
						{
							"internalType": "uint256",
							"name": "plantId",
							"type": "uint256"
						}
					],
					"name": "updatePlantStage",
					"outputs": [],
					"stateMutability": "nonpayable",
					"type": "function"
				},
				{
					"inputs": [
						{
							"internalType": "address",
							"name": "",
							"type": "address"
						},
						{
							"internalType": "uint256",
							"name": "",
							"type": "uint256"
						}
					],
					"name": "userPlants",
					"outputs": [
						{
							"internalType": "uint256",
							"name": "",
							"type": "uint256"
						}
					],
					"stateMutability": "view",
					"type": "function"
				},
				{
					"inputs": [
						{
							"internalType": "uint256",
							"name": "plantId",
							"type": "uint256"
						}
					],
					"name": "waterPlant",
					"outputs": [],
					"stateMutability": "nonpayable",
					"type": "function"
				},
				{
					"inputs": [],
					"name": "withdraw",
					"outputs": [],
					"stateMutability": "nonpayable",
					"type": "function"
				},
				{
					"stateMutability": "payable",
					"type": "receive"
				}
			],
			"devdoc": {
				"kind": "dev",
				"methods": {},
				"version": 1
			},
			"evm": {
				"assembly": "    /* \"contracts/LiskGarden.sol\":61:10360  contract LiskGarden {... */\n  mstore(0x40, 0x80)\n    /* \"contracts/LiskGarden.sol\":3282:3333  constructor() {... */\n  callvalue\n  dup1\n  iszero\n  tag_1\n  jumpi\n  revert(0x00, 0x00)\ntag_1:\n  pop\n    /* \"contracts/LiskGarden.sol\":3315:3325  msg.sender */\n  caller\n    /* \"contracts/LiskGarden.sol\":3307:3312  owner */\n  0x09\n  0x00\n    /* \"contracts/LiskGarden.sol\":3307:3325  owner = msg.sender */\n  0x0100\n  exp\n  dup2\n  sload\n  dup2\n  0xffffffffffffffffffffffffffffffffffffffff\n  mul\n  not\n  and\n  swap1\n  dup4\n  0xffffffffffffffffffffffffffffffffffffffff\n  and\n  mul\n  or\n  swap1\n  sstore\n  pop\n    /* \"contracts/LiskGarden.sol\":61:10360  contract LiskGarden {... */\n  dataSize(sub_0)\n  dup1\n  dataOffset(sub_0)\n  0x00\n  codecopy\n  0x00\n  return\nstop\n\nsub_0: assembly {\n        /* \"contracts/LiskGarden.sol\":61:10360  contract LiskGarden {... */\n      mstore(0x40, 0x80)\n      jumpi(tag_1, lt(calldatasize, 0x04))\n      shr(0xe0, calldataload(0x00))\n      dup1\n      0x8da5cb5b\n      gt\n      tag_21\n      jumpi\n      dup1\n      0xbacb5ebd\n      gt\n      tag_22\n      jumpi\n      dup1\n      0xbacb5ebd\n      eq\n      tag_16\n      jumpi\n      dup1\n      0xcfc9a5f8\n      eq\n      tag_17\n      jumpi\n      dup1\n      0xddd42596\n      eq\n      tag_18\n      jumpi\n      dup1\n      0xe38f8448\n      eq\n      tag_19\n      jumpi\n      dup1\n      0xed0b1f5f\n      eq\n      tag_20\n      jumpi\n      jump(tag_2)\n    tag_22:\n      dup1\n      0x8da5cb5b\n      eq\n      tag_12\n      jumpi\n      dup1\n      0x8dd2361c\n      eq\n      tag_13\n      jumpi\n      dup1\n      0x9886bcfa\n      eq\n      tag_14\n      jumpi\n      dup1\n      0x9c471749\n      eq\n      tag_15\n      jumpi\n      jump(tag_2)\n    tag_21:\n      dup1\n      0x74119a38\n      gt\n      tag_23\n      jumpi\n      dup1\n      0x74119a38\n      eq\n      tag_7\n      jumpi\n      dup1\n      0x754e150d\n      eq\n      tag_8\n      jumpi\n      dup1\n      0x7ed4c5be\n      eq\n      tag_9\n      jumpi\n      dup1\n      0x891c0785\n      eq\n      tag_10\n      jumpi\n      dup1\n      0x8aee578b\n      eq\n      tag_11\n      jumpi\n      jump(tag_2)\n    tag_23:\n      dup1\n      0x30cec0eb\n      eq\n      tag_3\n      jumpi\n      dup1\n      0x3a8fdff0\n      eq\n      tag_4\n      jumpi\n      dup1\n      0x3ccfd60b\n      eq\n      tag_5\n      jumpi\n      dup1\n      0x51f9efde\n      eq\n      tag_6\n      jumpi\n      jump(tag_2)\n    tag_1:\n      jumpi(tag_2, calldatasize)\n      stop\n    tag_2:\n      revert(0x00, 0x00)\n        /* \"contracts/LiskGarden.sol\":9980:10100  function getUserPlants(address user) external view returns (uint256[] memory) {... */\n    tag_3:\n      callvalue\n      dup1\n      iszero\n      tag_26\n      jumpi\n      revert(0x00, 0x00)\n    tag_26:\n      pop\n      tag_27\n      0x04\n      dup1\n      calldatasize\n      sub\n      dup2\n      add\n      swap1\n      tag_28\n      swap2\n      swap1\n      tag_29\n      jump\t// in\n    tag_28:\n      tag_30\n      jump\t// in\n    tag_27:\n      mload(0x40)\n      tag_31\n      swap2\n      swap1\n      tag_32\n      jump\t// in\n    tag_31:\n      mload(0x40)\n      dup1\n      swap2\n      sub\n      swap1\n      return\n        /* \"contracts/LiskGarden.sol\":940:960  Plant public myPlant */\n    tag_4:\n      callvalue\n      dup1\n      iszero\n      tag_33\n      jumpi\n      revert(0x00, 0x00)\n    tag_33:\n      pop\n      tag_34\n      tag_35\n      jump\t// in\n    tag_34:\n      mload(0x40)\n      tag_36\n      swap9\n      swap8\n      swap7\n      swap6\n      swap5\n      swap4\n      swap3\n      swap2\n      swap1\n      tag_37\n      jump\t// in\n    tag_36:\n      mload(0x40)\n      dup1\n      swap2\n      sub\n      swap1\n      return\n        /* \"contracts/LiskGarden.sol\":10108:10318  function withdraw() external {... */\n    tag_5:\n      callvalue\n      dup1\n      iszero\n      tag_38\n      jumpi\n      revert(0x00, 0x00)\n    tag_38:\n      pop\n      tag_39\n      tag_40\n      jump\t// in\n    tag_39:\n      stop\n        /* \"contracts/LiskGarden.sol\":1913:1963  uint256 public constant STAGE_DURATION = 1 minutes */\n    tag_6:\n      callvalue\n      dup1\n      iszero\n      tag_41\n      jumpi\n      revert(0x00, 0x00)\n    tag_41:\n      pop\n      tag_42\n      tag_43\n      jump\t// in\n    tag_42:\n      mload(0x40)\n      tag_44\n      swap2\n      swap1\n      tag_45\n      jump\t// in\n    tag_44:\n      mload(0x40)\n      dup1\n      swap2\n      sub\n      swap1\n      return\n        /* \"contracts/LiskGarden.sol\":3848:4602  function plantSeed() external payable returns (uint256) {... */\n    tag_7:\n      tag_46\n      tag_47\n      jump\t// in\n    tag_46:\n      mload(0x40)\n      tag_48\n      swap2\n      swap1\n      tag_45\n      jump\t// in\n    tag_48:\n      mload(0x40)\n      dup1\n      swap2\n      sub\n      swap1\n      return\n        /* \"contracts/LiskGarden.sol\":5236:5838  function calculateWaterLevel(uint256 plantId) public view returns (uint256) {... */\n    tag_8:\n      callvalue\n      dup1\n      iszero\n      tag_49\n      jumpi\n      revert(0x00, 0x00)\n    tag_49:\n      pop\n      tag_50\n      0x04\n      dup1\n      calldatasize\n      sub\n      dup2\n      add\n      swap1\n      tag_51\n      swap2\n      swap1\n      tag_52\n      jump\t// in\n    tag_51:\n      tag_53\n      jump\t// in\n    tag_50:\n      mload(0x40)\n      tag_54\n      swap2\n      swap1\n      tag_45\n      jump\t// in\n    tag_54:\n      mload(0x40)\n      dup1\n      swap2\n      sub\n      swap1\n      return\n        /* \"contracts/LiskGarden.sol\":2019:2076  uint256 public constant WATER_DEPLETION_TIME = 30 seconds */\n    tag_9:\n      callvalue\n      dup1\n      iszero\n      tag_55\n      jumpi\n      revert(0x00, 0x00)\n    tag_55:\n      pop\n      tag_56\n      tag_57\n      jump\t// in\n    tag_56:\n      mload(0x40)\n      tag_58\n      swap2\n      swap1\n      tag_45\n      jump\t// in\n    tag_58:\n      mload(0x40)\n      dup1\n      swap2\n      sub\n      swap1\n      return\n        /* \"contracts/LiskGarden.sol\":1807:1859  uint256 public constant HARVEST_REWARD = 0.003 ether */\n    tag_10:\n      callvalue\n      dup1\n      iszero\n      tag_59\n      jumpi\n      revert(0x00, 0x00)\n    tag_59:\n      pop\n      tag_60\n      tag_61\n      jump\t// in\n    tag_60:\n      mload(0x40)\n      tag_62\n      swap2\n      swap1\n      tag_45\n      jump\t// in\n    tag_62:\n      mload(0x40)\n      dup1\n      swap2\n      sub\n      swap1\n      return\n        /* \"contracts/LiskGarden.sol\":1288:1335  mapping(address => uint256[]) public userPlants */\n    tag_11:\n      callvalue\n      dup1\n      iszero\n      tag_63\n      jumpi\n      revert(0x00, 0x00)\n    tag_63:\n      pop\n      tag_64\n      0x04\n      dup1\n      calldatasize\n      sub\n      dup2\n      add\n      swap1\n      tag_65\n      swap2\n      swap1\n      tag_66\n      jump\t// in\n    tag_65:\n      tag_67\n      jump\t// in\n    tag_64:\n      mload(0x40)\n      tag_68\n      swap2\n      swap1\n      tag_45\n      jump\t// in\n    tag_68:\n      mload(0x40)\n      dup1\n      swap2\n      sub\n      swap1\n      return\n        /* \"contracts/LiskGarden.sol\":1477:1497  address public owner */\n    tag_12:\n      callvalue\n      dup1\n      iszero\n      tag_69\n      jumpi\n      revert(0x00, 0x00)\n    tag_69:\n      pop\n      tag_70\n      tag_71\n      jump\t// in\n    tag_70:\n      mload(0x40)\n      tag_72\n      swap2\n      swap1\n      tag_73\n      jump\t// in\n    tag_72:\n      mload(0x40)\n      dup1\n      swap2\n      sub\n      swap1\n      return\n        /* \"contracts/LiskGarden.sol\":1164:1203  mapping(uint256 => Plant) public plants */\n    tag_13:\n      callvalue\n      dup1\n      iszero\n      tag_74\n      jumpi\n      revert(0x00, 0x00)\n    tag_74:\n      pop\n      tag_75\n      0x04\n      dup1\n      calldatasize\n      sub\n      dup2\n      add\n      swap1\n      tag_76\n      swap2\n      swap1\n      tag_52\n      jump\t// in\n    tag_76:\n      tag_77\n      jump\t// in\n    tag_75:\n      mload(0x40)\n      tag_78\n      swap9\n      swap8\n      swap7\n      swap6\n      swap5\n      swap4\n      swap3\n      swap2\n      swap1\n      tag_37\n      jump\t// in\n    tag_78:\n      mload(0x40)\n      dup1\n      swap2\n      sub\n      swap1\n      return\n        /* \"contracts/LiskGarden.sol\":6793:7289  function waterPlant(uint256 plantId) external {... */\n    tag_14:\n      callvalue\n      dup1\n      iszero\n      tag_79\n      jumpi\n      revert(0x00, 0x00)\n    tag_79:\n      pop\n      tag_80\n      0x04\n      dup1\n      calldatasize\n      sub\n      dup2\n      add\n      swap1\n      tag_81\n      swap2\n      swap1\n      tag_52\n      jump\t// in\n    tag_81:\n      tag_82\n      jump\t// in\n    tag_80:\n      stop\n        /* \"contracts/LiskGarden.sol\":1394:1421  uint256 public plantCounter */\n    tag_15:\n      callvalue\n      dup1\n      iszero\n      tag_83\n      jumpi\n      revert(0x00, 0x00)\n    tag_83:\n      pop\n      tag_84\n      tag_85\n      jump\t// in\n    tag_84:\n      mload(0x40)\n      tag_86\n      swap2\n      swap1\n      tag_45\n      jump\t// in\n    tag_86:\n      mload(0x40)\n      dup1\n      swap2\n      sub\n      swap1\n      return\n        /* \"contracts/LiskGarden.sol\":2141:2187  uint8 public constant WATER_DEPLETION_RATE = 2 */\n    tag_16:\n      callvalue\n      dup1\n      iszero\n      tag_87\n      jumpi\n      revert(0x00, 0x00)\n    tag_87:\n      pop\n      tag_88\n      tag_89\n      jump\t// in\n    tag_88:\n      mload(0x40)\n      tag_90\n      swap2\n      swap1\n      tag_91\n      jump\t// in\n    tag_90:\n      mload(0x40)\n      dup1\n      swap2\n      sub\n      swap1\n      return\n        /* \"contracts/LiskGarden.sol\":1704:1753  uint256 public constant PLANT_PRICE = 0.001 ether */\n    tag_17:\n      callvalue\n      dup1\n      iszero\n      tag_92\n      jumpi\n      revert(0x00, 0x00)\n    tag_92:\n      pop\n      tag_93\n      tag_94\n      jump\t// in\n    tag_93:\n      mload(0x40)\n      tag_95\n      swap2\n      swap1\n      tag_45\n      jump\t// in\n    tag_95:\n      mload(0x40)\n      dup1\n      swap2\n      sub\n      swap1\n      return\n        /* \"contracts/LiskGarden.sol\":7773:8697  function updatePlantStage(uint256 plantId) public {... */\n    tag_18:\n      callvalue\n      dup1\n      iszero\n      tag_96\n      jumpi\n      revert(0x00, 0x00)\n    tag_96:\n      pop\n      tag_97\n      0x04\n      dup1\n      calldatasize\n      sub\n      dup2\n      add\n      swap1\n      tag_98\n      swap2\n      swap1\n      tag_52\n      jump\t// in\n    tag_98:\n      tag_99\n      jump\t// in\n    tag_97:\n      stop\n        /* \"contracts/LiskGarden.sol\":9048:9607  function harvestPlant(uint256 plantId) external {... */\n    tag_19:\n      callvalue\n      dup1\n      iszero\n      tag_100\n      jumpi\n      revert(0x00, 0x00)\n    tag_100:\n      pop\n      tag_101\n      0x04\n      dup1\n      calldatasize\n      sub\n      dup2\n      add\n      swap1\n      tag_102\n      swap2\n      swap1\n      tag_52\n      jump\t// in\n    tag_102:\n      tag_103\n      jump\t// in\n    tag_101:\n      stop\n        /* \"contracts/LiskGarden.sol\":9764:9972  function getPlant(uint256 plantId) external view returns (Plant memory) {... */\n    tag_20:\n      callvalue\n      dup1\n      iszero\n      tag_104\n      jumpi\n      revert(0x00, 0x00)\n    tag_104:\n      pop\n      tag_105\n      0x04\n      dup1\n      calldatasize\n      sub\n      dup2\n      add\n      swap1\n      tag_106\n      swap2\n      swap1\n      tag_52\n      jump\t// in\n    tag_106:\n      tag_107\n      jump\t// in\n    tag_105:\n      mload(0x40)\n      tag_108\n      swap2\n      swap1\n      tag_109\n      jump\t// in\n    tag_108:\n      mload(0x40)\n      dup1\n      swap2\n      sub\n      swap1\n      return\n        /* \"contracts/LiskGarden.sol\":9980:10100  function getUserPlants(address user) external view returns (uint256[] memory) {... */\n    tag_30:\n        /* \"contracts/LiskGarden.sol\":10040:10056  uint256[] memory */\n      0x60\n        /* \"contracts/LiskGarden.sol\":10076:10086  userPlants */\n      0x07\n        /* \"contracts/LiskGarden.sol\":10076:10092  userPlants[user] */\n      0x00\n        /* \"contracts/LiskGarden.sol\":10087:10091  user */\n      dup4\n        /* \"contracts/LiskGarden.sol\":10076:10092  userPlants[user] */\n      0xffffffffffffffffffffffffffffffffffffffff\n      and\n      0xffffffffffffffffffffffffffffffffffffffff\n      and\n      dup2\n      mstore\n      0x20\n      add\n      swap1\n      dup2\n      mstore\n      0x20\n      add\n      0x00\n      keccak256\n        /* \"contracts/LiskGarden.sol\":10069:10092  return userPlants[user] */\n      dup1\n      sload\n      dup1\n      0x20\n      mul\n      0x20\n      add\n      mload(0x40)\n      swap1\n      dup2\n      add\n      0x40\n      mstore\n      dup1\n      swap3\n      swap2\n      swap1\n      dup2\n      dup2\n      mstore\n      0x20\n      add\n      dup3\n      dup1\n      sload\n      dup1\n      iszero\n      tag_111\n      jumpi\n      0x20\n      mul\n      dup3\n      add\n      swap2\n      swap1\n      0x00\n      mstore\n      keccak256(0x00, 0x20)\n      swap1\n    tag_112:\n      dup2\n      sload\n      dup2\n      mstore\n      0x20\n      add\n      swap1\n      0x01\n      add\n      swap1\n      dup1\n      dup4\n      gt\n      tag_112\n      jumpi\n    tag_111:\n      pop\n      pop\n      pop\n      pop\n      pop\n      swap1\n      pop\n        /* \"contracts/LiskGarden.sol\":9980:10100  function getUserPlants(address user) external view returns (uint256[] memory) {... */\n      swap2\n      swap1\n      pop\n      jump\t// out\n        /* \"contracts/LiskGarden.sol\":940:960  Plant public myPlant */\n    tag_35:\n      0x00\n      dup1\n      0x00\n      add\n      sload\n      swap1\n      dup1\n      0x01\n      add\n      0x00\n      swap1\n      sload\n      swap1\n      0x0100\n      exp\n      swap1\n      div\n      0xffffffffffffffffffffffffffffffffffffffff\n      and\n      swap1\n      dup1\n      0x01\n      add\n      0x14\n      swap1\n      sload\n      swap1\n      0x0100\n      exp\n      swap1\n      div\n      0xff\n      and\n      swap1\n      dup1\n      0x02\n      add\n      sload\n      swap1\n      dup1\n      0x03\n      add\n      sload\n      swap1\n      dup1\n      0x04\n      add\n      sload\n      swap1\n      dup1\n      0x05\n      add\n      0x00\n      swap1\n      sload\n      swap1\n      0x0100\n      exp\n      swap1\n      div\n      0xff\n      and\n      swap1\n      dup1\n      0x05\n      add\n      0x01\n      swap1\n      sload\n      swap1\n      0x0100\n      exp\n      swap1\n      div\n      0xff\n      and\n      swap1\n      pop\n      dup9\n      jump\t// out\n        /* \"contracts/LiskGarden.sol\":10108:10318  function withdraw() external {... */\n    tag_40:\n        /* \"contracts/LiskGarden.sol\":10170:10175  owner */\n      0x09\n      0x00\n      swap1\n      sload\n      swap1\n      0x0100\n      exp\n      swap1\n      div\n      0xffffffffffffffffffffffffffffffffffffffff\n      and\n        /* \"contracts/LiskGarden.sol\":10156:10175  msg.sender == owner */\n      0xffffffffffffffffffffffffffffffffffffffff\n      and\n        /* \"contracts/LiskGarden.sol\":10156:10166  msg.sender */\n      caller\n        /* \"contracts/LiskGarden.sol\":10156:10175  msg.sender == owner */\n      0xffffffffffffffffffffffffffffffffffffffff\n      and\n      eq\n        /* \"contracts/LiskGarden.sol\":10148:10191  require(msg.sender == owner, \"Bukan owner\") */\n      tag_114\n      jumpi\n      mload(0x40)\n      0x08c379a000000000000000000000000000000000000000000000000000000000\n      dup2\n      mstore\n      0x04\n      add\n      tag_115\n      swap1\n      tag_116\n      jump\t// in\n    tag_115:\n      mload(0x40)\n      dup1\n      swap2\n      sub\n      swap1\n      revert\n    tag_114:\n        /* \"contracts/LiskGarden.sol\":10203:10215  bool success */\n      0x00\n        /* \"contracts/LiskGarden.sol\":10221:10226  owner */\n      0x09\n      0x00\n      swap1\n      sload\n      swap1\n      0x0100\n      exp\n      swap1\n      div\n      0xffffffffffffffffffffffffffffffffffffffff\n      and\n        /* \"contracts/LiskGarden.sol\":10221:10231  owner.call */\n      0xffffffffffffffffffffffffffffffffffffffff\n      and\n        /* \"contracts/LiskGarden.sol\":10239:10260  address(this).balance */\n      selfbalance\n        /* \"contracts/LiskGarden.sol\":10221:10265  owner.call{value: address(this).balance}(\"\") */\n      mload(0x40)\n      tag_117\n      swap1\n      tag_118\n      jump\t// in\n    tag_117:\n      0x00\n      mload(0x40)\n      dup1\n      dup4\n      sub\n      dup2\n      dup6\n      dup8\n      gas\n      call\n      swap3\n      pop\n      pop\n      pop\n      returndatasize\n      dup1\n      0x00\n      dup2\n      eq\n      tag_121\n      jumpi\n      mload(0x40)\n      swap2\n      pop\n      and(add(returndatasize, 0x3f), not(0x1f))\n      dup3\n      add\n      0x40\n      mstore\n      returndatasize\n      dup3\n      mstore\n      returndatasize\n      0x00\n      0x20\n      dup5\n      add\n      returndatacopy\n      jump(tag_120)\n    tag_121:\n      0x60\n      swap2\n      pop\n    tag_120:\n      pop\n        /* \"contracts/LiskGarden.sol\":10202:10265  (bool success, ) = owner.call{value: address(this).balance}(\"\") */\n      pop\n      swap1\n      pop\n        /* \"contracts/LiskGarden.sol\":10284:10291  success */\n      dup1\n        /* \"contracts/LiskGarden.sol\":10276:10310  require(success, \"Transfer gagal\") */\n      tag_122\n      jumpi\n      mload(0x40)\n      0x08c379a000000000000000000000000000000000000000000000000000000000\n      dup2\n      mstore\n      0x04\n      add\n      tag_123\n      swap1\n      tag_124\n      jump\t// in\n    tag_123:\n      mload(0x40)\n      dup1\n      swap2\n      sub\n      swap1\n      revert\n    tag_122:\n        /* \"contracts/LiskGarden.sol\":10137:10318  {... */\n      pop\n        /* \"contracts/LiskGarden.sol\":10108:10318  function withdraw() external {... */\n      jump\t// out\n        /* \"contracts/LiskGarden.sol\":1913:1963  uint256 public constant STAGE_DURATION = 1 minutes */\n    tag_43:\n        /* \"contracts/LiskGarden.sol\":1954:1963  1 minutes */\n      0x3c\n        /* \"contracts/LiskGarden.sol\":1913:1963  uint256 public constant STAGE_DURATION = 1 minutes */\n      dup2\n      jump\t// out\n        /* \"contracts/LiskGarden.sol\":3848:4602  function plantSeed() external payable returns (uint256) {... */\n    tag_47:\n        /* \"contracts/LiskGarden.sol\":3895:3902  uint256 */\n      0x00\n        /* \"contracts/LiskGarden.sol\":1742:1753  0.001 ether */\n      0x038d7ea4c68000\n        /* \"contracts/LiskGarden.sol\":4003:4012  msg.value */\n      callvalue\n        /* \"contracts/LiskGarden.sol\":4003:4027  msg.value >= PLANT_PRICE */\n      lt\n      iszero\n        /* \"contracts/LiskGarden.sol\":3995:4028  require(msg.value >= PLANT_PRICE) */\n      tag_126\n      jumpi\n      revert(0x00, 0x00)\n    tag_126:\n        /* \"contracts/LiskGarden.sol\":4081:4093  plantCounter */\n      0x08\n      0x00\n        /* \"contracts/LiskGarden.sol\":4081:4095  plantCounter++ */\n      dup2\n      sload\n      dup1\n      swap3\n      swap2\n      swap1\n      tag_127\n      swap1\n      tag_128\n      jump\t// in\n    tag_127:\n      swap2\n      swap1\n      pop\n      sstore\n      pop\n        /* \"contracts/LiskGarden.sol\":4131:4421  Plant({... */\n      mload(0x40)\n      dup1\n      0x0100\n      add\n      0x40\n      mstore\n      dup1\n        /* \"contracts/LiskGarden.sol\":4156:4168  plantCounter */\n      sload(0x08)\n        /* \"contracts/LiskGarden.sol\":4131:4421  Plant({... */\n      dup2\n      mstore\n      0x20\n      add\n        /* \"contracts/LiskGarden.sol\":4190:4200  msg.sender */\n      caller\n        /* \"contracts/LiskGarden.sol\":4131:4421  Plant({... */\n      0xffffffffffffffffffffffffffffffffffffffff\n      and\n      dup2\n      mstore\n      0x20\n      add\n        /* \"contracts/LiskGarden.sol\":4222:4238  GrowthStage.SEED */\n      0x00\n        /* \"contracts/LiskGarden.sol\":4131:4421  Plant({... */\n      0x03\n      dup2\n      gt\n      iszero\n      tag_129\n      jumpi\n      tag_130\n      tag_131\n      jump\t// in\n    tag_130:\n    tag_129:\n      dup2\n      mstore\n      0x20\n      add\n        /* \"contracts/LiskGarden.sol\":4394:4409  block.timestamp */\n      timestamp\n        /* \"contracts/LiskGarden.sol\":4131:4421  Plant({... */\n      dup2\n      mstore\n      0x20\n      add\n        /* \"contracts/LiskGarden.sol\":4323:4338  block.timestamp */\n      timestamp\n        /* \"contracts/LiskGarden.sol\":4131:4421  Plant({... */\n      dup2\n      mstore\n      0x20\n      add\n        /* \"contracts/LiskGarden.sol\":4265:4268  100 */\n      0x64\n        /* \"contracts/LiskGarden.sol\":4131:4421  Plant({... */\n      dup2\n      mstore\n      0x20\n      add\n        /* \"contracts/LiskGarden.sol\":4291:4295  true */\n      0x01\n        /* \"contracts/LiskGarden.sol\":4131:4421  Plant({... */\n      iszero\n      iszero\n      dup2\n      mstore\n      0x20\n      add\n        /* \"contracts/LiskGarden.sol\":4361:4366  false */\n      0x00\n        /* \"contracts/LiskGarden.sol\":4131:4421  Plant({... */\n      iszero\n      iszero\n      dup2\n      mstore\n      pop\n        /* \"contracts/LiskGarden.sol\":4108:4114  plants */\n      0x06\n        /* \"contracts/LiskGarden.sol\":4108:4128  plants[plantCounter] */\n      0x00\n        /* \"contracts/LiskGarden.sol\":4115:4127  plantCounter */\n      sload(0x08)\n        /* \"contracts/LiskGarden.sol\":4108:4128  plants[plantCounter] */\n      dup2\n      mstore\n      0x20\n      add\n      swap1\n      dup2\n      mstore\n      0x20\n      add\n      0x00\n      keccak256\n        /* \"contracts/LiskGarden.sol\":4108:4421  plants[plantCounter] = Plant({... */\n      0x00\n      dup3\n      add\n      mload\n      dup2\n      0x00\n      add\n      sstore\n      0x20\n      dup3\n      add\n      mload\n      dup2\n      0x01\n      add\n      exp(0x0100, 0x00)\n      dup2\n      sload\n      dup2\n      0xffffffffffffffffffffffffffffffffffffffff\n      mul\n      not\n      and\n      swap1\n      dup4\n      0xffffffffffffffffffffffffffffffffffffffff\n      and\n      mul\n      or\n      swap1\n      sstore\n      pop\n      0x40\n      dup3\n      add\n      mload\n      dup2\n      0x01\n      add\n      exp(0x0100, 0x14)\n      dup2\n      sload\n      dup2\n      0xff\n      mul\n      not\n      and\n      swap1\n      dup4\n      0x03\n      dup2\n      gt\n      iszero\n      tag_132\n      jumpi\n      tag_133\n      tag_131\n      jump\t// in\n    tag_133:\n    tag_132:\n      mul\n      or\n      swap1\n      sstore\n      pop\n      0x60\n      dup3\n      add\n      mload\n      dup2\n      0x02\n      add\n      sstore\n      0x80\n      dup3\n      add\n      mload\n      dup2\n      0x03\n      add\n      sstore\n      0xa0\n      dup3\n      add\n      mload\n      dup2\n      0x04\n      add\n      sstore\n      0xc0\n      dup3\n      add\n      mload\n      dup2\n      0x05\n      add\n      exp(0x0100, 0x00)\n      dup2\n      sload\n      dup2\n      0xff\n      mul\n      not\n      and\n      swap1\n      dup4\n      iszero\n      iszero\n      mul\n      or\n      swap1\n      sstore\n      pop\n      0xe0\n      dup3\n      add\n      mload\n      dup2\n      0x05\n      add\n      exp(0x0100, 0x01)\n      dup2\n      sload\n      dup2\n      0xff\n      mul\n      not\n      and\n      swap1\n      dup4\n      iszero\n      iszero\n      mul\n      or\n      swap1\n      sstore\n      pop\n      swap1\n      pop\n      pop\n        /* \"contracts/LiskGarden.sol\":4441:4453  plantCounter */\n      sload(0x08)\n        /* \"contracts/LiskGarden.sol\":4434:4453  return plantCounter */\n      swap1\n      pop\n        /* \"contracts/LiskGarden.sol\":3848:4602  function plantSeed() external payable returns (uint256) {... */\n      swap1\n      jump\t// out\n        /* \"contracts/LiskGarden.sol\":5236:5838  function calculateWaterLevel(uint256 plantId) public view returns (uint256) {... */\n    tag_53:\n        /* \"contracts/LiskGarden.sol\":5303:5310  uint256 */\n      0x00\n        /* \"contracts/LiskGarden.sol\":5351:5370  Plant storage plant */\n      0x00\n        /* \"contracts/LiskGarden.sol\":5373:5379  plants */\n      0x06\n        /* \"contracts/LiskGarden.sol\":5373:5388  plants[plantId] */\n      0x00\n        /* \"contracts/LiskGarden.sol\":5380:5387  plantId */\n      dup5\n        /* \"contracts/LiskGarden.sol\":5373:5388  plants[plantId] */\n      dup2\n      mstore\n      0x20\n      add\n      swap1\n      dup2\n      mstore\n      0x20\n      add\n      0x00\n      keccak256\n        /* \"contracts/LiskGarden.sol\":5351:5388  Plant storage plant = plants[plantId] */\n      swap1\n      pop\n        /* \"contracts/LiskGarden.sol\":5404:5409  plant */\n      dup1\n        /* \"contracts/LiskGarden.sol\":5404:5416  plant.exists */\n      0x05\n      add\n      0x00\n      swap1\n      sload\n      swap1\n      0x0100\n      exp\n      swap1\n      div\n      0xff\n      and\n        /* \"contracts/LiskGarden.sol\":5403:5416  !plant.exists */\n      iszero\n        /* \"contracts/LiskGarden.sol\":5403:5432  !plant.exists || plant.isDead */\n      dup1\n      tag_136\n      jumpi\n      pop\n        /* \"contracts/LiskGarden.sol\":5420:5425  plant */\n      dup1\n        /* \"contracts/LiskGarden.sol\":5420:5432  plant.isDead */\n      0x05\n      add\n      0x01\n      swap1\n      sload\n      swap1\n      0x0100\n      exp\n      swap1\n      div\n      0xff\n      and\n        /* \"contracts/LiskGarden.sol\":5403:5432  !plant.exists || plant.isDead */\n    tag_136:\n        /* \"contracts/LiskGarden.sol\":5399:5469  if (!plant.exists || plant.isDead) {... */\n      iszero\n      tag_137\n      jumpi\n        /* \"contracts/LiskGarden.sol\":5456:5457  0 */\n      0x00\n        /* \"contracts/LiskGarden.sol\":5449:5457  return 0 */\n      swap2\n      pop\n      pop\n      jump(tag_135)\n        /* \"contracts/LiskGarden.sol\":5399:5469  if (!plant.exists || plant.isDead) {... */\n    tag_137:\n        /* \"contracts/LiskGarden.sol\":5481:5505  uint256 timeSinceWatered */\n      0x00\n        /* \"contracts/LiskGarden.sol\":5526:5531  plant */\n      dup2\n        /* \"contracts/LiskGarden.sol\":5526:5543  plant.lastWatered */\n      0x03\n      add\n      sload\n        /* \"contracts/LiskGarden.sol\":5508:5523  block.timestamp */\n      timestamp\n        /* \"contracts/LiskGarden.sol\":5508:5543  block.timestamp - plant.lastWatered */\n      tag_138\n      swap2\n      swap1\n      tag_139\n      jump\t// in\n    tag_138:\n        /* \"contracts/LiskGarden.sol\":5481:5543  uint256 timeSinceWatered = block.timestamp - plant.lastWatered */\n      swap1\n      pop\n        /* \"contracts/LiskGarden.sol\":5554:5580  uint256 depletionIntervals */\n      0x00\n        /* \"contracts/LiskGarden.sol\":2066:2076  30 seconds */\n      0x1e\n        /* \"contracts/LiskGarden.sol\":5583:5599  timeSinceWatered */\n      dup3\n        /* \"contracts/LiskGarden.sol\":5583:5622  timeSinceWatered / WATER_DEPLETION_TIME */\n      tag_140\n      swap2\n      swap1\n      tag_141\n      jump\t// in\n    tag_140:\n        /* \"contracts/LiskGarden.sol\":5554:5622  uint256 depletionIntervals = timeSinceWatered / WATER_DEPLETION_TIME */\n      swap1\n      pop\n        /* \"contracts/LiskGarden.sol\":5633:5650  uint256 waterLost */\n      0x00\n        /* \"contracts/LiskGarden.sol\":2186:2187  2 */\n      0x02\n        /* \"contracts/LiskGarden.sol\":5653:5694  depletionIntervals * WATER_DEPLETION_RATE */\n      0xff\n      and\n        /* \"contracts/LiskGarden.sol\":5653:5671  depletionIntervals */\n      dup3\n        /* \"contracts/LiskGarden.sol\":5653:5694  depletionIntervals * WATER_DEPLETION_RATE */\n      tag_142\n      swap2\n      swap1\n      tag_143\n      jump\t// in\n    tag_142:\n        /* \"contracts/LiskGarden.sol\":5633:5694  uint256 waterLost = depletionIntervals * WATER_DEPLETION_RATE */\n      swap1\n      pop\n        /* \"contracts/LiskGarden.sol\":5724:5729  plant */\n      dup4\n        /* \"contracts/LiskGarden.sol\":5724:5740  plant.waterLevel */\n      0x04\n      add\n      sload\n        /* \"contracts/LiskGarden.sol\":5711:5720  waterLost */\n      dup2\n        /* \"contracts/LiskGarden.sol\":5711:5740  waterLost >= plant.waterLevel */\n      lt\n        /* \"contracts/LiskGarden.sol\":5707:5777  if (waterLost >= plant.waterLevel) {... */\n      tag_144\n      jumpi\n        /* \"contracts/LiskGarden.sol\":5764:5765  0 */\n      0x00\n        /* \"contracts/LiskGarden.sol\":5757:5765  return 0 */\n      swap5\n      pop\n      pop\n      pop\n      pop\n      pop\n      jump(tag_135)\n        /* \"contracts/LiskGarden.sol\":5707:5777  if (waterLost >= plant.waterLevel) {... */\n    tag_144:\n        /* \"contracts/LiskGarden.sol\":5813:5822  waterLost */\n      dup1\n        /* \"contracts/LiskGarden.sol\":5794:5799  plant */\n      dup5\n        /* \"contracts/LiskGarden.sol\":5794:5810  plant.waterLevel */\n      0x04\n      add\n      sload\n        /* \"contracts/LiskGarden.sol\":5794:5822  plant.waterLevel - waterLost */\n      tag_145\n      swap2\n      swap1\n      tag_139\n      jump\t// in\n    tag_145:\n        /* \"contracts/LiskGarden.sol\":5787:5822  return plant.waterLevel - waterLost */\n      swap5\n      pop\n      pop\n      pop\n      pop\n      pop\n        /* \"contracts/LiskGarden.sol\":5236:5838  function calculateWaterLevel(uint256 plantId) public view returns (uint256) {... */\n    tag_135:\n      swap2\n      swap1\n      pop\n      jump\t// out\n        /* \"contracts/LiskGarden.sol\":2019:2076  uint256 public constant WATER_DEPLETION_TIME = 30 seconds */\n    tag_57:\n        /* \"contracts/LiskGarden.sol\":2066:2076  30 seconds */\n      0x1e\n        /* \"contracts/LiskGarden.sol\":2019:2076  uint256 public constant WATER_DEPLETION_TIME = 30 seconds */\n      dup2\n      jump\t// out\n        /* \"contracts/LiskGarden.sol\":1807:1859  uint256 public constant HARVEST_REWARD = 0.003 ether */\n    tag_61:\n        /* \"contracts/LiskGarden.sol\":1848:1859  0.003 ether */\n      0x0aa87bee538000\n        /* \"contracts/LiskGarden.sol\":1807:1859  uint256 public constant HARVEST_REWARD = 0.003 ether */\n      dup2\n      jump\t// out\n        /* \"contracts/LiskGarden.sol\":1288:1335  mapping(address => uint256[]) public userPlants */\n    tag_67:\n      mstore(0x20, 0x07)\n      dup2\n      0x00\n      mstore\n      keccak256(0x00, 0x40)\n      dup2\n      dup2\n      sload\n      dup2\n      lt\n      tag_146\n      jumpi\n      0x00\n      dup1\n      revert\n    tag_146:\n      swap1\n      0x00\n      mstore\n      keccak256(0x00, 0x20)\n      add\n      0x00\n      swap2\n      pop\n      swap2\n      pop\n      pop\n      sload\n      dup2\n      jump\t// out\n        /* \"contracts/LiskGarden.sol\":1477:1497  address public owner */\n    tag_71:\n      0x09\n      0x00\n      swap1\n      sload\n      swap1\n      0x0100\n      exp\n      swap1\n      div\n      0xffffffffffffffffffffffffffffffffffffffff\n      and\n      dup2\n      jump\t// out\n        /* \"contracts/LiskGarden.sol\":1164:1203  mapping(uint256 => Plant) public plants */\n    tag_77:\n      mstore(0x20, 0x06)\n      dup1\n      0x00\n      mstore\n      keccak256(0x00, 0x40)\n      0x00\n      swap2\n      pop\n      swap1\n      pop\n      dup1\n      0x00\n      add\n      sload\n      swap1\n      dup1\n      0x01\n      add\n      0x00\n      swap1\n      sload\n      swap1\n      0x0100\n      exp\n      swap1\n      div\n      0xffffffffffffffffffffffffffffffffffffffff\n      and\n      swap1\n      dup1\n      0x01\n      add\n      0x14\n      swap1\n      sload\n      swap1\n      0x0100\n      exp\n      swap1\n      div\n      0xff\n      and\n      swap1\n      dup1\n      0x02\n      add\n      sload\n      swap1\n      dup1\n      0x03\n      add\n      sload\n      swap1\n      dup1\n      0x04\n      add\n      sload\n      swap1\n      dup1\n      0x05\n      add\n      0x00\n      swap1\n      sload\n      swap1\n      0x0100\n      exp\n      swap1\n      div\n      0xff\n      and\n      swap1\n      dup1\n      0x05\n      add\n      0x01\n      swap1\n      sload\n      swap1\n      0x0100\n      exp\n      swap1\n      div\n      0xff\n      and\n      swap1\n      pop\n      dup9\n      jump\t// out\n        /* \"contracts/LiskGarden.sol\":6793:7289  function waterPlant(uint256 plantId) external {... */\n    tag_82:\n        /* \"contracts/LiskGarden.sol\":6878:6897  Plant storage plant */\n      0x00\n        /* \"contracts/LiskGarden.sol\":6900:6906  plants */\n      0x06\n        /* \"contracts/LiskGarden.sol\":6900:6915  plants[plantId] */\n      0x00\n        /* \"contracts/LiskGarden.sol\":6907:6914  plantId */\n      dup4\n        /* \"contracts/LiskGarden.sol\":6900:6915  plants[plantId] */\n      dup2\n      mstore\n      0x20\n      add\n      swap1\n      dup2\n      mstore\n      0x20\n      add\n      0x00\n      keccak256\n        /* \"contracts/LiskGarden.sol\":6878:6915  Plant storage plant = plants[plantId] */\n      swap1\n      pop\n        /* \"contracts/LiskGarden.sol\":6934:6939  plant */\n      dup1\n        /* \"contracts/LiskGarden.sol\":6934:6946  plant.exists */\n      0x05\n      add\n      0x00\n      swap1\n      sload\n      swap1\n      0x0100\n      exp\n      swap1\n      div\n      0xff\n      and\n        /* \"contracts/LiskGarden.sol\":6926:6971  require(plant.exists, \"Plant does not exist\") */\n      tag_149\n      jumpi\n      mload(0x40)\n      0x08c379a000000000000000000000000000000000000000000000000000000000\n      dup2\n      mstore\n      0x04\n      add\n      tag_150\n      swap1\n      tag_151\n      jump\t// in\n    tag_150:\n      mload(0x40)\n      dup1\n      swap2\n      sub\n      swap1\n      revert\n    tag_149:\n        /* \"contracts/LiskGarden.sol\":7004:7009  plant */\n      dup1\n        /* \"contracts/LiskGarden.sol\":7004:7015  plant.owner */\n      0x01\n      add\n      0x00\n      swap1\n      sload\n      swap1\n      0x0100\n      exp\n      swap1\n      div\n      0xffffffffffffffffffffffffffffffffffffffff\n      and\n        /* \"contracts/LiskGarden.sol\":6990:7015  msg.sender == plant.owner */\n      0xffffffffffffffffffffffffffffffffffffffff\n      and\n        /* \"contracts/LiskGarden.sol\":6990:7000  msg.sender */\n      caller\n        /* \"contracts/LiskGarden.sol\":6990:7015  msg.sender == plant.owner */\n      0xffffffffffffffffffffffffffffffffffffffff\n      and\n      eq\n        /* \"contracts/LiskGarden.sol\":6982:7060  require(msg.sender == plant.owner, \"Only the plant owner can water the plant\") */\n      tag_152\n      jumpi\n      mload(0x40)\n      0x08c379a000000000000000000000000000000000000000000000000000000000\n      dup2\n      mstore\n      0x04\n      add\n      tag_153\n      swap1\n      tag_154\n      jump\t// in\n    tag_153:\n      mload(0x40)\n      dup1\n      swap2\n      sub\n      swap1\n      revert\n    tag_152:\n        /* \"contracts/LiskGarden.sol\":7080:7085  plant */\n      dup1\n        /* \"contracts/LiskGarden.sol\":7080:7092  plant.isDead */\n      0x05\n      add\n      0x01\n      swap1\n      sload\n      swap1\n      0x0100\n      exp\n      swap1\n      div\n      0xff\n      and\n        /* \"contracts/LiskGarden.sol\":7079:7092  !plant.isDead */\n      iszero\n        /* \"contracts/LiskGarden.sol\":7071:7122  require(!plant.isDead, \"Cannot water a dead plant\") */\n      tag_155\n      jumpi\n      mload(0x40)\n      0x08c379a000000000000000000000000000000000000000000000000000000000\n      dup2\n      mstore\n      0x04\n      add\n      tag_156\n      swap1\n      tag_157\n      jump\t// in\n    tag_156:\n      mload(0x40)\n      dup1\n      swap2\n      sub\n      swap1\n      revert\n    tag_155:\n        /* \"contracts/LiskGarden.sol\":7152:7155  100 */\n      0x64\n        /* \"contracts/LiskGarden.sol\":7133:7138  plant */\n      dup2\n        /* \"contracts/LiskGarden.sol\":7133:7149  plant.waterLevel */\n      0x04\n      add\n        /* \"contracts/LiskGarden.sol\":7133:7155  plant.waterLevel = 100 */\n      dup2\n      swap1\n      sstore\n      pop\n        /* \"contracts/LiskGarden.sol\":7186:7201  block.timestamp */\n      timestamp\n        /* \"contracts/LiskGarden.sol\":7166:7171  plant */\n      dup2\n        /* \"contracts/LiskGarden.sol\":7166:7183  plant.lastWatered */\n      0x03\n      add\n        /* \"contracts/LiskGarden.sol\":7166:7201  plant.lastWatered = block.timestamp */\n      dup2\n      swap1\n      sstore\n      pop\n        /* \"contracts/LiskGarden.sol\":7230:7237  plantId */\n      dup2\n        /* \"contracts/LiskGarden.sol\":7217:7243  PlantWatered(plantId, 100) */\n      0xd4b742b9ba48fffa1f14267075a7793851770764117c423fd0a6550dfc8cb574\n        /* \"contracts/LiskGarden.sol\":7239:7242  100 */\n      0x64\n        /* \"contracts/LiskGarden.sol\":7217:7243  PlantWatered(plantId, 100) */\n      mload(0x40)\n      tag_158\n      swap2\n      swap1\n      tag_159\n      jump\t// in\n    tag_158:\n      mload(0x40)\n      dup1\n      swap2\n      sub\n      swap1\n      log2\n        /* \"contracts/LiskGarden.sol\":7254:7279  updatePlantStage(plantId) */\n      tag_160\n        /* \"contracts/LiskGarden.sol\":7271:7278  plantId */\n      dup3\n        /* \"contracts/LiskGarden.sol\":7254:7270  updatePlantStage */\n      tag_99\n        /* \"contracts/LiskGarden.sol\":7254:7279  updatePlantStage(plantId) */\n      jump\t// in\n    tag_160:\n        /* \"contracts/LiskGarden.sol\":6839:7289  {... */\n      pop\n        /* \"contracts/LiskGarden.sol\":6793:7289  function waterPlant(uint256 plantId) external {... */\n      pop\n      jump\t// out\n        /* \"contracts/LiskGarden.sol\":1394:1421  uint256 public plantCounter */\n    tag_85:\n      sload(0x08)\n      dup2\n      jump\t// out\n        /* \"contracts/LiskGarden.sol\":2141:2187  uint8 public constant WATER_DEPLETION_RATE = 2 */\n    tag_89:\n        /* \"contracts/LiskGarden.sol\":2186:2187  2 */\n      0x02\n        /* \"contracts/LiskGarden.sol\":2141:2187  uint8 public constant WATER_DEPLETION_RATE = 2 */\n      dup2\n      jump\t// out\n        /* \"contracts/LiskGarden.sol\":1704:1753  uint256 public constant PLANT_PRICE = 0.001 ether */\n    tag_94:\n        /* \"contracts/LiskGarden.sol\":1742:1753  0.001 ether */\n      0x038d7ea4c68000\n        /* \"contracts/LiskGarden.sol\":1704:1753  uint256 public constant PLANT_PRICE = 0.001 ether */\n      dup2\n      jump\t// out\n        /* \"contracts/LiskGarden.sol\":7773:8697  function updatePlantStage(uint256 plantId) public {... */\n    tag_99:\n        /* \"contracts/LiskGarden.sol\":7862:7881  Plant storage plant */\n      0x00\n        /* \"contracts/LiskGarden.sol\":7884:7890  plants */\n      0x06\n        /* \"contracts/LiskGarden.sol\":7884:7899  plants[plantId] */\n      0x00\n        /* \"contracts/LiskGarden.sol\":7891:7898  plantId */\n      dup4\n        /* \"contracts/LiskGarden.sol\":7884:7899  plants[plantId] */\n      dup2\n      mstore\n      0x20\n      add\n      swap1\n      dup2\n      mstore\n      0x20\n      add\n      0x00\n      keccak256\n        /* \"contracts/LiskGarden.sol\":7862:7899  Plant storage plant = plants[plantId] */\n      swap1\n      pop\n        /* \"contracts/LiskGarden.sol\":7918:7923  plant */\n      dup1\n        /* \"contracts/LiskGarden.sol\":7918:7930  plant.exists */\n      0x05\n      add\n      0x00\n      swap1\n      sload\n      swap1\n      0x0100\n      exp\n      swap1\n      div\n      0xff\n      and\n        /* \"contracts/LiskGarden.sol\":7910:7955  require(plant.exists, \"Plant does not exist\") */\n      tag_162\n      jumpi\n      mload(0x40)\n      0x08c379a000000000000000000000000000000000000000000000000000000000\n      dup2\n      mstore\n      0x04\n      add\n      tag_163\n      swap1\n      tag_151\n      jump\t// in\n    tag_163:\n      mload(0x40)\n      dup1\n      swap2\n      sub\n      swap1\n      revert\n    tag_162:\n        /* \"contracts/LiskGarden.sol\":7966:7991  updateWaterLevel(plantId) */\n      tag_164\n        /* \"contracts/LiskGarden.sol\":7983:7990  plantId */\n      dup3\n        /* \"contracts/LiskGarden.sol\":7966:7982  updateWaterLevel */\n      tag_165\n        /* \"contracts/LiskGarden.sol\":7966:7991  updateWaterLevel(plantId) */\n      jump\t// in\n    tag_164:\n        /* \"contracts/LiskGarden.sol\":8006:8011  plant */\n      dup1\n        /* \"contracts/LiskGarden.sol\":8006:8018  plant.isDead */\n      0x05\n      add\n      0x01\n      swap1\n      sload\n      swap1\n      0x0100\n      exp\n      swap1\n      div\n      0xff\n      and\n        /* \"contracts/LiskGarden.sol\":8002:8053  if (plant.isDead) {... */\n      iszero\n      tag_166\n      jumpi\n        /* \"contracts/LiskGarden.sol\":8035:8042  return; */\n      pop\n      jump(tag_161)\n        /* \"contracts/LiskGarden.sol\":8002:8053  if (plant.isDead) {... */\n    tag_166:\n        /* \"contracts/LiskGarden.sol\":8063:8087  uint256 timeSincePlanted */\n      0x00\n        /* \"contracts/LiskGarden.sol\":8108:8113  plant */\n      dup2\n        /* \"contracts/LiskGarden.sol\":8108:8125  plant.plantedDate */\n      0x02\n      add\n      sload\n        /* \"contracts/LiskGarden.sol\":8090:8105  block.timestamp */\n      timestamp\n        /* \"contracts/LiskGarden.sol\":8090:8125  block.timestamp - plant.plantedDate */\n      tag_167\n      swap2\n      swap1\n      tag_139\n      jump\t// in\n    tag_167:\n        /* \"contracts/LiskGarden.sol\":8063:8125  uint256 timeSincePlanted = block.timestamp - plant.plantedDate */\n      swap1\n      pop\n        /* \"contracts/LiskGarden.sol\":8136:8156  GrowthStage oldStage */\n      0x00\n        /* \"contracts/LiskGarden.sol\":8159:8164  plant */\n      dup3\n        /* \"contracts/LiskGarden.sol\":8159:8170  plant.stage */\n      0x01\n      add\n      0x14\n      swap1\n      sload\n      swap1\n      0x0100\n      exp\n      swap1\n      div\n      0xff\n      and\n        /* \"contracts/LiskGarden.sol\":8136:8170  GrowthStage oldStage = plant.stage */\n      swap1\n      pop\n        /* \"contracts/LiskGarden.sol\":8197:8213  GrowthStage.SEED */\n      0x00\n        /* \"contracts/LiskGarden.sol\":8185:8213  oldStage == GrowthStage.SEED */\n      0x03\n      dup2\n      gt\n      iszero\n      tag_168\n      jumpi\n      tag_169\n      tag_131\n      jump\t// in\n    tag_169:\n    tag_168:\n        /* \"contracts/LiskGarden.sol\":8185:8193  oldStage */\n      dup2\n        /* \"contracts/LiskGarden.sol\":8185:8213  oldStage == GrowthStage.SEED */\n      0x03\n      dup2\n      gt\n      iszero\n      tag_170\n      jumpi\n      tag_171\n      tag_131\n      jump\t// in\n    tag_171:\n    tag_170:\n      sub\n        /* \"contracts/LiskGarden.sol\":8181:8678  if (oldStage == GrowthStage.SEED) {... */\n      tag_172\n      jumpi\n        /* \"contracts/LiskGarden.sol\":8241:8259  GrowthStage.SPROUT */\n      0x01\n        /* \"contracts/LiskGarden.sol\":8230:8259  oldStage = GrowthStage.SPROUT */\n      swap1\n      pop\n        /* \"contracts/LiskGarden.sol\":8293:8300  plantId */\n      dup4\n        /* \"contracts/LiskGarden.sol\":8279:8321  StageAdvanced(plantId, GrowthStage.SPROUT) */\n      0x338b8976706f9da67298dddfa1ea4ff7d99cce68b9ca39c4f348994f8e2124a8\n        /* \"contracts/LiskGarden.sol\":8302:8320  GrowthStage.SPROUT */\n      0x01\n        /* \"contracts/LiskGarden.sol\":8279:8321  StageAdvanced(plantId, GrowthStage.SPROUT) */\n      mload(0x40)\n      tag_173\n      swap2\n      swap1\n      tag_174\n      jump\t// in\n    tag_173:\n      mload(0x40)\n      dup1\n      swap2\n      sub\n      swap1\n      log2\n        /* \"contracts/LiskGarden.sol\":8181:8678  if (oldStage == GrowthStage.SEED) {... */\n      jump(tag_175)\n    tag_172:\n        /* \"contracts/LiskGarden.sol\":8364:8382  GrowthStage.SPROUT */\n      0x01\n        /* \"contracts/LiskGarden.sol\":8352:8382  oldStage == GrowthStage.SPROUT */\n      0x03\n      dup2\n      gt\n      iszero\n      tag_176\n      jumpi\n      tag_177\n      tag_131\n      jump\t// in\n    tag_177:\n    tag_176:\n        /* \"contracts/LiskGarden.sol\":8352:8360  oldStage */\n      dup2\n        /* \"contracts/LiskGarden.sol\":8352:8382  oldStage == GrowthStage.SPROUT */\n      0x03\n      dup2\n      gt\n      iszero\n      tag_178\n      jumpi\n      tag_179\n      tag_131\n      jump\t// in\n    tag_179:\n    tag_178:\n      sub\n        /* \"contracts/LiskGarden.sol\":8348:8678  if (oldStage == GrowthStage.SPROUT) {... */\n      tag_180\n      jumpi\n        /* \"contracts/LiskGarden.sol\":8410:8429  GrowthStage.GROWING */\n      0x02\n        /* \"contracts/LiskGarden.sol\":8399:8429  oldStage = GrowthStage.GROWING */\n      swap1\n      pop\n        /* \"contracts/LiskGarden.sol\":8463:8470  plantId */\n      dup4\n        /* \"contracts/LiskGarden.sol\":8449:8492  StageAdvanced(plantId, GrowthStage.GROWING) */\n      0x338b8976706f9da67298dddfa1ea4ff7d99cce68b9ca39c4f348994f8e2124a8\n        /* \"contracts/LiskGarden.sol\":8472:8491  GrowthStage.GROWING */\n      0x02\n        /* \"contracts/LiskGarden.sol\":8449:8492  StageAdvanced(plantId, GrowthStage.GROWING) */\n      mload(0x40)\n      tag_181\n      swap2\n      swap1\n      tag_174\n      jump\t// in\n    tag_181:\n      mload(0x40)\n      dup1\n      swap2\n      sub\n      swap1\n      log2\n        /* \"contracts/LiskGarden.sol\":8348:8678  if (oldStage == GrowthStage.SPROUT) {... */\n      jump(tag_182)\n    tag_180:\n        /* \"contracts/LiskGarden.sol\":8535:8554  GrowthStage.GROWING */\n      0x02\n        /* \"contracts/LiskGarden.sol\":8523:8554  oldStage == GrowthStage.GROWING */\n      0x03\n      dup2\n      gt\n      iszero\n      tag_183\n      jumpi\n      tag_184\n      tag_131\n      jump\t// in\n    tag_184:\n    tag_183:\n        /* \"contracts/LiskGarden.sol\":8523:8531  oldStage */\n      dup2\n        /* \"contracts/LiskGarden.sol\":8523:8554  oldStage == GrowthStage.GROWING */\n      0x03\n      dup2\n      gt\n      iszero\n      tag_185\n      jumpi\n      tag_186\n      tag_131\n      jump\t// in\n    tag_186:\n    tag_185:\n      sub\n        /* \"contracts/LiskGarden.sol\":8519:8678  if (oldStage == GrowthStage.GROWING) {... */\n      tag_187\n      jumpi\n        /* \"contracts/LiskGarden.sol\":8582:8602  GrowthStage.BLOOMING */\n      0x03\n        /* \"contracts/LiskGarden.sol\":8571:8602  oldStage = GrowthStage.BLOOMING */\n      swap1\n      pop\n        /* \"contracts/LiskGarden.sol\":8636:8643  plantId */\n      dup4\n        /* \"contracts/LiskGarden.sol\":8622:8666  StageAdvanced(plantId, GrowthStage.BLOOMING) */\n      0x338b8976706f9da67298dddfa1ea4ff7d99cce68b9ca39c4f348994f8e2124a8\n        /* \"contracts/LiskGarden.sol\":8645:8665  GrowthStage.BLOOMING */\n      0x03\n        /* \"contracts/LiskGarden.sol\":8622:8666  StageAdvanced(plantId, GrowthStage.BLOOMING) */\n      mload(0x40)\n      tag_188\n      swap2\n      swap1\n      tag_174\n      jump\t// in\n    tag_188:\n      mload(0x40)\n      dup1\n      swap2\n      sub\n      swap1\n      log2\n        /* \"contracts/LiskGarden.sol\":8519:8678  if (oldStage == GrowthStage.GROWING) {... */\n    tag_187:\n        /* \"contracts/LiskGarden.sol\":8348:8678  if (oldStage == GrowthStage.SPROUT) {... */\n    tag_182:\n        /* \"contracts/LiskGarden.sol\":8181:8678  if (oldStage == GrowthStage.SEED) {... */\n    tag_175:\n        /* \"contracts/LiskGarden.sol\":7823:8697  {... */\n      pop\n      pop\n      pop\n        /* \"contracts/LiskGarden.sol\":7773:8697  function updatePlantStage(uint256 plantId) public {... */\n    tag_161:\n      pop\n      jump\t// out\n        /* \"contracts/LiskGarden.sol\":9048:9607  function harvestPlant(uint256 plantId) external {... */\n    tag_103:\n        /* \"contracts/LiskGarden.sol\":9135:9154  Plant storage plant */\n      0x00\n        /* \"contracts/LiskGarden.sol\":9157:9163  plants */\n      0x06\n        /* \"contracts/LiskGarden.sol\":9157:9172  plants[plantId] */\n      0x00\n        /* \"contracts/LiskGarden.sol\":9164:9171  plantId */\n      dup4\n        /* \"contracts/LiskGarden.sol\":9157:9172  plants[plantId] */\n      dup2\n      mstore\n      0x20\n      add\n      swap1\n      dup2\n      mstore\n      0x20\n      add\n      0x00\n      keccak256\n        /* \"contracts/LiskGarden.sol\":9135:9172  Plant storage plant = plants[plantId] */\n      swap1\n      pop\n        /* \"contracts/LiskGarden.sol\":9191:9196  plant */\n      dup1\n        /* \"contracts/LiskGarden.sol\":9191:9203  plant.exists */\n      0x05\n      add\n      0x00\n      swap1\n      sload\n      swap1\n      0x0100\n      exp\n      swap1\n      div\n      0xff\n      and\n        /* \"contracts/LiskGarden.sol\":9183:9228  require(plant.exists, \"Plant does not exist\") */\n      tag_190\n      jumpi\n      mload(0x40)\n      0x08c379a000000000000000000000000000000000000000000000000000000000\n      dup2\n      mstore\n      0x04\n      add\n      tag_191\n      swap1\n      tag_151\n      jump\t// in\n    tag_191:\n      mload(0x40)\n      dup1\n      swap2\n      sub\n      swap1\n      revert\n    tag_190:\n        /* \"contracts/LiskGarden.sol\":9261:9266  plant */\n      dup1\n        /* \"contracts/LiskGarden.sol\":9261:9272  plant.owner */\n      0x01\n      add\n      0x00\n      swap1\n      sload\n      swap1\n      0x0100\n      exp\n      swap1\n      div\n      0xffffffffffffffffffffffffffffffffffffffff\n      and\n        /* \"contracts/LiskGarden.sol\":9247:9272  msg.sender == plant.owner */\n      0xffffffffffffffffffffffffffffffffffffffff\n      and\n        /* \"contracts/LiskGarden.sol\":9247:9257  msg.sender */\n      caller\n        /* \"contracts/LiskGarden.sol\":9247:9272  msg.sender == plant.owner */\n      0xffffffffffffffffffffffffffffffffffffffff\n      and\n      eq\n        /* \"contracts/LiskGarden.sol\":9239:9303  require(msg.sender == plant.owner, \"Not the owner of the plant\") */\n      tag_192\n      jumpi\n      mload(0x40)\n      0x08c379a000000000000000000000000000000000000000000000000000000000\n      dup2\n      mstore\n      0x04\n      add\n      tag_193\n      swap1\n      tag_194\n      jump\t// in\n    tag_193:\n      mload(0x40)\n      dup1\n      swap2\n      sub\n      swap1\n      revert\n    tag_192:\n        /* \"contracts/LiskGarden.sol\":9323:9328  plant */\n      dup1\n        /* \"contracts/LiskGarden.sol\":9323:9335  plant.isDead */\n      0x05\n      add\n      0x01\n      swap1\n      sload\n      swap1\n      0x0100\n      exp\n      swap1\n      div\n      0xff\n      and\n        /* \"contracts/LiskGarden.sol\":9322:9335  !plant.isDead */\n      iszero\n        /* \"contracts/LiskGarden.sol\":9314:9353  require(!plant.isDead, \"Plant is dead\") */\n      tag_195\n      jumpi\n      mload(0x40)\n      0x08c379a000000000000000000000000000000000000000000000000000000000\n      dup2\n      mstore\n      0x04\n      add\n      tag_196\n      swap1\n      tag_197\n      jump\t// in\n    tag_196:\n      mload(0x40)\n      dup1\n      swap2\n      sub\n      swap1\n      revert\n    tag_195:\n        /* \"contracts/LiskGarden.sol\":9364:9389  updatePlantStage(plantId) */\n      tag_198\n        /* \"contracts/LiskGarden.sol\":9381:9388  plantId */\n      dup3\n        /* \"contracts/LiskGarden.sol\":9364:9380  updatePlantStage */\n      tag_99\n        /* \"contracts/LiskGarden.sol\":9364:9389  updatePlantStage(plantId) */\n      jump\t// in\n    tag_198:\n        /* \"contracts/LiskGarden.sol\":9423:9443  GrowthStage.BLOOMING */\n      0x03\n        /* \"contracts/LiskGarden.sol\":9408:9443  plant.stage == GrowthStage.BLOOMING */\n      dup1\n      dup2\n      gt\n      iszero\n      tag_199\n      jumpi\n      tag_200\n      tag_131\n      jump\t// in\n    tag_200:\n    tag_199:\n        /* \"contracts/LiskGarden.sol\":9408:9413  plant */\n      dup2\n        /* \"contracts/LiskGarden.sol\":9408:9419  plant.stage */\n      0x01\n      add\n      0x14\n      swap1\n      sload\n      swap1\n      0x0100\n      exp\n      swap1\n      div\n      0xff\n      and\n        /* \"contracts/LiskGarden.sol\":9408:9443  plant.stage == GrowthStage.BLOOMING */\n      0x03\n      dup2\n      gt\n      iszero\n      tag_201\n      jumpi\n      tag_202\n      tag_131\n      jump\t// in\n    tag_202:\n    tag_201:\n      eq\n        /* \"contracts/LiskGarden.sol\":9400:9478  require(plant.stage == GrowthStage.BLOOMING, \"Plant is not in blooming stage\") */\n      tag_203\n      jumpi\n      mload(0x40)\n      0x08c379a000000000000000000000000000000000000000000000000000000000\n      dup2\n      mstore\n      0x04\n      add\n      tag_204\n      swap1\n      tag_205\n      jump\t// in\n    tag_204:\n      mload(0x40)\n      dup1\n      swap2\n      sub\n      swap1\n      revert\n    tag_203:\n        /* \"contracts/LiskGarden.sol\":9504:9509  false */\n      0x00\n        /* \"contracts/LiskGarden.sol\":9489:9494  plant */\n      dup2\n        /* \"contracts/LiskGarden.sol\":9489:9501  plant.exists */\n      0x05\n      add\n      0x00\n        /* \"contracts/LiskGarden.sol\":9489:9509  plant.exists = false */\n      0x0100\n      exp\n      dup2\n      sload\n      dup2\n      0xff\n      mul\n      not\n      and\n      swap1\n      dup4\n      iszero\n      iszero\n      mul\n      or\n      swap1\n      sstore\n      pop\n        /* \"contracts/LiskGarden.sol\":9549:9559  msg.sender */\n      caller\n        /* \"contracts/LiskGarden.sol\":9525:9576  PlantHarvested(plantId, msg.sender, HARVEST_REWARD) */\n      0xffffffffffffffffffffffffffffffffffffffff\n      and\n        /* \"contracts/LiskGarden.sol\":9540:9547  plantId */\n      dup3\n        /* \"contracts/LiskGarden.sol\":9525:9576  PlantHarvested(plantId, msg.sender, HARVEST_REWARD) */\n      0x79f2138ea100070ff95b59c265da7aa3c7a0f61595fe1bb2f5fda2762f398847\n        /* \"contracts/LiskGarden.sol\":1848:1859  0.003 ether */\n      0x0aa87bee538000\n        /* \"contracts/LiskGarden.sol\":9525:9576  PlantHarvested(plantId, msg.sender, HARVEST_REWARD) */\n      mload(0x40)\n      tag_206\n      swap2\n      swap1\n      tag_45\n      jump\t// in\n    tag_206:\n      mload(0x40)\n      dup1\n      swap2\n      sub\n      swap1\n      log3\n        /* \"contracts/LiskGarden.sol\":9096:9607  {... */\n      pop\n        /* \"contracts/LiskGarden.sol\":9048:9607  function harvestPlant(uint256 plantId) external {... */\n      pop\n      jump\t// out\n        /* \"contracts/LiskGarden.sol\":9764:9972  function getPlant(uint256 plantId) external view returns (Plant memory) {... */\n    tag_107:\n        /* \"contracts/LiskGarden.sol\":9822:9834  Plant memory */\n      tag_207\n      tag_208\n      jump\t// in\n    tag_207:\n        /* \"contracts/LiskGarden.sol\":9847:9865  Plant memory plant */\n      0x00\n        /* \"contracts/LiskGarden.sol\":9868:9874  plants */\n      0x06\n        /* \"contracts/LiskGarden.sol\":9868:9883  plants[plantId] */\n      0x00\n        /* \"contracts/LiskGarden.sol\":9875:9882  plantId */\n      dup5\n        /* \"contracts/LiskGarden.sol\":9868:9883  plants[plantId] */\n      dup2\n      mstore\n      0x20\n      add\n      swap1\n      dup2\n      mstore\n      0x20\n      add\n      0x00\n      keccak256\n        /* \"contracts/LiskGarden.sol\":9847:9883  Plant memory plant = plants[plantId] */\n      mload(0x40)\n      dup1\n      0x0100\n      add\n      0x40\n      mstore\n      swap1\n      dup2\n      0x00\n      dup3\n      add\n      sload\n      dup2\n      mstore\n      0x20\n      add\n      0x01\n      dup3\n      add\n      0x00\n      swap1\n      sload\n      swap1\n      0x0100\n      exp\n      swap1\n      div\n      0xffffffffffffffffffffffffffffffffffffffff\n      and\n      0xffffffffffffffffffffffffffffffffffffffff\n      and\n      0xffffffffffffffffffffffffffffffffffffffff\n      and\n      dup2\n      mstore\n      0x20\n      add\n      0x01\n      dup3\n      add\n      0x14\n      swap1\n      sload\n      swap1\n      0x0100\n      exp\n      swap1\n      div\n      0xff\n      and\n      0x03\n      dup2\n      gt\n      iszero\n      tag_210\n      jumpi\n      tag_211\n      tag_131\n      jump\t// in\n    tag_211:\n    tag_210:\n      0x03\n      dup2\n      gt\n      iszero\n      tag_212\n      jumpi\n      tag_213\n      tag_131\n      jump\t// in\n    tag_213:\n    tag_212:\n      dup2\n      mstore\n      0x20\n      add\n      0x02\n      dup3\n      add\n      sload\n      dup2\n      mstore\n      0x20\n      add\n      0x03\n      dup3\n      add\n      sload\n      dup2\n      mstore\n      0x20\n      add\n      0x04\n      dup3\n      add\n      sload\n      dup2\n      mstore\n      0x20\n      add\n      0x05\n      dup3\n      add\n      0x00\n      swap1\n      sload\n      swap1\n      0x0100\n      exp\n      swap1\n      div\n      0xff\n      and\n      iszero\n      iszero\n      iszero\n      iszero\n      dup2\n      mstore\n      0x20\n      add\n      0x05\n      dup3\n      add\n      0x01\n      swap1\n      sload\n      swap1\n      0x0100\n      exp\n      swap1\n      div\n      0xff\n      and\n      iszero\n      iszero\n      iszero\n      iszero\n      dup2\n      mstore\n      pop\n      pop\n      swap1\n      pop\n        /* \"contracts/LiskGarden.sol\":9913:9941  calculateWaterLevel(plantId) */\n      tag_214\n        /* \"contracts/LiskGarden.sol\":9933:9940  plantId */\n      dup4\n        /* \"contracts/LiskGarden.sol\":9913:9932  calculateWaterLevel */\n      tag_53\n        /* \"contracts/LiskGarden.sol\":9913:9941  calculateWaterLevel(plantId) */\n      jump\t// in\n    tag_214:\n        /* \"contracts/LiskGarden.sol\":9894:9899  plant */\n      dup2\n        /* \"contracts/LiskGarden.sol\":9894:9910  plant.waterLevel */\n      0xa0\n      add\n        /* \"contracts/LiskGarden.sol\":9894:9941  plant.waterLevel = calculateWaterLevel(plantId) */\n      dup2\n      dup2\n      mstore\n      pop\n      pop\n        /* \"contracts/LiskGarden.sol\":9959:9964  plant */\n      dup1\n        /* \"contracts/LiskGarden.sol\":9952:9964  return plant */\n      swap2\n      pop\n      pop\n        /* \"contracts/LiskGarden.sol\":9764:9972  function getPlant(uint256 plantId) external view returns (Plant memory) {... */\n      swap2\n      swap1\n      pop\n      jump\t// out\n        /* \"contracts/LiskGarden.sol\":6121:6497  function updateWaterLevel(uint256 plantId) internal {... */\n    tag_165:\n        /* \"contracts/LiskGarden.sol\":6212:6231  Plant storage plant */\n      0x00\n        /* \"contracts/LiskGarden.sol\":6234:6240  plants */\n      0x06\n        /* \"contracts/LiskGarden.sol\":6234:6249  plants[plantId] */\n      0x00\n        /* \"contracts/LiskGarden.sol\":6241:6248  plantId */\n      dup4\n        /* \"contracts/LiskGarden.sol\":6234:6249  plants[plantId] */\n      dup2\n      mstore\n      0x20\n      add\n      swap1\n      dup2\n      mstore\n      0x20\n      add\n      0x00\n      keccak256\n        /* \"contracts/LiskGarden.sol\":6212:6249  Plant storage plant = plants[plantId] */\n      swap1\n      pop\n        /* \"contracts/LiskGarden.sol\":6260:6280  uint256 currentWater */\n      0x00\n        /* \"contracts/LiskGarden.sol\":6283:6311  calculateWaterLevel(plantId) */\n      tag_216\n        /* \"contracts/LiskGarden.sol\":6303:6310  plantId */\n      dup4\n        /* \"contracts/LiskGarden.sol\":6283:6302  calculateWaterLevel */\n      tag_53\n        /* \"contracts/LiskGarden.sol\":6283:6311  calculateWaterLevel(plantId) */\n      jump\t// in\n    tag_216:\n        /* \"contracts/LiskGarden.sol\":6260:6311  uint256 currentWater = calculateWaterLevel(plantId) */\n      swap1\n      pop\n        /* \"contracts/LiskGarden.sol\":6341:6353  currentWater */\n      dup1\n        /* \"contracts/LiskGarden.sol\":6322:6327  plant */\n      dup3\n        /* \"contracts/LiskGarden.sol\":6322:6338  plant.waterLevel */\n      0x04\n      add\n        /* \"contracts/LiskGarden.sol\":6322:6353  plant.waterLevel = currentWater */\n      dup2\n      swap1\n      sstore\n      pop\n        /* \"contracts/LiskGarden.sol\":6384:6385  0 */\n      0x00\n        /* \"contracts/LiskGarden.sol\":6368:6380  currentWater */\n      dup2\n        /* \"contracts/LiskGarden.sol\":6368:6385  currentWater == 0 */\n      eq\n        /* \"contracts/LiskGarden.sol\":6368:6402  currentWater == 0 && !plant.isDead */\n      dup1\n      iszero\n      tag_217\n      jumpi\n      pop\n        /* \"contracts/LiskGarden.sol\":6390:6395  plant */\n      dup2\n        /* \"contracts/LiskGarden.sol\":6390:6402  plant.isDead */\n      0x05\n      add\n      0x01\n      swap1\n      sload\n      swap1\n      0x0100\n      exp\n      swap1\n      div\n      0xff\n      and\n        /* \"contracts/LiskGarden.sol\":6389:6402  !plant.isDead */\n      iszero\n        /* \"contracts/LiskGarden.sol\":6368:6402  currentWater == 0 && !plant.isDead */\n    tag_217:\n        /* \"contracts/LiskGarden.sol\":6364:6488  if (currentWater == 0 && !plant.isDead) {... */\n      iszero\n      tag_218\n      jumpi\n        /* \"contracts/LiskGarden.sol\":6434:6438  true */\n      0x01\n        /* \"contracts/LiskGarden.sol\":6419:6424  plant */\n      dup3\n        /* \"contracts/LiskGarden.sol\":6419:6431  plant.isDead */\n      0x05\n      add\n      0x01\n        /* \"contracts/LiskGarden.sol\":6419:6438  plant.isDead = true */\n      0x0100\n      exp\n      dup2\n      sload\n      dup2\n      0xff\n      mul\n      not\n      and\n      swap1\n      dup4\n      iszero\n      iszero\n      mul\n      or\n      swap1\n      sstore\n      pop\n        /* \"contracts/LiskGarden.sol\":6468:6475  plantId */\n      dup3\n        /* \"contracts/LiskGarden.sol\":6458:6476  PlantDied(plantId) */\n      0xcc296a21951f3e57f21afb08547d835a0a9f0f06cc2867009cbe0cae44d36be9\n      mload(0x40)\n      mload(0x40)\n      dup1\n      swap2\n      sub\n      swap1\n      log2\n        /* \"contracts/LiskGarden.sol\":6364:6488  if (currentWater == 0 && !plant.isDead) {... */\n    tag_218:\n        /* \"contracts/LiskGarden.sol\":6173:6497  {... */\n      pop\n      pop\n        /* \"contracts/LiskGarden.sol\":6121:6497  function updateWaterLevel(uint256 plantId) internal {... */\n      pop\n      jump\t// out\n    tag_208:\n      mload(0x40)\n      dup1\n      0x0100\n      add\n      0x40\n      mstore\n      dup1\n      0x00\n      dup2\n      mstore\n      0x20\n      add\n      and(0xffffffffffffffffffffffffffffffffffffffff, 0x00)\n      dup2\n      mstore\n      0x20\n      add\n      0x00\n      0x03\n      dup2\n      gt\n      iszero\n      tag_219\n      jumpi\n      tag_220\n      tag_131\n      jump\t// in\n    tag_220:\n    tag_219:\n      dup2\n      mstore\n      0x20\n      add\n      0x00\n      dup2\n      mstore\n      0x20\n      add\n      0x00\n      dup2\n      mstore\n      0x20\n      add\n      0x00\n      dup2\n      mstore\n      0x20\n      add\n      iszero(iszero(0x00))\n      dup2\n      mstore\n      0x20\n      add\n      iszero(iszero(0x00))\n      dup2\n      mstore\n      pop\n      swap1\n      jump\t// out\n        /* \"#utility.yul\":88:205   */\n    tag_222:\n        /* \"#utility.yul\":197:198   */\n      0x00\n        /* \"#utility.yul\":194:195   */\n      0x00\n        /* \"#utility.yul\":187:199   */\n      revert\n        /* \"#utility.yul\":334:460   */\n    tag_224:\n        /* \"#utility.yul\":371:378   */\n      0x00\n        /* \"#utility.yul\":411:453   */\n      0xffffffffffffffffffffffffffffffffffffffff\n        /* \"#utility.yul\":404:409   */\n      dup3\n        /* \"#utility.yul\":400:454   */\n      and\n        /* \"#utility.yul\":389:454   */\n      swap1\n      pop\n        /* \"#utility.yul\":334:460   */\n      swap2\n      swap1\n      pop\n      jump\t// out\n        /* \"#utility.yul\":466:562   */\n    tag_225:\n        /* \"#utility.yul\":503:510   */\n      0x00\n        /* \"#utility.yul\":532:556   */\n      tag_284\n        /* \"#utility.yul\":550:555   */\n      dup3\n        /* \"#utility.yul\":532:556   */\n      tag_224\n      jump\t// in\n    tag_284:\n        /* \"#utility.yul\":521:556   */\n      swap1\n      pop\n        /* \"#utility.yul\":466:562   */\n      swap2\n      swap1\n      pop\n      jump\t// out\n        /* \"#utility.yul\":568:690   */\n    tag_226:\n        /* \"#utility.yul\":641:665   */\n      tag_286\n        /* \"#utility.yul\":659:664   */\n      dup2\n        /* \"#utility.yul\":641:665   */\n      tag_225\n      jump\t// in\n    tag_286:\n        /* \"#utility.yul\":634:639   */\n      dup2\n        /* \"#utility.yul\":631:666   */\n      eq\n        /* \"#utility.yul\":621:684   */\n      tag_287\n      jumpi\n        /* \"#utility.yul\":680:681   */\n      0x00\n        /* \"#utility.yul\":677:678   */\n      0x00\n        /* \"#utility.yul\":670:682   */\n      revert\n        /* \"#utility.yul\":621:684   */\n    tag_287:\n        /* \"#utility.yul\":568:690   */\n      pop\n      jump\t// out\n        /* \"#utility.yul\":696:835   */\n    tag_227:\n        /* \"#utility.yul\":742:747   */\n      0x00\n        /* \"#utility.yul\":780:786   */\n      dup2\n        /* \"#utility.yul\":767:787   */\n      calldataload\n        /* \"#utility.yul\":758:787   */\n      swap1\n      pop\n        /* \"#utility.yul\":796:829   */\n      tag_289\n        /* \"#utility.yul\":823:828   */\n      dup2\n        /* \"#utility.yul\":796:829   */\n      tag_226\n      jump\t// in\n    tag_289:\n        /* \"#utility.yul\":696:835   */\n      swap3\n      swap2\n      pop\n      pop\n      jump\t// out\n        /* \"#utility.yul\":841:1170   */\n    tag_29:\n        /* \"#utility.yul\":900:906   */\n      0x00\n        /* \"#utility.yul\":949:951   */\n      0x20\n        /* \"#utility.yul\":937:946   */\n      dup3\n        /* \"#utility.yul\":928:935   */\n      dup5\n        /* \"#utility.yul\":924:947   */\n      sub\n        /* \"#utility.yul\":920:952   */\n      slt\n        /* \"#utility.yul\":917:1036   */\n      iszero\n      tag_291\n      jumpi\n        /* \"#utility.yul\":955:1034   */\n      tag_292\n      tag_222\n      jump\t// in\n    tag_292:\n        /* \"#utility.yul\":917:1036   */\n    tag_291:\n        /* \"#utility.yul\":1075:1076   */\n      0x00\n        /* \"#utility.yul\":1100:1153   */\n      tag_293\n        /* \"#utility.yul\":1145:1152   */\n      dup5\n        /* \"#utility.yul\":1136:1142   */\n      dup3\n        /* \"#utility.yul\":1125:1134   */\n      dup6\n        /* \"#utility.yul\":1121:1143   */\n      add\n        /* \"#utility.yul\":1100:1153   */\n      tag_227\n      jump\t// in\n    tag_293:\n        /* \"#utility.yul\":1090:1153   */\n      swap2\n      pop\n        /* \"#utility.yul\":1046:1163   */\n      pop\n        /* \"#utility.yul\":841:1170   */\n      swap3\n      swap2\n      pop\n      pop\n      jump\t// out\n        /* \"#utility.yul\":1176:1290   */\n    tag_228:\n        /* \"#utility.yul\":1243:1249   */\n      0x00\n        /* \"#utility.yul\":1277:1282   */\n      dup2\n        /* \"#utility.yul\":1271:1283   */\n      mload\n        /* \"#utility.yul\":1261:1283   */\n      swap1\n      pop\n        /* \"#utility.yul\":1176:1290   */\n      swap2\n      swap1\n      pop\n      jump\t// out\n        /* \"#utility.yul\":1296:1480   */\n    tag_229:\n        /* \"#utility.yul\":1395:1406   */\n      0x00\n        /* \"#utility.yul\":1429:1435   */\n      dup3\n        /* \"#utility.yul\":1424:1427   */\n      dup3\n        /* \"#utility.yul\":1417:1436   */\n      mstore\n        /* \"#utility.yul\":1469:1473   */\n      0x20\n        /* \"#utility.yul\":1464:1467   */\n      dup3\n        /* \"#utility.yul\":1460:1474   */\n      add\n        /* \"#utility.yul\":1445:1474   */\n      swap1\n      pop\n        /* \"#utility.yul\":1296:1480   */\n      swap3\n      swap2\n      pop\n      pop\n      jump\t// out\n        /* \"#utility.yul\":1486:1618   */\n    tag_230:\n        /* \"#utility.yul\":1553:1557   */\n      0x00\n        /* \"#utility.yul\":1576:1579   */\n      dup2\n        /* \"#utility.yul\":1568:1579   */\n      swap1\n      pop\n        /* \"#utility.yul\":1606:1610   */\n      0x20\n        /* \"#utility.yul\":1601:1604   */\n      dup3\n        /* \"#utility.yul\":1597:1611   */\n      add\n        /* \"#utility.yul\":1589:1611   */\n      swap1\n      pop\n        /* \"#utility.yul\":1486:1618   */\n      swap2\n      swap1\n      pop\n      jump\t// out\n        /* \"#utility.yul\":1624:1701   */\n    tag_231:\n        /* \"#utility.yul\":1661:1668   */\n      0x00\n        /* \"#utility.yul\":1690:1695   */\n      dup2\n        /* \"#utility.yul\":1679:1695   */\n      swap1\n      pop\n        /* \"#utility.yul\":1624:1701   */\n      swap2\n      swap1\n      pop\n      jump\t// out\n        /* \"#utility.yul\":1707:1815   */\n    tag_232:\n        /* \"#utility.yul\":1784:1808   */\n      tag_299\n        /* \"#utility.yul\":1802:1807   */\n      dup2\n        /* \"#utility.yul\":1784:1808   */\n      tag_231\n      jump\t// in\n    tag_299:\n        /* \"#utility.yul\":1779:1782   */\n      dup3\n        /* \"#utility.yul\":1772:1809   */\n      mstore\n        /* \"#utility.yul\":1707:1815   */\n      pop\n      pop\n      jump\t// out\n        /* \"#utility.yul\":1821:2000   */\n    tag_233:\n        /* \"#utility.yul\":1890:1900   */\n      0x00\n        /* \"#utility.yul\":1911:1957   */\n      tag_301\n        /* \"#utility.yul\":1953:1956   */\n      dup4\n        /* \"#utility.yul\":1945:1951   */\n      dup4\n        /* \"#utility.yul\":1911:1957   */\n      tag_232\n      jump\t// in\n    tag_301:\n        /* \"#utility.yul\":1989:1993   */\n      0x20\n        /* \"#utility.yul\":1984:1987   */\n      dup4\n        /* \"#utility.yul\":1980:1994   */\n      add\n        /* \"#utility.yul\":1966:1994   */\n      swap1\n      pop\n        /* \"#utility.yul\":1821:2000   */\n      swap3\n      swap2\n      pop\n      pop\n      jump\t// out\n        /* \"#utility.yul\":2006:2119   */\n    tag_234:\n        /* \"#utility.yul\":2076:2080   */\n      0x00\n        /* \"#utility.yul\":2108:2112   */\n      0x20\n        /* \"#utility.yul\":2103:2106   */\n      dup3\n        /* \"#utility.yul\":2099:2113   */\n      add\n        /* \"#utility.yul\":2091:2113   */\n      swap1\n      pop\n        /* \"#utility.yul\":2006:2119   */\n      swap2\n      swap1\n      pop\n      jump\t// out\n        /* \"#utility.yul\":2155:2887   */\n    tag_235:\n        /* \"#utility.yul\":2274:2277   */\n      0x00\n        /* \"#utility.yul\":2303:2357   */\n      tag_304\n        /* \"#utility.yul\":2351:2356   */\n      dup3\n        /* \"#utility.yul\":2303:2357   */\n      tag_228\n      jump\t// in\n    tag_304:\n        /* \"#utility.yul\":2373:2459   */\n      tag_305\n        /* \"#utility.yul\":2452:2458   */\n      dup2\n        /* \"#utility.yul\":2447:2450   */\n      dup6\n        /* \"#utility.yul\":2373:2459   */\n      tag_229\n      jump\t// in\n    tag_305:\n        /* \"#utility.yul\":2366:2459   */\n      swap4\n      pop\n        /* \"#utility.yul\":2483:2539   */\n      tag_306\n        /* \"#utility.yul\":2533:2538   */\n      dup4\n        /* \"#utility.yul\":2483:2539   */\n      tag_230\n      jump\t// in\n    tag_306:\n        /* \"#utility.yul\":2562:2569   */\n      dup1\n        /* \"#utility.yul\":2593:2594   */\n      0x00\n        /* \"#utility.yul\":2578:2862   */\n    tag_307:\n        /* \"#utility.yul\":2603:2609   */\n      dup4\n        /* \"#utility.yul\":2600:2601   */\n      dup2\n        /* \"#utility.yul\":2597:2610   */\n      lt\n        /* \"#utility.yul\":2578:2862   */\n      iszero\n      tag_309\n      jumpi\n        /* \"#utility.yul\":2679:2685   */\n      dup2\n        /* \"#utility.yul\":2673:2686   */\n      mload\n        /* \"#utility.yul\":2706:2769   */\n      tag_310\n        /* \"#utility.yul\":2765:2768   */\n      dup9\n        /* \"#utility.yul\":2750:2763   */\n      dup3\n        /* \"#utility.yul\":2706:2769   */\n      tag_233\n      jump\t// in\n    tag_310:\n        /* \"#utility.yul\":2699:2769   */\n      swap8\n      pop\n        /* \"#utility.yul\":2792:2852   */\n      tag_311\n        /* \"#utility.yul\":2845:2851   */\n      dup4\n        /* \"#utility.yul\":2792:2852   */\n      tag_234\n      jump\t// in\n    tag_311:\n        /* \"#utility.yul\":2782:2852   */\n      swap3\n      pop\n        /* \"#utility.yul\":2638:2862   */\n      pop\n        /* \"#utility.yul\":2625:2626   */\n      0x01\n        /* \"#utility.yul\":2622:2623   */\n      dup2\n        /* \"#utility.yul\":2618:2627   */\n      add\n        /* \"#utility.yul\":2613:2627   */\n      swap1\n      pop\n        /* \"#utility.yul\":2578:2862   */\n      jump(tag_307)\n    tag_309:\n        /* \"#utility.yul\":2582:2596   */\n      pop\n        /* \"#utility.yul\":2878:2881   */\n      dup6\n        /* \"#utility.yul\":2871:2881   */\n      swap4\n      pop\n        /* \"#utility.yul\":2279:2887   */\n      pop\n      pop\n      pop\n        /* \"#utility.yul\":2155:2887   */\n      swap3\n      swap2\n      pop\n      pop\n      jump\t// out\n        /* \"#utility.yul\":2893:3266   */\n    tag_32:\n        /* \"#utility.yul\":3036:3040   */\n      0x00\n        /* \"#utility.yul\":3074:3076   */\n      0x20\n        /* \"#utility.yul\":3063:3072   */\n      dup3\n        /* \"#utility.yul\":3059:3077   */\n      add\n        /* \"#utility.yul\":3051:3077   */\n      swap1\n      pop\n        /* \"#utility.yul\":3123:3132   */\n      dup2\n        /* \"#utility.yul\":3117:3121   */\n      dup2\n        /* \"#utility.yul\":3113:3133   */\n      sub\n        /* \"#utility.yul\":3109:3110   */\n      0x00\n        /* \"#utility.yul\":3098:3107   */\n      dup4\n        /* \"#utility.yul\":3094:3111   */\n      add\n        /* \"#utility.yul\":3087:3134   */\n      mstore\n        /* \"#utility.yul\":3151:3259   */\n      tag_313\n        /* \"#utility.yul\":3254:3258   */\n      dup2\n        /* \"#utility.yul\":3245:3251   */\n      dup5\n        /* \"#utility.yul\":3151:3259   */\n      tag_235\n      jump\t// in\n    tag_313:\n        /* \"#utility.yul\":3143:3259   */\n      swap1\n      pop\n        /* \"#utility.yul\":2893:3266   */\n      swap3\n      swap2\n      pop\n      pop\n      jump\t// out\n        /* \"#utility.yul\":3272:3390   */\n    tag_236:\n        /* \"#utility.yul\":3359:3383   */\n      tag_315\n        /* \"#utility.yul\":3377:3382   */\n      dup2\n        /* \"#utility.yul\":3359:3383   */\n      tag_231\n      jump\t// in\n    tag_315:\n        /* \"#utility.yul\":3354:3357   */\n      dup3\n        /* \"#utility.yul\":3347:3384   */\n      mstore\n        /* \"#utility.yul\":3272:3390   */\n      pop\n      pop\n      jump\t// out\n        /* \"#utility.yul\":3396:3514   */\n    tag_237:\n        /* \"#utility.yul\":3483:3507   */\n      tag_317\n        /* \"#utility.yul\":3501:3506   */\n      dup2\n        /* \"#utility.yul\":3483:3507   */\n      tag_225\n      jump\t// in\n    tag_317:\n        /* \"#utility.yul\":3478:3481   */\n      dup3\n        /* \"#utility.yul\":3471:3508   */\n      mstore\n        /* \"#utility.yul\":3396:3514   */\n      pop\n      pop\n      jump\t// out\n        /* \"#utility.yul\":3520:3700   */\n    tag_131:\n        /* \"#utility.yul\":3568:3645   */\n      0x4e487b7100000000000000000000000000000000000000000000000000000000\n        /* \"#utility.yul\":3565:3566   */\n      0x00\n        /* \"#utility.yul\":3558:3646   */\n      mstore\n        /* \"#utility.yul\":3665:3669   */\n      0x21\n        /* \"#utility.yul\":3662:3663   */\n      0x04\n        /* \"#utility.yul\":3655:3670   */\n      mstore\n        /* \"#utility.yul\":3689:3693   */\n      0x24\n        /* \"#utility.yul\":3686:3687   */\n      0x00\n        /* \"#utility.yul\":3679:3694   */\n      revert\n        /* \"#utility.yul\":3706:3824   */\n    tag_238:\n        /* \"#utility.yul\":3792:3793   */\n      0x04\n        /* \"#utility.yul\":3785:3790   */\n      dup2\n        /* \"#utility.yul\":3782:3794   */\n      lt\n        /* \"#utility.yul\":3772:3818   */\n      tag_320\n      jumpi\n        /* \"#utility.yul\":3798:3816   */\n      tag_321\n      tag_131\n      jump\t// in\n    tag_321:\n        /* \"#utility.yul\":3772:3818   */\n    tag_320:\n        /* \"#utility.yul\":3706:3824   */\n      pop\n      jump\t// out\n        /* \"#utility.yul\":3830:3967   */\n    tag_239:\n        /* \"#utility.yul\":3880:3887   */\n      0x00\n        /* \"#utility.yul\":3909:3914   */\n      dup2\n        /* \"#utility.yul\":3898:3914   */\n      swap1\n      pop\n        /* \"#utility.yul\":3915:3961   */\n      tag_323\n        /* \"#utility.yul\":3955:3960   */\n      dup3\n        /* \"#utility.yul\":3915:3961   */\n      tag_238\n      jump\t// in\n    tag_323:\n        /* \"#utility.yul\":3830:3967   */\n      swap2\n      swap1\n      pop\n      jump\t// out\n        /* \"#utility.yul\":3973:4110   */\n    tag_240:\n        /* \"#utility.yul\":4034:4043   */\n      0x00\n        /* \"#utility.yul\":4067:4104   */\n      tag_325\n        /* \"#utility.yul\":4098:4103   */\n      dup3\n        /* \"#utility.yul\":4067:4104   */\n      tag_239\n      jump\t// in\n    tag_325:\n        /* \"#utility.yul\":4054:4104   */\n      swap1\n      pop\n        /* \"#utility.yul\":3973:4110   */\n      swap2\n      swap1\n      pop\n      jump\t// out\n        /* \"#utility.yul\":4116:4269   */\n    tag_241:\n        /* \"#utility.yul\":4214:4262   */\n      tag_327\n        /* \"#utility.yul\":4256:4261   */\n      dup2\n        /* \"#utility.yul\":4214:4262   */\n      tag_240\n      jump\t// in\n    tag_327:\n        /* \"#utility.yul\":4209:4212   */\n      dup3\n        /* \"#utility.yul\":4202:4263   */\n      mstore\n        /* \"#utility.yul\":4116:4269   */\n      pop\n      pop\n      jump\t// out\n        /* \"#utility.yul\":4275:4365   */\n    tag_242:\n        /* \"#utility.yul\":4309:4316   */\n      0x00\n        /* \"#utility.yul\":4352:4357   */\n      dup2\n        /* \"#utility.yul\":4345:4358   */\n      iszero\n        /* \"#utility.yul\":4338:4359   */\n      iszero\n        /* \"#utility.yul\":4327:4359   */\n      swap1\n      pop\n        /* \"#utility.yul\":4275:4365   */\n      swap2\n      swap1\n      pop\n      jump\t// out\n        /* \"#utility.yul\":4371:4480   */\n    tag_243:\n        /* \"#utility.yul\":4452:4473   */\n      tag_330\n        /* \"#utility.yul\":4467:4472   */\n      dup2\n        /* \"#utility.yul\":4452:4473   */\n      tag_242\n      jump\t// in\n    tag_330:\n        /* \"#utility.yul\":4447:4450   */\n      dup3\n        /* \"#utility.yul\":4440:4474   */\n      mstore\n        /* \"#utility.yul\":4371:4480   */\n      pop\n      pop\n      jump\t// out\n        /* \"#utility.yul\":4486:5481   */\n    tag_37:\n        /* \"#utility.yul\":4774:4778   */\n      0x00\n        /* \"#utility.yul\":4812:4815   */\n      0x0100\n        /* \"#utility.yul\":4801:4810   */\n      dup3\n        /* \"#utility.yul\":4797:4816   */\n      add\n        /* \"#utility.yul\":4789:4816   */\n      swap1\n      pop\n        /* \"#utility.yul\":4826:4897   */\n      tag_332\n        /* \"#utility.yul\":4894:4895   */\n      0x00\n        /* \"#utility.yul\":4883:4892   */\n      dup4\n        /* \"#utility.yul\":4879:4896   */\n      add\n        /* \"#utility.yul\":4870:4876   */\n      dup12\n        /* \"#utility.yul\":4826:4897   */\n      tag_236\n      jump\t// in\n    tag_332:\n        /* \"#utility.yul\":4907:4979   */\n      tag_333\n        /* \"#utility.yul\":4975:4977   */\n      0x20\n        /* \"#utility.yul\":4964:4973   */\n      dup4\n        /* \"#utility.yul\":4960:4978   */\n      add\n        /* \"#utility.yul\":4951:4957   */\n      dup11\n        /* \"#utility.yul\":4907:4979   */\n      tag_237\n      jump\t// in\n    tag_333:\n        /* \"#utility.yul\":4989:5072   */\n      tag_334\n        /* \"#utility.yul\":5068:5070   */\n      0x40\n        /* \"#utility.yul\":5057:5066   */\n      dup4\n        /* \"#utility.yul\":5053:5071   */\n      add\n        /* \"#utility.yul\":5044:5050   */\n      dup10\n        /* \"#utility.yul\":4989:5072   */\n      tag_241\n      jump\t// in\n    tag_334:\n        /* \"#utility.yul\":5082:5154   */\n      tag_335\n        /* \"#utility.yul\":5150:5152   */\n      0x60\n        /* \"#utility.yul\":5139:5148   */\n      dup4\n        /* \"#utility.yul\":5135:5153   */\n      add\n        /* \"#utility.yul\":5126:5132   */\n      dup9\n        /* \"#utility.yul\":5082:5154   */\n      tag_236\n      jump\t// in\n    tag_335:\n        /* \"#utility.yul\":5164:5237   */\n      tag_336\n        /* \"#utility.yul\":5232:5235   */\n      0x80\n        /* \"#utility.yul\":5221:5230   */\n      dup4\n        /* \"#utility.yul\":5217:5236   */\n      add\n        /* \"#utility.yul\":5208:5214   */\n      dup8\n        /* \"#utility.yul\":5164:5237   */\n      tag_236\n      jump\t// in\n    tag_336:\n        /* \"#utility.yul\":5247:5320   */\n      tag_337\n        /* \"#utility.yul\":5315:5318   */\n      0xa0\n        /* \"#utility.yul\":5304:5313   */\n      dup4\n        /* \"#utility.yul\":5300:5319   */\n      add\n        /* \"#utility.yul\":5291:5297   */\n      dup7\n        /* \"#utility.yul\":5247:5320   */\n      tag_236\n      jump\t// in\n    tag_337:\n        /* \"#utility.yul\":5330:5397   */\n      tag_338\n        /* \"#utility.yul\":5392:5395   */\n      0xc0\n        /* \"#utility.yul\":5381:5390   */\n      dup4\n        /* \"#utility.yul\":5377:5396   */\n      add\n        /* \"#utility.yul\":5368:5374   */\n      dup6\n        /* \"#utility.yul\":5330:5397   */\n      tag_243\n      jump\t// in\n    tag_338:\n        /* \"#utility.yul\":5407:5474   */\n      tag_339\n        /* \"#utility.yul\":5469:5472   */\n      0xe0\n        /* \"#utility.yul\":5458:5467   */\n      dup4\n        /* \"#utility.yul\":5454:5473   */\n      add\n        /* \"#utility.yul\":5445:5451   */\n      dup5\n        /* \"#utility.yul\":5407:5474   */\n      tag_243\n      jump\t// in\n    tag_339:\n        /* \"#utility.yul\":4486:5481   */\n      swap10\n      swap9\n      pop\n      pop\n      pop\n      pop\n      pop\n      pop\n      pop\n      pop\n      pop\n      jump\t// out\n        /* \"#utility.yul\":5487:5709   */\n    tag_45:\n        /* \"#utility.yul\":5580:5584   */\n      0x00\n        /* \"#utility.yul\":5618:5620   */\n      0x20\n        /* \"#utility.yul\":5607:5616   */\n      dup3\n        /* \"#utility.yul\":5603:5621   */\n      add\n        /* \"#utility.yul\":5595:5621   */\n      swap1\n      pop\n        /* \"#utility.yul\":5631:5702   */\n      tag_341\n        /* \"#utility.yul\":5699:5700   */\n      0x00\n        /* \"#utility.yul\":5688:5697   */\n      dup4\n        /* \"#utility.yul\":5684:5701   */\n      add\n        /* \"#utility.yul\":5675:5681   */\n      dup5\n        /* \"#utility.yul\":5631:5702   */\n      tag_236\n      jump\t// in\n    tag_341:\n        /* \"#utility.yul\":5487:5709   */\n      swap3\n      swap2\n      pop\n      pop\n      jump\t// out\n        /* \"#utility.yul\":5715:5837   */\n    tag_244:\n        /* \"#utility.yul\":5788:5812   */\n      tag_343\n        /* \"#utility.yul\":5806:5811   */\n      dup2\n        /* \"#utility.yul\":5788:5812   */\n      tag_231\n      jump\t// in\n    tag_343:\n        /* \"#utility.yul\":5781:5786   */\n      dup2\n        /* \"#utility.yul\":5778:5813   */\n      eq\n        /* \"#utility.yul\":5768:5831   */\n      tag_344\n      jumpi\n        /* \"#utility.yul\":5827:5828   */\n      0x00\n        /* \"#utility.yul\":5824:5825   */\n      0x00\n        /* \"#utility.yul\":5817:5829   */\n      revert\n        /* \"#utility.yul\":5768:5831   */\n    tag_344:\n        /* \"#utility.yul\":5715:5837   */\n      pop\n      jump\t// out\n        /* \"#utility.yul\":5843:5982   */\n    tag_245:\n        /* \"#utility.yul\":5889:5894   */\n      0x00\n        /* \"#utility.yul\":5927:5933   */\n      dup2\n        /* \"#utility.yul\":5914:5934   */\n      calldataload\n        /* \"#utility.yul\":5905:5934   */\n      swap1\n      pop\n        /* \"#utility.yul\":5943:5976   */\n      tag_346\n        /* \"#utility.yul\":5970:5975   */\n      dup2\n        /* \"#utility.yul\":5943:5976   */\n      tag_244\n      jump\t// in\n    tag_346:\n        /* \"#utility.yul\":5843:5982   */\n      swap3\n      swap2\n      pop\n      pop\n      jump\t// out\n        /* \"#utility.yul\":5988:6317   */\n    tag_52:\n        /* \"#utility.yul\":6047:6053   */\n      0x00\n        /* \"#utility.yul\":6096:6098   */\n      0x20\n        /* \"#utility.yul\":6084:6093   */\n      dup3\n        /* \"#utility.yul\":6075:6082   */\n      dup5\n        /* \"#utility.yul\":6071:6094   */\n      sub\n        /* \"#utility.yul\":6067:6099   */\n      slt\n        /* \"#utility.yul\":6064:6183   */\n      iszero\n      tag_348\n      jumpi\n        /* \"#utility.yul\":6102:6181   */\n      tag_349\n      tag_222\n      jump\t// in\n    tag_349:\n        /* \"#utility.yul\":6064:6183   */\n    tag_348:\n        /* \"#utility.yul\":6222:6223   */\n      0x00\n        /* \"#utility.yul\":6247:6300   */\n      tag_350\n        /* \"#utility.yul\":6292:6299   */\n      dup5\n        /* \"#utility.yul\":6283:6289   */\n      dup3\n        /* \"#utility.yul\":6272:6281   */\n      dup6\n        /* \"#utility.yul\":6268:6290   */\n      add\n        /* \"#utility.yul\":6247:6300   */\n      tag_245\n      jump\t// in\n    tag_350:\n        /* \"#utility.yul\":6237:6300   */\n      swap2\n      pop\n        /* \"#utility.yul\":6193:6310   */\n      pop\n        /* \"#utility.yul\":5988:6317   */\n      swap3\n      swap2\n      pop\n      pop\n      jump\t// out\n        /* \"#utility.yul\":6323:6797   */\n    tag_66:\n        /* \"#utility.yul\":6391:6397   */\n      0x00\n        /* \"#utility.yul\":6399:6405   */\n      0x00\n        /* \"#utility.yul\":6448:6450   */\n      0x40\n        /* \"#utility.yul\":6436:6445   */\n      dup4\n        /* \"#utility.yul\":6427:6434   */\n      dup6\n        /* \"#utility.yul\":6423:6446   */\n      sub\n        /* \"#utility.yul\":6419:6451   */\n      slt\n        /* \"#utility.yul\":6416:6535   */\n      iszero\n      tag_352\n      jumpi\n        /* \"#utility.yul\":6454:6533   */\n      tag_353\n      tag_222\n      jump\t// in\n    tag_353:\n        /* \"#utility.yul\":6416:6535   */\n    tag_352:\n        /* \"#utility.yul\":6574:6575   */\n      0x00\n        /* \"#utility.yul\":6599:6652   */\n      tag_354\n        /* \"#utility.yul\":6644:6651   */\n      dup6\n        /* \"#utility.yul\":6635:6641   */\n      dup3\n        /* \"#utility.yul\":6624:6633   */\n      dup7\n        /* \"#utility.yul\":6620:6642   */\n      add\n        /* \"#utility.yul\":6599:6652   */\n      tag_227\n      jump\t// in\n    tag_354:\n        /* \"#utility.yul\":6589:6652   */\n      swap3\n      pop\n        /* \"#utility.yul\":6545:6662   */\n      pop\n        /* \"#utility.yul\":6701:6703   */\n      0x20\n        /* \"#utility.yul\":6727:6780   */\n      tag_355\n        /* \"#utility.yul\":6772:6779   */\n      dup6\n        /* \"#utility.yul\":6763:6769   */\n      dup3\n        /* \"#utility.yul\":6752:6761   */\n      dup7\n        /* \"#utility.yul\":6748:6770   */\n      add\n        /* \"#utility.yul\":6727:6780   */\n      tag_245\n      jump\t// in\n    tag_355:\n        /* \"#utility.yul\":6717:6780   */\n      swap2\n      pop\n        /* \"#utility.yul\":6672:6790   */\n      pop\n        /* \"#utility.yul\":6323:6797   */\n      swap3\n      pop\n      swap3\n      swap1\n      pop\n      jump\t// out\n        /* \"#utility.yul\":6803:7025   */\n    tag_73:\n        /* \"#utility.yul\":6896:6900   */\n      0x00\n        /* \"#utility.yul\":6934:6936   */\n      0x20\n        /* \"#utility.yul\":6923:6932   */\n      dup3\n        /* \"#utility.yul\":6919:6937   */\n      add\n        /* \"#utility.yul\":6911:6937   */\n      swap1\n      pop\n        /* \"#utility.yul\":6947:7018   */\n      tag_357\n        /* \"#utility.yul\":7015:7016   */\n      0x00\n        /* \"#utility.yul\":7004:7013   */\n      dup4\n        /* \"#utility.yul\":7000:7017   */\n      add\n        /* \"#utility.yul\":6991:6997   */\n      dup5\n        /* \"#utility.yul\":6947:7018   */\n      tag_237\n      jump\t// in\n    tag_357:\n        /* \"#utility.yul\":6803:7025   */\n      swap3\n      swap2\n      pop\n      pop\n      jump\t// out\n        /* \"#utility.yul\":7031:7117   */\n    tag_246:\n        /* \"#utility.yul\":7066:7073   */\n      0x00\n        /* \"#utility.yul\":7106:7110   */\n      0xff\n        /* \"#utility.yul\":7099:7104   */\n      dup3\n        /* \"#utility.yul\":7095:7111   */\n      and\n        /* \"#utility.yul\":7084:7111   */\n      swap1\n      pop\n        /* \"#utility.yul\":7031:7117   */\n      swap2\n      swap1\n      pop\n      jump\t// out\n        /* \"#utility.yul\":7123:7235   */\n    tag_247:\n        /* \"#utility.yul\":7206:7228   */\n      tag_360\n        /* \"#utility.yul\":7222:7227   */\n      dup2\n        /* \"#utility.yul\":7206:7228   */\n      tag_246\n      jump\t// in\n    tag_360:\n        /* \"#utility.yul\":7201:7204   */\n      dup3\n        /* \"#utility.yul\":7194:7229   */\n      mstore\n        /* \"#utility.yul\":7123:7235   */\n      pop\n      pop\n      jump\t// out\n        /* \"#utility.yul\":7241:7455   */\n    tag_91:\n        /* \"#utility.yul\":7330:7334   */\n      0x00\n        /* \"#utility.yul\":7368:7370   */\n      0x20\n        /* \"#utility.yul\":7357:7366   */\n      dup3\n        /* \"#utility.yul\":7353:7371   */\n      add\n        /* \"#utility.yul\":7345:7371   */\n      swap1\n      pop\n        /* \"#utility.yul\":7381:7448   */\n      tag_362\n        /* \"#utility.yul\":7445:7446   */\n      0x00\n        /* \"#utility.yul\":7434:7443   */\n      dup4\n        /* \"#utility.yul\":7430:7447   */\n      add\n        /* \"#utility.yul\":7421:7427   */\n      dup5\n        /* \"#utility.yul\":7381:7448   */\n      tag_247\n      jump\t// in\n    tag_362:\n        /* \"#utility.yul\":7241:7455   */\n      swap3\n      swap2\n      pop\n      pop\n      jump\t// out\n        /* \"#utility.yul\":7461:7569   */\n    tag_248:\n        /* \"#utility.yul\":7538:7562   */\n      tag_364\n        /* \"#utility.yul\":7556:7561   */\n      dup2\n        /* \"#utility.yul\":7538:7562   */\n      tag_225\n      jump\t// in\n    tag_364:\n        /* \"#utility.yul\":7533:7536   */\n      dup3\n        /* \"#utility.yul\":7526:7563   */\n      mstore\n        /* \"#utility.yul\":7461:7569   */\n      pop\n      pop\n      jump\t// out\n        /* \"#utility.yul\":7575:7718   */\n    tag_249:\n        /* \"#utility.yul\":7663:7711   */\n      tag_366\n        /* \"#utility.yul\":7705:7710   */\n      dup2\n        /* \"#utility.yul\":7663:7711   */\n      tag_240\n      jump\t// in\n    tag_366:\n        /* \"#utility.yul\":7658:7661   */\n      dup3\n        /* \"#utility.yul\":7651:7712   */\n      mstore\n        /* \"#utility.yul\":7575:7718   */\n      pop\n      pop\n      jump\t// out\n        /* \"#utility.yul\":7724:7823   */\n    tag_250:\n        /* \"#utility.yul\":7795:7816   */\n      tag_368\n        /* \"#utility.yul\":7810:7815   */\n      dup2\n        /* \"#utility.yul\":7795:7816   */\n      tag_242\n      jump\t// in\n    tag_368:\n        /* \"#utility.yul\":7790:7793   */\n      dup3\n        /* \"#utility.yul\":7783:7817   */\n      mstore\n        /* \"#utility.yul\":7724:7823   */\n      pop\n      pop\n      jump\t// out\n        /* \"#utility.yul\":7887:9455   */\n    tag_251:\n        /* \"#utility.yul\":8026:8032   */\n      0x0100\n        /* \"#utility.yul\":8021:8024   */\n      dup3\n        /* \"#utility.yul\":8017:8033   */\n      add\n        /* \"#utility.yul\":8113:8117   */\n      0x00\n        /* \"#utility.yul\":8106:8111   */\n      dup3\n        /* \"#utility.yul\":8102:8118   */\n      add\n        /* \"#utility.yul\":8096:8119   */\n      mload\n        /* \"#utility.yul\":8132:8195   */\n      tag_370\n        /* \"#utility.yul\":8189:8193   */\n      0x00\n        /* \"#utility.yul\":8184:8187   */\n      dup6\n        /* \"#utility.yul\":8180:8194   */\n      add\n        /* \"#utility.yul\":8166:8178   */\n      dup3\n        /* \"#utility.yul\":8132:8195   */\n      tag_232\n      jump\t// in\n    tag_370:\n        /* \"#utility.yul\":8043:8205   */\n      pop\n        /* \"#utility.yul\":8288:8292   */\n      0x20\n        /* \"#utility.yul\":8281:8286   */\n      dup3\n        /* \"#utility.yul\":8277:8293   */\n      add\n        /* \"#utility.yul\":8271:8294   */\n      mload\n        /* \"#utility.yul\":8307:8370   */\n      tag_371\n        /* \"#utility.yul\":8364:8368   */\n      0x20\n        /* \"#utility.yul\":8359:8362   */\n      dup6\n        /* \"#utility.yul\":8355:8369   */\n      add\n        /* \"#utility.yul\":8341:8353   */\n      dup3\n        /* \"#utility.yul\":8307:8370   */\n      tag_248\n      jump\t// in\n    tag_371:\n        /* \"#utility.yul\":8215:8380   */\n      pop\n        /* \"#utility.yul\":8463:8467   */\n      0x40\n        /* \"#utility.yul\":8456:8461   */\n      dup3\n        /* \"#utility.yul\":8452:8468   */\n      add\n        /* \"#utility.yul\":8446:8469   */\n      mload\n        /* \"#utility.yul\":8482:8556   */\n      tag_372\n        /* \"#utility.yul\":8550:8554   */\n      0x40\n        /* \"#utility.yul\":8545:8548   */\n      dup6\n        /* \"#utility.yul\":8541:8555   */\n      add\n        /* \"#utility.yul\":8527:8539   */\n      dup3\n        /* \"#utility.yul\":8482:8556   */\n      tag_249\n      jump\t// in\n    tag_372:\n        /* \"#utility.yul\":8390:8566   */\n      pop\n        /* \"#utility.yul\":8655:8659   */\n      0x60\n        /* \"#utility.yul\":8648:8653   */\n      dup3\n        /* \"#utility.yul\":8644:8660   */\n      add\n        /* \"#utility.yul\":8638:8661   */\n      mload\n        /* \"#utility.yul\":8674:8737   */\n      tag_373\n        /* \"#utility.yul\":8731:8735   */\n      0x60\n        /* \"#utility.yul\":8726:8729   */\n      dup6\n        /* \"#utility.yul\":8722:8736   */\n      add\n        /* \"#utility.yul\":8708:8720   */\n      dup3\n        /* \"#utility.yul\":8674:8737   */\n      tag_232\n      jump\t// in\n    tag_373:\n        /* \"#utility.yul\":8576:8747   */\n      pop\n        /* \"#utility.yul\":8836:8840   */\n      0x80\n        /* \"#utility.yul\":8829:8834   */\n      dup3\n        /* \"#utility.yul\":8825:8841   */\n      add\n        /* \"#utility.yul\":8819:8842   */\n      mload\n        /* \"#utility.yul\":8855:8918   */\n      tag_374\n        /* \"#utility.yul\":8912:8916   */\n      0x80\n        /* \"#utility.yul\":8907:8910   */\n      dup6\n        /* \"#utility.yul\":8903:8917   */\n      add\n        /* \"#utility.yul\":8889:8901   */\n      dup3\n        /* \"#utility.yul\":8855:8918   */\n      tag_232\n      jump\t// in\n    tag_374:\n        /* \"#utility.yul\":8757:8928   */\n      pop\n        /* \"#utility.yul\":9016:9020   */\n      0xa0\n        /* \"#utility.yul\":9009:9014   */\n      dup3\n        /* \"#utility.yul\":9005:9021   */\n      add\n        /* \"#utility.yul\":8999:9022   */\n      mload\n        /* \"#utility.yul\":9035:9098   */\n      tag_375\n        /* \"#utility.yul\":9092:9096   */\n      0xa0\n        /* \"#utility.yul\":9087:9090   */\n      dup6\n        /* \"#utility.yul\":9083:9097   */\n      add\n        /* \"#utility.yul\":9069:9081   */\n      dup3\n        /* \"#utility.yul\":9035:9098   */\n      tag_232\n      jump\t// in\n    tag_375:\n        /* \"#utility.yul\":8938:9108   */\n      pop\n        /* \"#utility.yul\":9192:9196   */\n      0xc0\n        /* \"#utility.yul\":9185:9190   */\n      dup3\n        /* \"#utility.yul\":9181:9197   */\n      add\n        /* \"#utility.yul\":9175:9198   */\n      mload\n        /* \"#utility.yul\":9211:9268   */\n      tag_376\n        /* \"#utility.yul\":9262:9266   */\n      0xc0\n        /* \"#utility.yul\":9257:9260   */\n      dup6\n        /* \"#utility.yul\":9253:9267   */\n      add\n        /* \"#utility.yul\":9239:9251   */\n      dup3\n        /* \"#utility.yul\":9211:9268   */\n      tag_250\n      jump\t// in\n    tag_376:\n        /* \"#utility.yul\":9118:9278   */\n      pop\n        /* \"#utility.yul\":9362:9366   */\n      0xe0\n        /* \"#utility.yul\":9355:9360   */\n      dup3\n        /* \"#utility.yul\":9351:9367   */\n      add\n        /* \"#utility.yul\":9345:9368   */\n      mload\n        /* \"#utility.yul\":9381:9438   */\n      tag_377\n        /* \"#utility.yul\":9432:9436   */\n      0xe0\n        /* \"#utility.yul\":9427:9430   */\n      dup6\n        /* \"#utility.yul\":9423:9437   */\n      add\n        /* \"#utility.yul\":9409:9421   */\n      dup3\n        /* \"#utility.yul\":9381:9438   */\n      tag_250\n      jump\t// in\n    tag_377:\n        /* \"#utility.yul\":9288:9448   */\n      pop\n        /* \"#utility.yul\":7995:9455   */\n      pop\n        /* \"#utility.yul\":7887:9455   */\n      pop\n      pop\n      jump\t// out\n        /* \"#utility.yul\":9461:9768   */\n    tag_109:\n        /* \"#utility.yul\":9596:9600   */\n      0x00\n        /* \"#utility.yul\":9634:9637   */\n      0x0100\n        /* \"#utility.yul\":9623:9632   */\n      dup3\n        /* \"#utility.yul\":9619:9638   */\n      add\n        /* \"#utility.yul\":9611:9638   */\n      swap1\n      pop\n        /* \"#utility.yul\":9648:9761   */\n      tag_379\n        /* \"#utility.yul\":9758:9759   */\n      0x00\n        /* \"#utility.yul\":9747:9756   */\n      dup4\n        /* \"#utility.yul\":9743:9760   */\n      add\n        /* \"#utility.yul\":9734:9740   */\n      dup5\n        /* \"#utility.yul\":9648:9761   */\n      tag_251\n      jump\t// in\n    tag_379:\n        /* \"#utility.yul\":9461:9768   */\n      swap3\n      swap2\n      pop\n      pop\n      jump\t// out\n        /* \"#utility.yul\":9774:9943   */\n    tag_252:\n        /* \"#utility.yul\":9858:9869   */\n      0x00\n        /* \"#utility.yul\":9892:9898   */\n      dup3\n        /* \"#utility.yul\":9887:9890   */\n      dup3\n        /* \"#utility.yul\":9880:9899   */\n      mstore\n        /* \"#utility.yul\":9932:9936   */\n      0x20\n        /* \"#utility.yul\":9927:9930   */\n      dup3\n        /* \"#utility.yul\":9923:9937   */\n      add\n        /* \"#utility.yul\":9908:9937   */\n      swap1\n      pop\n        /* \"#utility.yul\":9774:9943   */\n      swap3\n      swap2\n      pop\n      pop\n      jump\t// out\n        /* \"#utility.yul\":9949:10110   */\n    tag_253:\n        /* \"#utility.yul\":10089:10102   */\n      0x42756b616e206f776e6572000000000000000000000000000000000000000000\n        /* \"#utility.yul\":10085:10086   */\n      0x00\n        /* \"#utility.yul\":10077:10083   */\n      dup3\n        /* \"#utility.yul\":10073:10087   */\n      add\n        /* \"#utility.yul\":10066:10103   */\n      mstore\n        /* \"#utility.yul\":9949:10110   */\n      pop\n      jump\t// out\n        /* \"#utility.yul\":10116:10482   */\n    tag_254:\n        /* \"#utility.yul\":10258:10261   */\n      0x00\n        /* \"#utility.yul\":10279:10346   */\n      tag_383\n        /* \"#utility.yul\":10343:10345   */\n      0x0b\n        /* \"#utility.yul\":10338:10341   */\n      dup4\n        /* \"#utility.yul\":10279:10346   */\n      tag_252\n      jump\t// in\n    tag_383:\n        /* \"#utility.yul\":10272:10346   */\n      swap2\n      pop\n        /* \"#utility.yul\":10355:10448   */\n      tag_384\n        /* \"#utility.yul\":10444:10447   */\n      dup3\n        /* \"#utility.yul\":10355:10448   */\n      tag_253\n      jump\t// in\n    tag_384:\n        /* \"#utility.yul\":10473:10475   */\n      0x20\n        /* \"#utility.yul\":10468:10471   */\n      dup3\n        /* \"#utility.yul\":10464:10476   */\n      add\n        /* \"#utility.yul\":10457:10476   */\n      swap1\n      pop\n        /* \"#utility.yul\":10116:10482   */\n      swap2\n      swap1\n      pop\n      jump\t// out\n        /* \"#utility.yul\":10488:10907   */\n    tag_116:\n        /* \"#utility.yul\":10654:10658   */\n      0x00\n        /* \"#utility.yul\":10692:10694   */\n      0x20\n        /* \"#utility.yul\":10681:10690   */\n      dup3\n        /* \"#utility.yul\":10677:10695   */\n      add\n        /* \"#utility.yul\":10669:10695   */\n      swap1\n      pop\n        /* \"#utility.yul\":10741:10750   */\n      dup2\n        /* \"#utility.yul\":10735:10739   */\n      dup2\n        /* \"#utility.yul\":10731:10751   */\n      sub\n        /* \"#utility.yul\":10727:10728   */\n      0x00\n        /* \"#utility.yul\":10716:10725   */\n      dup4\n        /* \"#utility.yul\":10712:10729   */\n      add\n        /* \"#utility.yul\":10705:10752   */\n      mstore\n        /* \"#utility.yul\":10769:10900   */\n      tag_386\n        /* \"#utility.yul\":10895:10899   */\n      dup2\n        /* \"#utility.yul\":10769:10900   */\n      tag_254\n      jump\t// in\n    tag_386:\n        /* \"#utility.yul\":10761:10900   */\n      swap1\n      pop\n        /* \"#utility.yul\":10488:10907   */\n      swap2\n      swap1\n      pop\n      jump\t// out\n        /* \"#utility.yul\":10913:11060   */\n    tag_255:\n        /* \"#utility.yul\":11014:11025   */\n      0x00\n        /* \"#utility.yul\":11051:11054   */\n      dup2\n        /* \"#utility.yul\":11036:11054   */\n      swap1\n      pop\n        /* \"#utility.yul\":10913:11060   */\n      swap3\n      swap2\n      pop\n      pop\n      jump\t// out\n        /* \"#utility.yul\":11066:11180   */\n    tag_256:\n      pop\n      jump\t// out\n        /* \"#utility.yul\":11186:11584   */\n    tag_257:\n        /* \"#utility.yul\":11345:11348   */\n      0x00\n        /* \"#utility.yul\":11366:11449   */\n      tag_390\n        /* \"#utility.yul\":11447:11448   */\n      0x00\n        /* \"#utility.yul\":11442:11445   */\n      dup4\n        /* \"#utility.yul\":11366:11449   */\n      tag_255\n      jump\t// in\n    tag_390:\n        /* \"#utility.yul\":11359:11449   */\n      swap2\n      pop\n        /* \"#utility.yul\":11458:11551   */\n      tag_391\n        /* \"#utility.yul\":11547:11550   */\n      dup3\n        /* \"#utility.yul\":11458:11551   */\n      tag_256\n      jump\t// in\n    tag_391:\n        /* \"#utility.yul\":11576:11577   */\n      0x00\n        /* \"#utility.yul\":11571:11574   */\n      dup3\n        /* \"#utility.yul\":11567:11578   */\n      add\n        /* \"#utility.yul\":11560:11578   */\n      swap1\n      pop\n        /* \"#utility.yul\":11186:11584   */\n      swap2\n      swap1\n      pop\n      jump\t// out\n        /* \"#utility.yul\":11590:11969   */\n    tag_118:\n        /* \"#utility.yul\":11774:11777   */\n      0x00\n        /* \"#utility.yul\":11796:11943   */\n      tag_393\n        /* \"#utility.yul\":11939:11942   */\n      dup3\n        /* \"#utility.yul\":11796:11943   */\n      tag_257\n      jump\t// in\n    tag_393:\n        /* \"#utility.yul\":11789:11943   */\n      swap2\n      pop\n        /* \"#utility.yul\":11960:11963   */\n      dup2\n        /* \"#utility.yul\":11953:11963   */\n      swap1\n      pop\n        /* \"#utility.yul\":11590:11969   */\n      swap2\n      swap1\n      pop\n      jump\t// out\n        /* \"#utility.yul\":11975:12139   */\n    tag_258:\n        /* \"#utility.yul\":12115:12131   */\n      0x5472616e7366657220676167616c000000000000000000000000000000000000\n        /* \"#utility.yul\":12111:12112   */\n      0x00\n        /* \"#utility.yul\":12103:12109   */\n      dup3\n        /* \"#utility.yul\":12099:12113   */\n      add\n        /* \"#utility.yul\":12092:12132   */\n      mstore\n        /* \"#utility.yul\":11975:12139   */\n      pop\n      jump\t// out\n        /* \"#utility.yul\":12145:12511   */\n    tag_259:\n        /* \"#utility.yul\":12287:12290   */\n      0x00\n        /* \"#utility.yul\":12308:12375   */\n      tag_396\n        /* \"#utility.yul\":12372:12374   */\n      0x0e\n        /* \"#utility.yul\":12367:12370   */\n      dup4\n        /* \"#utility.yul\":12308:12375   */\n      tag_252\n      jump\t// in\n    tag_396:\n        /* \"#utility.yul\":12301:12375   */\n      swap2\n      pop\n        /* \"#utility.yul\":12384:12477   */\n      tag_397\n        /* \"#utility.yul\":12473:12476   */\n      dup3\n        /* \"#utility.yul\":12384:12477   */\n      tag_258\n      jump\t// in\n    tag_397:\n        /* \"#utility.yul\":12502:12504   */\n      0x20\n        /* \"#utility.yul\":12497:12500   */\n      dup3\n        /* \"#utility.yul\":12493:12505   */\n      add\n        /* \"#utility.yul\":12486:12505   */\n      swap1\n      pop\n        /* \"#utility.yul\":12145:12511   */\n      swap2\n      swap1\n      pop\n      jump\t// out\n        /* \"#utility.yul\":12517:12936   */\n    tag_124:\n        /* \"#utility.yul\":12683:12687   */\n      0x00\n        /* \"#utility.yul\":12721:12723   */\n      0x20\n        /* \"#utility.yul\":12710:12719   */\n      dup3\n        /* \"#utility.yul\":12706:12724   */\n      add\n        /* \"#utility.yul\":12698:12724   */\n      swap1\n      pop\n        /* \"#utility.yul\":12770:12779   */\n      dup2\n        /* \"#utility.yul\":12764:12768   */\n      dup2\n        /* \"#utility.yul\":12760:12780   */\n      sub\n        /* \"#utility.yul\":12756:12757   */\n      0x00\n        /* \"#utility.yul\":12745:12754   */\n      dup4\n        /* \"#utility.yul\":12741:12758   */\n      add\n        /* \"#utility.yul\":12734:12781   */\n      mstore\n        /* \"#utility.yul\":12798:12929   */\n      tag_399\n        /* \"#utility.yul\":12924:12928   */\n      dup2\n        /* \"#utility.yul\":12798:12929   */\n      tag_259\n      jump\t// in\n    tag_399:\n        /* \"#utility.yul\":12790:12929   */\n      swap1\n      pop\n        /* \"#utility.yul\":12517:12936   */\n      swap2\n      swap1\n      pop\n      jump\t// out\n        /* \"#utility.yul\":12942:13122   */\n    tag_260:\n        /* \"#utility.yul\":12990:13067   */\n      0x4e487b7100000000000000000000000000000000000000000000000000000000\n        /* \"#utility.yul\":12987:12988   */\n      0x00\n        /* \"#utility.yul\":12980:13068   */\n      mstore\n        /* \"#utility.yul\":13087:13091   */\n      0x11\n        /* \"#utility.yul\":13084:13085   */\n      0x04\n        /* \"#utility.yul\":13077:13092   */\n      mstore\n        /* \"#utility.yul\":13111:13115   */\n      0x24\n        /* \"#utility.yul\":13108:13109   */\n      0x00\n        /* \"#utility.yul\":13101:13116   */\n      revert\n        /* \"#utility.yul\":13128:13361   */\n    tag_128:\n        /* \"#utility.yul\":13167:13170   */\n      0x00\n        /* \"#utility.yul\":13190:13214   */\n      tag_402\n        /* \"#utility.yul\":13208:13213   */\n      dup3\n        /* \"#utility.yul\":13190:13214   */\n      tag_231\n      jump\t// in\n    tag_402:\n        /* \"#utility.yul\":13181:13214   */\n      swap2\n      pop\n        /* \"#utility.yul\":13236:13302   */\n      0xffffffffffffffffffffffffffffffffffffffffffffffffffffffffffffffff\n        /* \"#utility.yul\":13229:13234   */\n      dup3\n        /* \"#utility.yul\":13226:13303   */\n      sub\n        /* \"#utility.yul\":13223:13326   */\n      tag_403\n      jumpi\n        /* \"#utility.yul\":13306:13324   */\n      tag_404\n      tag_260\n      jump\t// in\n    tag_404:\n        /* \"#utility.yul\":13223:13326   */\n    tag_403:\n        /* \"#utility.yul\":13353:13354   */\n      0x01\n        /* \"#utility.yul\":13346:13351   */\n      dup3\n        /* \"#utility.yul\":13342:13355   */\n      add\n        /* \"#utility.yul\":13335:13355   */\n      swap1\n      pop\n        /* \"#utility.yul\":13128:13361   */\n      swap2\n      swap1\n      pop\n      jump\t// out\n        /* \"#utility.yul\":13367:13561   */\n    tag_139:\n        /* \"#utility.yul\":13407:13411   */\n      0x00\n        /* \"#utility.yul\":13427:13447   */\n      tag_406\n        /* \"#utility.yul\":13445:13446   */\n      dup3\n        /* \"#utility.yul\":13427:13447   */\n      tag_231\n      jump\t// in\n    tag_406:\n        /* \"#utility.yul\":13422:13447   */\n      swap2\n      pop\n        /* \"#utility.yul\":13461:13481   */\n      tag_407\n        /* \"#utility.yul\":13479:13480   */\n      dup4\n        /* \"#utility.yul\":13461:13481   */\n      tag_231\n      jump\t// in\n    tag_407:\n        /* \"#utility.yul\":13456:13481   */\n      swap3\n      pop\n        /* \"#utility.yul\":13505:13506   */\n      dup3\n        /* \"#utility.yul\":13502:13503   */\n      dup3\n        /* \"#utility.yul\":13498:13507   */\n      sub\n        /* \"#utility.yul\":13490:13507   */\n      swap1\n      pop\n        /* \"#utility.yul\":13529:13530   */\n      dup2\n        /* \"#utility.yul\":13523:13527   */\n      dup2\n        /* \"#utility.yul\":13520:13531   */\n      gt\n        /* \"#utility.yul\":13517:13554   */\n      iszero\n      tag_408\n      jumpi\n        /* \"#utility.yul\":13534:13552   */\n      tag_409\n      tag_260\n      jump\t// in\n    tag_409:\n        /* \"#utility.yul\":13517:13554   */\n    tag_408:\n        /* \"#utility.yul\":13367:13561   */\n      swap3\n      swap2\n      pop\n      pop\n      jump\t// out\n        /* \"#utility.yul\":13567:13747   */\n    tag_261:\n        /* \"#utility.yul\":13615:13692   */\n      0x4e487b7100000000000000000000000000000000000000000000000000000000\n        /* \"#utility.yul\":13612:13613   */\n      0x00\n        /* \"#utility.yul\":13605:13693   */\n      mstore\n        /* \"#utility.yul\":13712:13716   */\n      0x12\n        /* \"#utility.yul\":13709:13710   */\n      0x04\n        /* \"#utility.yul\":13702:13717   */\n      mstore\n        /* \"#utility.yul\":13736:13740   */\n      0x24\n        /* \"#utility.yul\":13733:13734   */\n      0x00\n        /* \"#utility.yul\":13726:13741   */\n      revert\n        /* \"#utility.yul\":13753:13938   */\n    tag_141:\n        /* \"#utility.yul\":13793:13794   */\n      0x00\n        /* \"#utility.yul\":13810:13830   */\n      tag_412\n        /* \"#utility.yul\":13828:13829   */\n      dup3\n        /* \"#utility.yul\":13810:13830   */\n      tag_231\n      jump\t// in\n    tag_412:\n        /* \"#utility.yul\":13805:13830   */\n      swap2\n      pop\n        /* \"#utility.yul\":13844:13864   */\n      tag_413\n        /* \"#utility.yul\":13862:13863   */\n      dup4\n        /* \"#utility.yul\":13844:13864   */\n      tag_231\n      jump\t// in\n    tag_413:\n        /* \"#utility.yul\":13839:13864   */\n      swap3\n      pop\n        /* \"#utility.yul\":13883:13884   */\n      dup3\n        /* \"#utility.yul\":13873:13908   */\n      tag_414\n      jumpi\n        /* \"#utility.yul\":13888:13906   */\n      tag_415\n      tag_261\n      jump\t// in\n    tag_415:\n        /* \"#utility.yul\":13873:13908   */\n    tag_414:\n        /* \"#utility.yul\":13930:13931   */\n      dup3\n        /* \"#utility.yul\":13927:13928   */\n      dup3\n        /* \"#utility.yul\":13923:13932   */\n      div\n        /* \"#utility.yul\":13918:13932   */\n      swap1\n      pop\n        /* \"#utility.yul\":13753:13938   */\n      swap3\n      swap2\n      pop\n      pop\n      jump\t// out\n        /* \"#utility.yul\":13944:14354   */\n    tag_143:\n        /* \"#utility.yul\":13984:13991   */\n      0x00\n        /* \"#utility.yul\":14007:14027   */\n      tag_417\n        /* \"#utility.yul\":14025:14026   */\n      dup3\n        /* \"#utility.yul\":14007:14027   */\n      tag_231\n      jump\t// in\n    tag_417:\n        /* \"#utility.yul\":14002:14027   */\n      swap2\n      pop\n        /* \"#utility.yul\":14041:14061   */\n      tag_418\n        /* \"#utility.yul\":14059:14060   */\n      dup4\n        /* \"#utility.yul\":14041:14061   */\n      tag_231\n      jump\t// in\n    tag_418:\n        /* \"#utility.yul\":14036:14061   */\n      swap3\n      pop\n        /* \"#utility.yul\":14096:14097   */\n      dup3\n        /* \"#utility.yul\":14093:14094   */\n      dup3\n        /* \"#utility.yul\":14089:14098   */\n      mul\n        /* \"#utility.yul\":14118:14148   */\n      tag_419\n        /* \"#utility.yul\":14136:14147   */\n      dup2\n        /* \"#utility.yul\":14118:14148   */\n      tag_231\n      jump\t// in\n    tag_419:\n        /* \"#utility.yul\":14107:14148   */\n      swap2\n      pop\n        /* \"#utility.yul\":14297:14298   */\n      dup3\n        /* \"#utility.yul\":14288:14295   */\n      dup3\n        /* \"#utility.yul\":14284:14299   */\n      div\n        /* \"#utility.yul\":14281:14282   */\n      dup5\n        /* \"#utility.yul\":14278:14300   */\n      eq\n        /* \"#utility.yul\":14258:14259   */\n      dup4\n        /* \"#utility.yul\":14251:14260   */\n      iszero\n        /* \"#utility.yul\":14231:14314   */\n      or\n        /* \"#utility.yul\":14208:14347   */\n      tag_420\n      jumpi\n        /* \"#utility.yul\":14327:14345   */\n      tag_421\n      tag_260\n      jump\t// in\n    tag_421:\n        /* \"#utility.yul\":14208:14347   */\n    tag_420:\n        /* \"#utility.yul\":13992:14354   */\n      pop\n        /* \"#utility.yul\":13944:14354   */\n      swap3\n      swap2\n      pop\n      pop\n      jump\t// out\n        /* \"#utility.yul\":14360:14530   */\n    tag_262:\n        /* \"#utility.yul\":14500:14522   */\n      0x506c616e7420646f6573206e6f74206578697374000000000000000000000000\n        /* \"#utility.yul\":14496:14497   */\n      0x00\n        /* \"#utility.yul\":14488:14494   */\n      dup3\n        /* \"#utility.yul\":14484:14498   */\n      add\n        /* \"#utility.yul\":14477:14523   */\n      mstore\n        /* \"#utility.yul\":14360:14530   */\n      pop\n      jump\t// out\n        /* \"#utility.yul\":14536:14902   */\n    tag_263:\n        /* \"#utility.yul\":14678:14681   */\n      0x00\n        /* \"#utility.yul\":14699:14766   */\n      tag_424\n        /* \"#utility.yul\":14763:14765   */\n      0x14\n        /* \"#utility.yul\":14758:14761   */\n      dup4\n        /* \"#utility.yul\":14699:14766   */\n      tag_252\n      jump\t// in\n    tag_424:\n        /* \"#utility.yul\":14692:14766   */\n      swap2\n      pop\n        /* \"#utility.yul\":14775:14868   */\n      tag_425\n        /* \"#utility.yul\":14864:14867   */\n      dup3\n        /* \"#utility.yul\":14775:14868   */\n      tag_262\n      jump\t// in\n    tag_425:\n        /* \"#utility.yul\":14893:14895   */\n      0x20\n        /* \"#utility.yul\":14888:14891   */\n      dup3\n        /* \"#utility.yul\":14884:14896   */\n      add\n        /* \"#utility.yul\":14877:14896   */\n      swap1\n      pop\n        /* \"#utility.yul\":14536:14902   */\n      swap2\n      swap1\n      pop\n      jump\t// out\n        /* \"#utility.yul\":14908:15327   */\n    tag_151:\n        /* \"#utility.yul\":15074:15078   */\n      0x00\n        /* \"#utility.yul\":15112:15114   */\n      0x20\n        /* \"#utility.yul\":15101:15110   */\n      dup3\n        /* \"#utility.yul\":15097:15115   */\n      add\n        /* \"#utility.yul\":15089:15115   */\n      swap1\n      pop\n        /* \"#utility.yul\":15161:15170   */\n      dup2\n        /* \"#utility.yul\":15155:15159   */\n      dup2\n        /* \"#utility.yul\":15151:15171   */\n      sub\n        /* \"#utility.yul\":15147:15148   */\n      0x00\n        /* \"#utility.yul\":15136:15145   */\n      dup4\n        /* \"#utility.yul\":15132:15149   */\n      add\n        /* \"#utility.yul\":15125:15172   */\n      mstore\n        /* \"#utility.yul\":15189:15320   */\n      tag_427\n        /* \"#utility.yul\":15315:15319   */\n      dup2\n        /* \"#utility.yul\":15189:15320   */\n      tag_263\n      jump\t// in\n    tag_427:\n        /* \"#utility.yul\":15181:15320   */\n      swap1\n      pop\n        /* \"#utility.yul\":14908:15327   */\n      swap2\n      swap1\n      pop\n      jump\t// out\n        /* \"#utility.yul\":15333:15560   */\n    tag_264:\n        /* \"#utility.yul\":15473:15507   */\n      0x4f6e6c792074686520706c616e74206f776e65722063616e2077617465722074\n        /* \"#utility.yul\":15469:15470   */\n      0x00\n        /* \"#utility.yul\":15461:15467   */\n      dup3\n        /* \"#utility.yul\":15457:15471   */\n      add\n        /* \"#utility.yul\":15450:15508   */\n      mstore\n        /* \"#utility.yul\":15542:15552   */\n      0x686520706c616e74000000000000000000000000000000000000000000000000\n        /* \"#utility.yul\":15537:15539   */\n      0x20\n        /* \"#utility.yul\":15529:15535   */\n      dup3\n        /* \"#utility.yul\":15525:15540   */\n      add\n        /* \"#utility.yul\":15518:15553   */\n      mstore\n        /* \"#utility.yul\":15333:15560   */\n      pop\n      jump\t// out\n        /* \"#utility.yul\":15566:15932   */\n    tag_265:\n        /* \"#utility.yul\":15708:15711   */\n      0x00\n        /* \"#utility.yul\":15729:15796   */\n      tag_430\n        /* \"#utility.yul\":15793:15795   */\n      0x28\n        /* \"#utility.yul\":15788:15791   */\n      dup4\n        /* \"#utility.yul\":15729:15796   */\n      tag_252\n      jump\t// in\n    tag_430:\n        /* \"#utility.yul\":15722:15796   */\n      swap2\n      pop\n        /* \"#utility.yul\":15805:15898   */\n      tag_431\n        /* \"#utility.yul\":15894:15897   */\n      dup3\n        /* \"#utility.yul\":15805:15898   */\n      tag_264\n      jump\t// in\n    tag_431:\n        /* \"#utility.yul\":15923:15925   */\n      0x40\n        /* \"#utility.yul\":15918:15921   */\n      dup3\n        /* \"#utility.yul\":15914:15926   */\n      add\n        /* \"#utility.yul\":15907:15926   */\n      swap1\n      pop\n        /* \"#utility.yul\":15566:15932   */\n      swap2\n      swap1\n      pop\n      jump\t// out\n        /* \"#utility.yul\":15938:16357   */\n    tag_154:\n        /* \"#utility.yul\":16104:16108   */\n      0x00\n        /* \"#utility.yul\":16142:16144   */\n      0x20\n        /* \"#utility.yul\":16131:16140   */\n      dup3\n        /* \"#utility.yul\":16127:16145   */\n      add\n        /* \"#utility.yul\":16119:16145   */\n      swap1\n      pop\n        /* \"#utility.yul\":16191:16200   */\n      dup2\n        /* \"#utility.yul\":16185:16189   */\n      dup2\n        /* \"#utility.yul\":16181:16201   */\n      sub\n        /* \"#utility.yul\":16177:16178   */\n      0x00\n        /* \"#utility.yul\":16166:16175   */\n      dup4\n        /* \"#utility.yul\":16162:16179   */\n      add\n        /* \"#utility.yul\":16155:16202   */\n      mstore\n        /* \"#utility.yul\":16219:16350   */\n      tag_433\n        /* \"#utility.yul\":16345:16349   */\n      dup2\n        /* \"#utility.yul\":16219:16350   */\n      tag_265\n      jump\t// in\n    tag_433:\n        /* \"#utility.yul\":16211:16350   */\n      swap1\n      pop\n        /* \"#utility.yul\":15938:16357   */\n      swap2\n      swap1\n      pop\n      jump\t// out\n        /* \"#utility.yul\":16363:16538   */\n    tag_266:\n        /* \"#utility.yul\":16503:16530   */\n      0x43616e6e6f742077617465722061206465616420706c616e7400000000000000\n        /* \"#utility.yul\":16499:16500   */\n      0x00\n        /* \"#utility.yul\":16491:16497   */\n      dup3\n        /* \"#utility.yul\":16487:16501   */\n      add\n        /* \"#utility.yul\":16480:16531   */\n      mstore\n        /* \"#utility.yul\":16363:16538   */\n      pop\n      jump\t// out\n        /* \"#utility.yul\":16544:16910   */\n    tag_267:\n        /* \"#utility.yul\":16686:16689   */\n      0x00\n        /* \"#utility.yul\":16707:16774   */\n      tag_436\n        /* \"#utility.yul\":16771:16773   */\n      0x19\n        /* \"#utility.yul\":16766:16769   */\n      dup4\n        /* \"#utility.yul\":16707:16774   */\n      tag_252\n      jump\t// in\n    tag_436:\n        /* \"#utility.yul\":16700:16774   */\n      swap2\n      pop\n        /* \"#utility.yul\":16783:16876   */\n      tag_437\n        /* \"#utility.yul\":16872:16875   */\n      dup3\n        /* \"#utility.yul\":16783:16876   */\n      tag_266\n      jump\t// in\n    tag_437:\n        /* \"#utility.yul\":16901:16903   */\n      0x20\n        /* \"#utility.yul\":16896:16899   */\n      dup3\n        /* \"#utility.yul\":16892:16904   */\n      add\n        /* \"#utility.yul\":16885:16904   */\n      swap1\n      pop\n        /* \"#utility.yul\":16544:16910   */\n      swap2\n      swap1\n      pop\n      jump\t// out\n        /* \"#utility.yul\":16916:17335   */\n    tag_157:\n        /* \"#utility.yul\":17082:17086   */\n      0x00\n        /* \"#utility.yul\":17120:17122   */\n      0x20\n        /* \"#utility.yul\":17109:17118   */\n      dup3\n        /* \"#utility.yul\":17105:17123   */\n      add\n        /* \"#utility.yul\":17097:17123   */\n      swap1\n      pop\n        /* \"#utility.yul\":17169:17178   */\n      dup2\n        /* \"#utility.yul\":17163:17167   */\n      dup2\n        /* \"#utility.yul\":17159:17179   */\n      sub\n        /* \"#utility.yul\":17155:17156   */\n      0x00\n        /* \"#utility.yul\":17144:17153   */\n      dup4\n        /* \"#utility.yul\":17140:17157   */\n      add\n        /* \"#utility.yul\":17133:17180   */\n      mstore\n        /* \"#utility.yul\":17197:17328   */\n      tag_439\n        /* \"#utility.yul\":17323:17327   */\n      dup2\n        /* \"#utility.yul\":17197:17328   */\n      tag_267\n      jump\t// in\n    tag_439:\n        /* \"#utility.yul\":17189:17328   */\n      swap1\n      pop\n        /* \"#utility.yul\":16916:17335   */\n      swap2\n      swap1\n      pop\n      jump\t// out\n        /* \"#utility.yul\":17341:17428   */\n    tag_268:\n        /* \"#utility.yul\":17388:17395   */\n      0x00\n        /* \"#utility.yul\":17417:17422   */\n      dup2\n        /* \"#utility.yul\":17406:17422   */\n      swap1\n      pop\n        /* \"#utility.yul\":17341:17428   */\n      swap2\n      swap1\n      pop\n      jump\t// out\n        /* \"#utility.yul\":17434:17494   */\n    tag_269:\n        /* \"#utility.yul\":17462:17465   */\n      0x00\n        /* \"#utility.yul\":17483:17488   */\n      dup2\n        /* \"#utility.yul\":17476:17488   */\n      swap1\n      pop\n        /* \"#utility.yul\":17434:17494   */\n      swap2\n      swap1\n      pop\n      jump\t// out\n        /* \"#utility.yul\":17500:17658   */\n    tag_270:\n        /* \"#utility.yul\":17558:17567   */\n      0x00\n        /* \"#utility.yul\":17591:17652   */\n      tag_443\n        /* \"#utility.yul\":17607:17651   */\n      tag_444\n        /* \"#utility.yul\":17616:17650   */\n      tag_445\n        /* \"#utility.yul\":17644:17649   */\n      dup5\n        /* \"#utility.yul\":17616:17650   */\n      tag_268\n      jump\t// in\n    tag_445:\n        /* \"#utility.yul\":17607:17651   */\n      tag_269\n      jump\t// in\n    tag_444:\n        /* \"#utility.yul\":17591:17652   */\n      tag_246\n      jump\t// in\n    tag_443:\n        /* \"#utility.yul\":17578:17652   */\n      swap1\n      pop\n        /* \"#utility.yul\":17500:17658   */\n      swap2\n      swap1\n      pop\n      jump\t// out\n        /* \"#utility.yul\":17664:17811   */\n    tag_271:\n        /* \"#utility.yul\":17759:17804   */\n      tag_447\n        /* \"#utility.yul\":17798:17803   */\n      dup2\n        /* \"#utility.yul\":17759:17804   */\n      tag_270\n      jump\t// in\n    tag_447:\n        /* \"#utility.yul\":17754:17757   */\n      dup3\n        /* \"#utility.yul\":17747:17805   */\n      mstore\n        /* \"#utility.yul\":17664:17811   */\n      pop\n      pop\n      jump\t// out\n        /* \"#utility.yul\":17817:18055   */\n    tag_159:\n        /* \"#utility.yul\":17918:17922   */\n      0x00\n        /* \"#utility.yul\":17956:17958   */\n      0x20\n        /* \"#utility.yul\":17945:17954   */\n      dup3\n        /* \"#utility.yul\":17941:17959   */\n      add\n        /* \"#utility.yul\":17933:17959   */\n      swap1\n      pop\n        /* \"#utility.yul\":17969:18048   */\n      tag_449\n        /* \"#utility.yul\":18045:18046   */\n      0x00\n        /* \"#utility.yul\":18034:18043   */\n      dup4\n        /* \"#utility.yul\":18030:18047   */\n      add\n        /* \"#utility.yul\":18021:18027   */\n      dup5\n        /* \"#utility.yul\":17969:18048   */\n      tag_271\n      jump\t// in\n    tag_449:\n        /* \"#utility.yul\":17817:18055   */\n      swap3\n      swap2\n      pop\n      pop\n      jump\t// out\n        /* \"#utility.yul\":18061:18305   */\n    tag_174:\n        /* \"#utility.yul\":18165:18169   */\n      0x00\n        /* \"#utility.yul\":18203:18205   */\n      0x20\n        /* \"#utility.yul\":18192:18201   */\n      dup3\n        /* \"#utility.yul\":18188:18206   */\n      add\n        /* \"#utility.yul\":18180:18206   */\n      swap1\n      pop\n        /* \"#utility.yul\":18216:18298   */\n      tag_451\n        /* \"#utility.yul\":18295:18296   */\n      0x00\n        /* \"#utility.yul\":18284:18293   */\n      dup4\n        /* \"#utility.yul\":18280:18297   */\n      add\n        /* \"#utility.yul\":18271:18277   */\n      dup5\n        /* \"#utility.yul\":18216:18298   */\n      tag_241\n      jump\t// in\n    tag_451:\n        /* \"#utility.yul\":18061:18305   */\n      swap3\n      swap2\n      pop\n      pop\n      jump\t// out\n        /* \"#utility.yul\":18311:18487   */\n    tag_272:\n        /* \"#utility.yul\":18451:18479   */\n      0x4e6f7420746865206f776e6572206f662074686520706c616e74000000000000\n        /* \"#utility.yul\":18447:18448   */\n      0x00\n        /* \"#utility.yul\":18439:18445   */\n      dup3\n        /* \"#utility.yul\":18435:18449   */\n      add\n        /* \"#utility.yul\":18428:18480   */\n      mstore\n        /* \"#utility.yul\":18311:18487   */\n      pop\n      jump\t// out\n        /* \"#utility.yul\":18493:18859   */\n    tag_273:\n        /* \"#utility.yul\":18635:18638   */\n      0x00\n        /* \"#utility.yul\":18656:18723   */\n      tag_454\n        /* \"#utility.yul\":18720:18722   */\n      0x1a\n        /* \"#utility.yul\":18715:18718   */\n      dup4\n        /* \"#utility.yul\":18656:18723   */\n      tag_252\n      jump\t// in\n    tag_454:\n        /* \"#utility.yul\":18649:18723   */\n      swap2\n      pop\n        /* \"#utility.yul\":18732:18825   */\n      tag_455\n        /* \"#utility.yul\":18821:18824   */\n      dup3\n        /* \"#utility.yul\":18732:18825   */\n      tag_272\n      jump\t// in\n    tag_455:\n        /* \"#utility.yul\":18850:18852   */\n      0x20\n        /* \"#utility.yul\":18845:18848   */\n      dup3\n        /* \"#utility.yul\":18841:18853   */\n      add\n        /* \"#utility.yul\":18834:18853   */\n      swap1\n      pop\n        /* \"#utility.yul\":18493:18859   */\n      swap2\n      swap1\n      pop\n      jump\t// out\n        /* \"#utility.yul\":18865:19284   */\n    tag_194:\n        /* \"#utility.yul\":19031:19035   */\n      0x00\n        /* \"#utility.yul\":19069:19071   */\n      0x20\n        /* \"#utility.yul\":19058:19067   */\n      dup3\n        /* \"#utility.yul\":19054:19072   */\n      add\n        /* \"#utility.yul\":19046:19072   */\n      swap1\n      pop\n        /* \"#utility.yul\":19118:19127   */\n      dup2\n        /* \"#utility.yul\":19112:19116   */\n      dup2\n        /* \"#utility.yul\":19108:19128   */\n      sub\n        /* \"#utility.yul\":19104:19105   */\n      0x00\n        /* \"#utility.yul\":19093:19102   */\n      dup4\n        /* \"#utility.yul\":19089:19106   */\n      add\n        /* \"#utility.yul\":19082:19129   */\n      mstore\n        /* \"#utility.yul\":19146:19277   */\n      tag_457\n        /* \"#utility.yul\":19272:19276   */\n      dup2\n        /* \"#utility.yul\":19146:19277   */\n      tag_273\n      jump\t// in\n    tag_457:\n        /* \"#utility.yul\":19138:19277   */\n      swap1\n      pop\n        /* \"#utility.yul\":18865:19284   */\n      swap2\n      swap1\n      pop\n      jump\t// out\n        /* \"#utility.yul\":19290:19453   */\n    tag_274:\n        /* \"#utility.yul\":19430:19445   */\n      0x506c616e74206973206465616400000000000000000000000000000000000000\n        /* \"#utility.yul\":19426:19427   */\n      0x00\n        /* \"#utility.yul\":19418:19424   */\n      dup3\n        /* \"#utility.yul\":19414:19428   */\n      add\n        /* \"#utility.yul\":19407:19446   */\n      mstore\n        /* \"#utility.yul\":19290:19453   */\n      pop\n      jump\t// out\n        /* \"#utility.yul\":19459:19825   */\n    tag_275:\n        /* \"#utility.yul\":19601:19604   */\n      0x00\n        /* \"#utility.yul\":19622:19689   */\n      tag_460\n        /* \"#utility.yul\":19686:19688   */\n      0x0d\n        /* \"#utility.yul\":19681:19684   */\n      dup4\n        /* \"#utility.yul\":19622:19689   */\n      tag_252\n      jump\t// in\n    tag_460:\n        /* \"#utility.yul\":19615:19689   */\n      swap2\n      pop\n        /* \"#utility.yul\":19698:19791   */\n      tag_461\n        /* \"#utility.yul\":19787:19790   */\n      dup3\n        /* \"#utility.yul\":19698:19791   */\n      tag_274\n      jump\t// in\n    tag_461:\n        /* \"#utility.yul\":19816:19818   */\n      0x20\n        /* \"#utility.yul\":19811:19814   */\n      dup3\n        /* \"#utility.yul\":19807:19819   */\n      add\n        /* \"#utility.yul\":19800:19819   */\n      swap1\n      pop\n        /* \"#utility.yul\":19459:19825   */\n      swap2\n      swap1\n      pop\n      jump\t// out\n        /* \"#utility.yul\":19831:20250   */\n    tag_197:\n        /* \"#utility.yul\":19997:20001   */\n      0x00\n        /* \"#utility.yul\":20035:20037   */\n      0x20\n        /* \"#utility.yul\":20024:20033   */\n      dup3\n        /* \"#utility.yul\":20020:20038   */\n      add\n        /* \"#utility.yul\":20012:20038   */\n      swap1\n      pop\n        /* \"#utility.yul\":20084:20093   */\n      dup2\n        /* \"#utility.yul\":20078:20082   */\n      dup2\n        /* \"#utility.yul\":20074:20094   */\n      sub\n        /* \"#utility.yul\":20070:20071   */\n      0x00\n        /* \"#utility.yul\":20059:20068   */\n      dup4\n        /* \"#utility.yul\":20055:20072   */\n      add\n        /* \"#utility.yul\":20048:20095   */\n      mstore\n        /* \"#utility.yul\":20112:20243   */\n      tag_463\n        /* \"#utility.yul\":20238:20242   */\n      dup2\n        /* \"#utility.yul\":20112:20243   */\n      tag_275\n      jump\t// in\n    tag_463:\n        /* \"#utility.yul\":20104:20243   */\n      swap1\n      pop\n        /* \"#utility.yul\":19831:20250   */\n      swap2\n      swap1\n      pop\n      jump\t// out\n        /* \"#utility.yul\":20256:20436   */\n    tag_276:\n        /* \"#utility.yul\":20396:20428   */\n      0x506c616e74206973206e6f7420696e20626c6f6f6d696e672073746167650000\n        /* \"#utility.yul\":20392:20393   */\n      0x00\n        /* \"#utility.yul\":20384:20390   */\n      dup3\n        /* \"#utility.yul\":20380:20394   */\n      add\n        /* \"#utility.yul\":20373:20429   */\n      mstore\n        /* \"#utility.yul\":20256:20436   */\n      pop\n      jump\t// out\n        /* \"#utility.yul\":20442:20808   */\n    tag_277:\n        /* \"#utility.yul\":20584:20587   */\n      0x00\n        /* \"#utility.yul\":20605:20672   */\n      tag_466\n        /* \"#utility.yul\":20669:20671   */\n      0x1e\n        /* \"#utility.yul\":20664:20667   */\n      dup4\n        /* \"#utility.yul\":20605:20672   */\n      tag_252\n      jump\t// in\n    tag_466:\n        /* \"#utility.yul\":20598:20672   */\n      swap2\n      pop\n        /* \"#utility.yul\":20681:20774   */\n      tag_467\n        /* \"#utility.yul\":20770:20773   */\n      dup3\n        /* \"#utility.yul\":20681:20774   */\n      tag_276\n      jump\t// in\n    tag_467:\n        /* \"#utility.yul\":20799:20801   */\n      0x20\n        /* \"#utility.yul\":20794:20797   */\n      dup3\n        /* \"#utility.yul\":20790:20802   */\n      add\n        /* \"#utility.yul\":20783:20802   */\n      swap1\n      pop\n        /* \"#utility.yul\":20442:20808   */\n      swap2\n      swap1\n      pop\n      jump\t// out\n        /* \"#utility.yul\":20814:21233   */\n    tag_205:\n        /* \"#utility.yul\":20980:20984   */\n      0x00\n        /* \"#utility.yul\":21018:21020   */\n      0x20\n        /* \"#utility.yul\":21007:21016   */\n      dup3\n        /* \"#utility.yul\":21003:21021   */\n      add\n        /* \"#utility.yul\":20995:21021   */\n      swap1\n      pop\n        /* \"#utility.yul\":21067:21076   */\n      dup2\n        /* \"#utility.yul\":21061:21065   */\n      dup2\n        /* \"#utility.yul\":21057:21077   */\n      sub\n        /* \"#utility.yul\":21053:21054   */\n      0x00\n        /* \"#utility.yul\":21042:21051   */\n      dup4\n        /* \"#utility.yul\":21038:21055   */\n      add\n        /* \"#utility.yul\":21031:21078   */\n      mstore\n        /* \"#utility.yul\":21095:21226   */\n      tag_469\n        /* \"#utility.yul\":21221:21225   */\n      dup2\n        /* \"#utility.yul\":21095:21226   */\n      tag_277\n      jump\t// in\n    tag_469:\n        /* \"#utility.yul\":21087:21226   */\n      swap1\n      pop\n        /* \"#utility.yul\":20814:21233   */\n      swap2\n      swap1\n      pop\n      jump\t// out\n\n    auxdata: 0xa2646970667358221220ca345fbf2c58ac653f5812edd4b235a7469b0ed28c87883aee703e707e8274f264736f6c634300081e0033\n}\n",
				"bytecode": {
					"linkReferences": {},
					"object": "6080604052348015600e575f5ffd5b503360095f6101000a81548173ffffffffffffffffffffffffffffffffffffffff021916908373ffffffffffffffffffffffffffffffffffffffff160217905550611c238061005c5f395ff3fe60806040526004361061010c575f3560e01c80638da5cb5b11610094578063bacb5ebd11610063578063bacb5ebd1461036d578063cfc9a5f814610397578063ddd42596146103c1578063e38f8448146103e9578063ed0b1f5f1461041157610113565b80638da5cb5b146102ae5780638dd2361c146102d85780639886bcfa1461031b5780639c4717491461034357610113565b806374119a38116100db57806374119a38146101c4578063754e150d146101e25780637ed4c5be1461021e578063891c0785146102485780638aee578b1461027257610113565b806330cec0eb146101175780633a8fdff0146101535780633ccfd60b1461018457806351f9efde1461019a57610113565b3661011357005b5f5ffd5b348015610122575f5ffd5b5061013d6004803603810190610138919061126b565b61044d565b60405161014a9190611356565b60405180910390f35b34801561015e575f5ffd5b506101676104e0565b60405161017b989796959493929190611421565b60405180910390f35b34801561018f575f5ffd5b50610198610559565b005b3480156101a5575f5ffd5b506101ae6106b4565b6040516101bb919061149d565b60405180910390f35b6101cc6106b9565b6040516101d9919061149d565b60405180910390f35b3480156101ed575f5ffd5b50610208600480360381019061020391906114e0565b610847565b604051610215919061149d565b60405180910390f35b348015610229575f5ffd5b506102326108fe565b60405161023f919061149d565b60405180910390f35b348015610253575f5ffd5b5061025c610903565b604051610269919061149d565b60405180910390f35b34801561027d575f5ffd5b506102986004803603810190610293919061150b565b61090e565b6040516102a5919061149d565b60405180910390f35b3480156102b9575f5ffd5b506102c2610939565b6040516102cf9190611549565b60405180910390f35b3480156102e3575f5ffd5b506102fe60048036038101906102f991906114e0565b61095e565b604051610312989796959493929190611421565b60405180910390f35b348015610326575f5ffd5b50610341600480360381019061033c91906114e0565b6109e7565b005b34801561034e575f5ffd5b50610357610b87565b604051610364919061149d565b60405180910390f35b348015610378575f5ffd5b50610381610b8d565b60405161038e919061157d565b60405180910390f35b3480156103a2575f5ffd5b506103ab610b92565b6040516103b8919061149d565b60405180910390f35b3480156103cc575f5ffd5b506103e760048036038101906103e291906114e0565b610b9d565b005b3480156103f4575f5ffd5b5061040f600480360381019061040a91906114e0565b610d9d565b005b34801561041c575f5ffd5b50610437600480360381019061043291906114e0565b610fd9565b6040516104449190611663565b60405180910390f35b606060075f8373ffffffffffffffffffffffffffffffffffffffff1673ffffffffffffffffffffffffffffffffffffffff1681526020019081526020015f208054806020026020016040519081016040528092919081815260200182805480156104d457602002820191905f5260205f20905b8154815260200190600101908083116104c0575b50505050509050919050565b5f805f015490806001015f9054906101000a900473ffffffffffffffffffffffffffffffffffffffff16908060010160149054906101000a900460ff1690806002015490806003015490806004015490806005015f9054906101000a900460ff16908060050160019054906101000a900460ff16905088565b60095f9054906101000a900473ffffffffffffffffffffffffffffffffffffffff1673ffffffffffffffffffffffffffffffffffffffff163373ffffffffffffffffffffffffffffffffffffffff16146105e8576040517f08c379a00000000000000000000000000000000000000000000000000000000081526004016105df906116d7565b60405180910390fd5b5f60095f9054906101000a900473ffffffffffffffffffffffffffffffffffffffff1673ffffffffffffffffffffffffffffffffffffffff164760405161062e90611722565b5f6040518083038185875af1925050503d805f8114610668576040519150601f19603f3d011682016040523d82523d5f602084013e61066d565b606091505b50509050806106b1576040517f08c379a00000000000000000000000000000000000000000000000000000000081526004016106a890611780565b60405180910390fd5b50565b603c81565b5f66038d7ea4c680003410156106cd575f5ffd5b60085f8154809291906106df906117cb565b919050555060405180610100016040528060085481526020013373ffffffffffffffffffffffffffffffffffffffff1681526020015f600381111561072757610726611394565b5b8152602001428152602001428152602001606481526020016001151581526020015f151581525060065f60085481526020019081526020015f205f820151815f01556020820151816001015f6101000a81548173ffffffffffffffffffffffffffffffffffffffff021916908373ffffffffffffffffffffffffffffffffffffffff16021790555060408201518160010160146101000a81548160ff021916908360038111156107da576107d9611394565b5b0217905550606082015181600201556080820151816003015560a0820151816004015560c0820151816005015f6101000a81548160ff02191690831515021790555060e08201518160050160016101000a81548160ff021916908315150217905550905050600854905090565b5f5f60065f8481526020019081526020015f209050806005015f9054906101000a900460ff16158061088757508060050160019054906101000a900460ff165b15610895575f9150506108f9565b5f8160030154426108a69190611812565b90505f601e826108b69190611872565b90505f600260ff16826108c991906118a2565b9050836004015481106108e2575f9450505050506108f9565b8084600401546108f29190611812565b9450505050505b919050565b601e81565b660aa87bee53800081565b6007602052815f5260405f208181548110610927575f80fd5b905f5260205f20015f91509150505481565b60095f9054906101000a900473ffffffffffffffffffffffffffffffffffffffff1681565b6006602052805f5260405f205f91509050805f015490806001015f9054906101000a900473ffffffffffffffffffffffffffffffffffffffff16908060010160149054906101000a900460ff1690806002015490806003015490806004015490806005015f9054906101000a900460ff16908060050160019054906101000a900460ff16905088565b5f60065f8381526020019081526020015f209050806005015f9054906101000a900460ff16610a4b576040517f08c379a0000000000000000000000000000000000000000000000000000000008152600401610a429061192d565b60405180910390fd5b806001015f9054906101000a900473ffffffffffffffffffffffffffffffffffffffff1673ffffffffffffffffffffffffffffffffffffffff163373ffffffffffffffffffffffffffffffffffffffff1614610adc576040517f08c379a0000000000000000000000000000000000000000000000000000000008152600401610ad3906119bb565b60405180910390fd5b8060050160019054906101000a900460ff1615610b2e576040517f08c379a0000000000000000000000000000000000000000000000000000000008152600401610b2590611a23565b60405180910390fd5b60648160040181905550428160030181905550817fd4b742b9ba48fffa1f14267075a7793851770764117c423fd0a6550dfc8cb5746064604051610b729190611a83565b60405180910390a2610b8382610b9d565b5050565b60085481565b600281565b66038d7ea4c6800081565b5f60065f8381526020019081526020015f209050806005015f9054906101000a900460ff16610c01576040517f08c379a0000000000000000000000000000000000000000000000000000000008152600401610bf89061192d565b60405180910390fd5b610c0a82611108565b8060050160019054906101000a900460ff1615610c275750610d9a565b5f816002015442610c389190611812565b90505f8260010160149054906101000a900460ff1690505f6003811115610c6257610c61611394565b5b816003811115610c7557610c74611394565b5b03610cbc5760019050837f338b8976706f9da67298dddfa1ea4ff7d99cce68b9ca39c4f348994f8e2124a86001604051610caf9190611a9c565b60405180910390a2610d96565b60016003811115610cd057610ccf611394565b5b816003811115610ce357610ce2611394565b5b03610d2a5760029050837f338b8976706f9da67298dddfa1ea4ff7d99cce68b9ca39c4f348994f8e2124a86002604051610d1d9190611a9c565b60405180910390a2610d95565b60026003811115610d3e57610d3d611394565b5b816003811115610d5157610d50611394565b5b03610d945760039050837f338b8976706f9da67298dddfa1ea4ff7d99cce68b9ca39c4f348994f8e2124a86003604051610d8b9190611a9c565b60405180910390a25b5b5b5050505b50565b5f60065f8381526020019081526020015f209050806005015f9054906101000a900460ff16610e01576040517f08c379a0000000000000000000000000000000000000000000000000000000008152600401610df89061192d565b60405180910390fd5b806001015f9054906101000a900473ffffffffffffffffffffffffffffffffffffffff1673ffffffffffffffffffffffffffffffffffffffff163373ffffffffffffffffffffffffffffffffffffffff1614610e92576040517f08c379a0000000000000000000000000000000000000000000000000000000008152600401610e8990611aff565b60405180910390fd5b8060050160019054906101000a900460ff1615610ee4576040517f08c379a0000000000000000000000000000000000000000000000000000000008152600401610edb90611b67565b60405180910390fd5b610eed82610b9d565b600380811115610f0057610eff611394565b5b8160010160149054906101000a900460ff166003811115610f2457610f23611394565b5b14610f64576040517f08c379a0000000000000000000000000000000000000000000000000000000008152600401610f5b90611bcf565b60405180910390fd5b5f816005015f6101000a81548160ff0219169083151502179055503373ffffffffffffffffffffffffffffffffffffffff16827f79f2138ea100070ff95b59c265da7aa3c7a0f61595fe1bb2f5fda2762f398847660aa87bee538000604051610fcd919061149d565b60405180910390a35050565b610fe16111a4565b5f60065f8481526020019081526020015f20604051806101000160405290815f8201548152602001600182015f9054906101000a900473ffffffffffffffffffffffffffffffffffffffff1673ffffffffffffffffffffffffffffffffffffffff1673ffffffffffffffffffffffffffffffffffffffff1681526020016001820160149054906101000a900460ff16600381111561108257611081611394565b5b600381111561109457611093611394565b5b8152602001600282015481526020016003820154815260200160048201548152602001600582015f9054906101000a900460ff161515151581526020016005820160019054906101000a900460ff16151515158152505090506110f683610847565b8160a001818152505080915050919050565b5f60065f8381526020019081526020015f2090505f61112683610847565b90508082600401819055505f8114801561114f57508160050160019054906101000a900460ff16155b1561119f5760018260050160016101000a81548160ff021916908315150217905550827fcc296a21951f3e57f21afb08547d835a0a9f0f06cc2867009cbe0cae44d36be960405160405180910390a25b505050565b6040518061010001604052805f81526020015f73ffffffffffffffffffffffffffffffffffffffff1681526020015f60038111156111e5576111e4611394565b5b81526020015f81526020015f81526020015f81526020015f151581526020015f151581525090565b5f5ffd5b5f73ffffffffffffffffffffffffffffffffffffffff82169050919050565b5f61123a82611211565b9050919050565b61124a81611230565b8114611254575f5ffd5b50565b5f8135905061126581611241565b92915050565b5f602082840312156112805761127f61120d565b5b5f61128d84828501611257565b91505092915050565b5f81519050919050565b5f82825260208201905092915050565b5f819050602082019050919050565b5f819050919050565b6112d1816112bf565b82525050565b5f6112e283836112c8565b60208301905092915050565b5f602082019050919050565b5f61130482611296565b61130e81856112a0565b9350611319836112b0565b805f5b8381101561134957815161133088826112d7565b975061133b836112ee565b92505060018101905061131c565b5085935050505092915050565b5f6020820190508181035f83015261136e81846112fa565b905092915050565b61137f816112bf565b82525050565b61138e81611230565b82525050565b7f4e487b71000000000000000000000000000000000000000000000000000000005f52602160045260245ffd5b600481106113d2576113d1611394565b5b50565b5f8190506113e2826113c1565b919050565b5f6113f1826113d5565b9050919050565b611401816113e7565b82525050565b5f8115159050919050565b61141b81611407565b82525050565b5f610100820190506114355f83018b611376565b611442602083018a611385565b61144f60408301896113f8565b61145c6060830188611376565b6114696080830187611376565b61147660a0830186611376565b61148360c0830185611412565b61149060e0830184611412565b9998505050505050505050565b5f6020820190506114b05f830184611376565b92915050565b6114bf816112bf565b81146114c9575f5ffd5b50565b5f813590506114da816114b6565b92915050565b5f602082840312156114f5576114f461120d565b5b5f611502848285016114cc565b91505092915050565b5f5f604083850312156115215761152061120d565b5b5f61152e85828601611257565b925050602061153f858286016114cc565b9150509250929050565b5f60208201905061155c5f830184611385565b92915050565b5f60ff82169050919050565b61157781611562565b82525050565b5f6020820190506115905f83018461156e565b92915050565b61159f81611230565b82525050565b6115ae816113e7565b82525050565b6115bd81611407565b82525050565b61010082015f8201516115d85f8501826112c8565b5060208201516115eb6020850182611596565b5060408201516115fe60408501826115a5565b50606082015161161160608501826112c8565b50608082015161162460808501826112c8565b5060a082015161163760a08501826112c8565b5060c082015161164a60c08501826115b4565b5060e082015161165d60e08501826115b4565b50505050565b5f610100820190506116775f8301846115c3565b92915050565b5f82825260208201905092915050565b7f42756b616e206f776e65720000000000000000000000000000000000000000005f82015250565b5f6116c1600b8361167d565b91506116cc8261168d565b602082019050919050565b5f6020820190508181035f8301526116ee816116b5565b9050919050565b5f81905092915050565b50565b5f61170d5f836116f5565b9150611718826116ff565b5f82019050919050565b5f61172c82611702565b9150819050919050565b7f5472616e7366657220676167616c0000000000000000000000000000000000005f82015250565b5f61176a600e8361167d565b915061177582611736565b602082019050919050565b5f6020820190508181035f8301526117978161175e565b9050919050565b7f4e487b71000000000000000000000000000000000000000000000000000000005f52601160045260245ffd5b5f6117d5826112bf565b91507fffffffffffffffffffffffffffffffffffffffffffffffffffffffffffffffff82036118075761180661179e565b5b600182019050919050565b5f61181c826112bf565b9150611827836112bf565b925082820390508181111561183f5761183e61179e565b5b92915050565b7f4e487b71000000000000000000000000000000000000000000000000000000005f52601260045260245ffd5b5f61187c826112bf565b9150611887836112bf565b92508261189757611896611845565b5b828204905092915050565b5f6118ac826112bf565b91506118b7836112bf565b92508282026118c5816112bf565b915082820484148315176118dc576118db61179e565b5b5092915050565b7f506c616e7420646f6573206e6f742065786973740000000000000000000000005f82015250565b5f61191760148361167d565b9150611922826118e3565b602082019050919050565b5f6020820190508181035f8301526119448161190b565b9050919050565b7f4f6e6c792074686520706c616e74206f776e65722063616e20776174657220745f8201527f686520706c616e74000000000000000000000000000000000000000000000000602082015250565b5f6119a560288361167d565b91506119b08261194b565b604082019050919050565b5f6020820190508181035f8301526119d281611999565b9050919050565b7f43616e6e6f742077617465722061206465616420706c616e74000000000000005f82015250565b5f611a0d60198361167d565b9150611a18826119d9565b602082019050919050565b5f6020820190508181035f830152611a3a81611a01565b9050919050565b5f819050919050565b5f819050919050565b5f611a6d611a68611a6384611a41565b611a4a565b611562565b9050919050565b611a7d81611a53565b82525050565b5f602082019050611a965f830184611a74565b92915050565b5f602082019050611aaf5f8301846113f8565b92915050565b7f4e6f7420746865206f776e6572206f662074686520706c616e740000000000005f82015250565b5f611ae9601a8361167d565b9150611af482611ab5565b602082019050919050565b5f6020820190508181035f830152611b1681611add565b9050919050565b7f506c616e742069732064656164000000000000000000000000000000000000005f82015250565b5f611b51600d8361167d565b9150611b5c82611b1d565b602082019050919050565b5f6020820190508181035f830152611b7e81611b45565b9050919050565b7f506c616e74206973206e6f7420696e20626c6f6f6d696e6720737461676500005f82015250565b5f611bb9601e8361167d565b9150611bc482611b85565b602082019050919050565b5f6020820190508181035f830152611be681611bad565b905091905056fea2646970667358221220ca345fbf2c58ac653f5812edd4b235a7469b0ed28c87883aee703e707e8274f264736f6c634300081e0033",
					"opcodes": "PUSH1 0x80 PUSH1 0x40 MSTORE CALLVALUE DUP1 ISZERO PUSH1 0xE JUMPI PUSH0 PUSH0 REVERT JUMPDEST POP CALLER PUSH1 0x9 PUSH0 PUSH2 0x100 EXP DUP2 SLOAD DUP2 PUSH20 0xFFFFFFFFFFFFFFFFFFFFFFFFFFFFFFFFFFFFFFFF MUL NOT AND SWAP1 DUP4 PUSH20 0xFFFFFFFFFFFFFFFFFFFFFFFFFFFFFFFFFFFFFFFF AND MUL OR SWAP1 SSTORE POP PUSH2 0x1C23 DUP1 PUSH2 0x5C PUSH0 CODECOPY PUSH0 RETURN INVALID PUSH1 0x80 PUSH1 0x40 MSTORE PUSH1 0x4 CALLDATASIZE LT PUSH2 0x10C JUMPI PUSH0 CALLDATALOAD PUSH1 0xE0 SHR DUP1 PUSH4 0x8DA5CB5B GT PUSH2 0x94 JUMPI DUP1 PUSH4 0xBACB5EBD GT PUSH2 0x63 JUMPI DUP1 PUSH4 0xBACB5EBD EQ PUSH2 0x36D JUMPI DUP1 PUSH4 0xCFC9A5F8 EQ PUSH2 0x397 JUMPI DUP1 PUSH4 0xDDD42596 EQ PUSH2 0x3C1 JUMPI DUP1 PUSH4 0xE38F8448 EQ PUSH2 0x3E9 JUMPI DUP1 PUSH4 0xED0B1F5F EQ PUSH2 0x411 JUMPI PUSH2 0x113 JUMP JUMPDEST DUP1 PUSH4 0x8DA5CB5B EQ PUSH2 0x2AE JUMPI DUP1 PUSH4 0x8DD2361C EQ PUSH2 0x2D8 JUMPI DUP1 PUSH4 0x9886BCFA EQ PUSH2 0x31B JUMPI DUP1 PUSH4 0x9C471749 EQ PUSH2 0x343 JUMPI PUSH2 0x113 JUMP JUMPDEST DUP1 PUSH4 0x74119A38 GT PUSH2 0xDB JUMPI DUP1 PUSH4 0x74119A38 EQ PUSH2 0x1C4 JUMPI DUP1 PUSH4 0x754E150D EQ PUSH2 0x1E2 JUMPI DUP1 PUSH4 0x7ED4C5BE EQ PUSH2 0x21E JUMPI DUP1 PUSH4 0x891C0785 EQ PUSH2 0x248 JUMPI DUP1 PUSH4 0x8AEE578B EQ PUSH2 0x272 JUMPI PUSH2 0x113 JUMP JUMPDEST DUP1 PUSH4 0x30CEC0EB EQ PUSH2 0x117 JUMPI DUP1 PUSH4 0x3A8FDFF0 EQ PUSH2 0x153 JUMPI DUP1 PUSH4 0x3CCFD60B EQ PUSH2 0x184 JUMPI DUP1 PUSH4 0x51F9EFDE EQ PUSH2 0x19A JUMPI PUSH2 0x113 JUMP JUMPDEST CALLDATASIZE PUSH2 0x113 JUMPI STOP JUMPDEST PUSH0 PUSH0 REVERT JUMPDEST CALLVALUE DUP1 ISZERO PUSH2 0x122 JUMPI PUSH0 PUSH0 REVERT JUMPDEST POP PUSH2 0x13D PUSH1 0x4 DUP1 CALLDATASIZE SUB DUP2 ADD SWAP1 PUSH2 0x138 SWAP2 SWAP1 PUSH2 0x126B JUMP JUMPDEST PUSH2 0x44D JUMP JUMPDEST PUSH1 0x40 MLOAD PUSH2 0x14A SWAP2 SWAP1 PUSH2 0x1356 JUMP JUMPDEST PUSH1 0x40 MLOAD DUP1 SWAP2 SUB SWAP1 RETURN JUMPDEST CALLVALUE DUP1 ISZERO PUSH2 0x15E JUMPI PUSH0 PUSH0 REVERT JUMPDEST POP PUSH2 0x167 PUSH2 0x4E0 JUMP JUMPDEST PUSH1 0x40 MLOAD PUSH2 0x17B SWAP9 SWAP8 SWAP7 SWAP6 SWAP5 SWAP4 SWAP3 SWAP2 SWAP1 PUSH2 0x1421 JUMP JUMPDEST PUSH1 0x40 MLOAD DUP1 SWAP2 SUB SWAP1 RETURN JUMPDEST CALLVALUE DUP1 ISZERO PUSH2 0x18F JUMPI PUSH0 PUSH0 REVERT JUMPDEST POP PUSH2 0x198 PUSH2 0x559 JUMP JUMPDEST STOP JUMPDEST CALLVALUE DUP1 ISZERO PUSH2 0x1A5 JUMPI PUSH0 PUSH0 REVERT JUMPDEST POP PUSH2 0x1AE PUSH2 0x6B4 JUMP JUMPDEST PUSH1 0x40 MLOAD PUSH2 0x1BB SWAP2 SWAP1 PUSH2 0x149D JUMP JUMPDEST PUSH1 0x40 MLOAD DUP1 SWAP2 SUB SWAP1 RETURN JUMPDEST PUSH2 0x1CC PUSH2 0x6B9 JUMP JUMPDEST PUSH1 0x40 MLOAD PUSH2 0x1D9 SWAP2 SWAP1 PUSH2 0x149D JUMP JUMPDEST PUSH1 0x40 MLOAD DUP1 SWAP2 SUB SWAP1 RETURN JUMPDEST CALLVALUE DUP1 ISZERO PUSH2 0x1ED JUMPI PUSH0 PUSH0 REVERT JUMPDEST POP PUSH2 0x208 PUSH1 0x4 DUP1 CALLDATASIZE SUB DUP2 ADD SWAP1 PUSH2 0x203 SWAP2 SWAP1 PUSH2 0x14E0 JUMP JUMPDEST PUSH2 0x847 JUMP JUMPDEST PUSH1 0x40 MLOAD PUSH2 0x215 SWAP2 SWAP1 PUSH2 0x149D JUMP JUMPDEST PUSH1 0x40 MLOAD DUP1 SWAP2 SUB SWAP1 RETURN JUMPDEST CALLVALUE DUP1 ISZERO PUSH2 0x229 JUMPI PUSH0 PUSH0 REVERT JUMPDEST POP PUSH2 0x232 PUSH2 0x8FE JUMP JUMPDEST PUSH1 0x40 MLOAD PUSH2 0x23F SWAP2 SWAP1 PUSH2 0x149D JUMP JUMPDEST PUSH1 0x40 MLOAD DUP1 SWAP2 SUB SWAP1 RETURN JUMPDEST CALLVALUE DUP1 ISZERO PUSH2 0x253 JUMPI PUSH0 PUSH0 REVERT JUMPDEST POP PUSH2 0x25C PUSH2 0x903 JUMP JUMPDEST PUSH1 0x40 MLOAD PUSH2 0x269 SWAP2 SWAP1 PUSH2 0x149D JUMP JUMPDEST PUSH1 0x40 MLOAD DUP1 SWAP2 SUB SWAP1 RETURN JUMPDEST CALLVALUE DUP1 ISZERO PUSH2 0x27D JUMPI PUSH0 PUSH0 REVERT JUMPDEST POP PUSH2 0x298 PUSH1 0x4 DUP1 CALLDATASIZE SUB DUP2 ADD SWAP1 PUSH2 0x293 SWAP2 SWAP1 PUSH2 0x150B JUMP JUMPDEST PUSH2 0x90E JUMP JUMPDEST PUSH1 0x40 MLOAD PUSH2 0x2A5 SWAP2 SWAP1 PUSH2 0x149D JUMP JUMPDEST PUSH1 0x40 MLOAD DUP1 SWAP2 SUB SWAP1 RETURN JUMPDEST CALLVALUE DUP1 ISZERO PUSH2 0x2B9 JUMPI PUSH0 PUSH0 REVERT JUMPDEST POP PUSH2 0x2C2 PUSH2 0x939 JUMP JUMPDEST PUSH1 0x40 MLOAD PUSH2 0x2CF SWAP2 SWAP1 PUSH2 0x1549 JUMP JUMPDEST PUSH1 0x40 MLOAD DUP1 SWAP2 SUB SWAP1 RETURN JUMPDEST CALLVALUE DUP1 ISZERO PUSH2 0x2E3 JUMPI PUSH0 PUSH0 REVERT JUMPDEST POP PUSH2 0x2FE PUSH1 0x4 DUP1 CALLDATASIZE SUB DUP2 ADD SWAP1 PUSH2 0x2F9 SWAP2 SWAP1 PUSH2 0x14E0 JUMP JUMPDEST PUSH2 0x95E JUMP JUMPDEST PUSH1 0x40 MLOAD PUSH2 0x312 SWAP9 SWAP8 SWAP7 SWAP6 SWAP5 SWAP4 SWAP3 SWAP2 SWAP1 PUSH2 0x1421 JUMP JUMPDEST PUSH1 0x40 MLOAD DUP1 SWAP2 SUB SWAP1 RETURN JUMPDEST CALLVALUE DUP1 ISZERO PUSH2 0x326 JUMPI PUSH0 PUSH0 REVERT JUMPDEST POP PUSH2 0x341 PUSH1 0x4 DUP1 CALLDATASIZE SUB DUP2 ADD SWAP1 PUSH2 0x33C SWAP2 SWAP1 PUSH2 0x14E0 JUMP JUMPDEST PUSH2 0x9E7 JUMP JUMPDEST STOP JUMPDEST CALLVALUE DUP1 ISZERO PUSH2 0x34E JUMPI PUSH0 PUSH0 REVERT JUMPDEST POP PUSH2 0x357 PUSH2 0xB87 JUMP JUMPDEST PUSH1 0x40 MLOAD PUSH2 0x364 SWAP2 SWAP1 PUSH2 0x149D JUMP JUMPDEST PUSH1 0x40 MLOAD DUP1 SWAP2 SUB SWAP1 RETURN JUMPDEST CALLVALUE DUP1 ISZERO PUSH2 0x378 JUMPI PUSH0 PUSH0 REVERT JUMPDEST POP PUSH2 0x381 PUSH2 0xB8D JUMP JUMPDEST PUSH1 0x40 MLOAD PUSH2 0x38E SWAP2 SWAP1 PUSH2 0x157D JUMP JUMPDEST PUSH1 0x40 MLOAD DUP1 SWAP2 SUB SWAP1 RETURN JUMPDEST CALLVALUE DUP1 ISZERO PUSH2 0x3A2 JUMPI PUSH0 PUSH0 REVERT JUMPDEST POP PUSH2 0x3AB PUSH2 0xB92 JUMP JUMPDEST PUSH1 0x40 MLOAD PUSH2 0x3B8 SWAP2 SWAP1 PUSH2 0x149D JUMP JUMPDEST PUSH1 0x40 MLOAD DUP1 SWAP2 SUB SWAP1 RETURN JUMPDEST CALLVALUE DUP1 ISZERO PUSH2 0x3CC JUMPI PUSH0 PUSH0 REVERT JUMPDEST POP PUSH2 0x3E7 PUSH1 0x4 DUP1 CALLDATASIZE SUB DUP2 ADD SWAP1 PUSH2 0x3E2 SWAP2 SWAP1 PUSH2 0x14E0 JUMP JUMPDEST PUSH2 0xB9D JUMP JUMPDEST STOP JUMPDEST CALLVALUE DUP1 ISZERO PUSH2 0x3F4 JUMPI PUSH0 PUSH0 REVERT JUMPDEST POP PUSH2 0x40F PUSH1 0x4 DUP1 CALLDATASIZE SUB DUP2 ADD SWAP1 PUSH2 0x40A SWAP2 SWAP1 PUSH2 0x14E0 JUMP JUMPDEST PUSH2 0xD9D JUMP JUMPDEST STOP JUMPDEST CALLVALUE DUP1 ISZERO PUSH2 0x41C JUMPI PUSH0 PUSH0 REVERT JUMPDEST POP PUSH2 0x437 PUSH1 0x4 DUP1 CALLDATASIZE SUB DUP2 ADD SWAP1 PUSH2 0x432 SWAP2 SWAP1 PUSH2 0x14E0 JUMP JUMPDEST PUSH2 0xFD9 JUMP JUMPDEST PUSH1 0x40 MLOAD PUSH2 0x444 SWAP2 SWAP1 PUSH2 0x1663 JUMP JUMPDEST PUSH1 0x40 MLOAD DUP1 SWAP2 SUB SWAP1 RETURN JUMPDEST PUSH1 0x60 PUSH1 0x7 PUSH0 DUP4 PUSH20 0xFFFFFFFFFFFFFFFFFFFFFFFFFFFFFFFFFFFFFFFF AND PUSH20 0xFFFFFFFFFFFFFFFFFFFFFFFFFFFFFFFFFFFFFFFF AND DUP2 MSTORE PUSH1 0x20 ADD SWAP1 DUP2 MSTORE PUSH1 0x20 ADD PUSH0 KECCAK256 DUP1 SLOAD DUP1 PUSH1 0x20 MUL PUSH1 0x20 ADD PUSH1 0x40 MLOAD SWAP1 DUP2 ADD PUSH1 0x40 MSTORE DUP1 SWAP3 SWAP2 SWAP1 DUP2 DUP2 MSTORE PUSH1 0x20 ADD DUP3 DUP1 SLOAD DUP1 ISZERO PUSH2 0x4D4 JUMPI PUSH1 0x20 MUL DUP3 ADD SWAP2 SWAP1 PUSH0 MSTORE PUSH1 0x20 PUSH0 KECCAK256 SWAP1 JUMPDEST DUP2 SLOAD DUP2 MSTORE PUSH1 0x20 ADD SWAP1 PUSH1 0x1 ADD SWAP1 DUP1 DUP4 GT PUSH2 0x4C0 JUMPI JUMPDEST POP POP POP POP POP SWAP1 POP SWAP2 SWAP1 POP JUMP JUMPDEST PUSH0 DUP1 PUSH0 ADD SLOAD SWAP1 DUP1 PUSH1 0x1 ADD PUSH0 SWAP1 SLOAD SWAP1 PUSH2 0x100 EXP SWAP1 DIV PUSH20 0xFFFFFFFFFFFFFFFFFFFFFFFFFFFFFFFFFFFFFFFF AND SWAP1 DUP1 PUSH1 0x1 ADD PUSH1 0x14 SWAP1 SLOAD SWAP1 PUSH2 0x100 EXP SWAP1 DIV PUSH1 0xFF AND SWAP1 DUP1 PUSH1 0x2 ADD SLOAD SWAP1 DUP1 PUSH1 0x3 ADD SLOAD SWAP1 DUP1 PUSH1 0x4 ADD SLOAD SWAP1 DUP1 PUSH1 0x5 ADD PUSH0 SWAP1 SLOAD SWAP1 PUSH2 0x100 EXP SWAP1 DIV PUSH1 0xFF AND SWAP1 DUP1 PUSH1 0x5 ADD PUSH1 0x1 SWAP1 SLOAD SWAP1 PUSH2 0x100 EXP SWAP1 DIV PUSH1 0xFF AND SWAP1 POP DUP9 JUMP JUMPDEST PUSH1 0x9 PUSH0 SWAP1 SLOAD SWAP1 PUSH2 0x100 EXP SWAP1 DIV PUSH20 0xFFFFFFFFFFFFFFFFFFFFFFFFFFFFFFFFFFFFFFFF AND PUSH20 0xFFFFFFFFFFFFFFFFFFFFFFFFFFFFFFFFFFFFFFFF AND CALLER PUSH20 0xFFFFFFFFFFFFFFFFFFFFFFFFFFFFFFFFFFFFFFFF AND EQ PUSH2 0x5E8 JUMPI PUSH1 0x40 MLOAD PUSH32 0x8C379A000000000000000000000000000000000000000000000000000000000 DUP2 MSTORE PUSH1 0x4 ADD PUSH2 0x5DF SWAP1 PUSH2 0x16D7 JUMP JUMPDEST PUSH1 0x40 MLOAD DUP1 SWAP2 SUB SWAP1 REVERT JUMPDEST PUSH0 PUSH1 0x9 PUSH0 SWAP1 SLOAD SWAP1 PUSH2 0x100 EXP SWAP1 DIV PUSH20 0xFFFFFFFFFFFFFFFFFFFFFFFFFFFFFFFFFFFFFFFF AND PUSH20 0xFFFFFFFFFFFFFFFFFFFFFFFFFFFFFFFFFFFFFFFF AND SELFBALANCE PUSH1 0x40 MLOAD PUSH2 0x62E SWAP1 PUSH2 0x1722 JUMP JUMPDEST PUSH0 PUSH1 0x40 MLOAD DUP1 DUP4 SUB DUP2 DUP6 DUP8 GAS CALL SWAP3 POP POP POP RETURNDATASIZE DUP1 PUSH0 DUP2 EQ PUSH2 0x668 JUMPI PUSH1 0x40 MLOAD SWAP2 POP PUSH1 0x1F NOT PUSH1 0x3F RETURNDATASIZE ADD AND DUP3 ADD PUSH1 0x40 MSTORE RETURNDATASIZE DUP3 MSTORE RETURNDATASIZE PUSH0 PUSH1 0x20 DUP5 ADD RETURNDATACOPY PUSH2 0x66D JUMP JUMPDEST PUSH1 0x60 SWAP2 POP JUMPDEST POP POP SWAP1 POP DUP1 PUSH2 0x6B1 JUMPI PUSH1 0x40 MLOAD PUSH32 0x8C379A000000000000000000000000000000000000000000000000000000000 DUP2 MSTORE PUSH1 0x4 ADD PUSH2 0x6A8 SWAP1 PUSH2 0x1780 JUMP JUMPDEST PUSH1 0x40 MLOAD DUP1 SWAP2 SUB SWAP1 REVERT JUMPDEST POP JUMP JUMPDEST PUSH1 0x3C DUP2 JUMP JUMPDEST PUSH0 PUSH7 0x38D7EA4C68000 CALLVALUE LT ISZERO PUSH2 0x6CD JUMPI PUSH0 PUSH0 REVERT JUMPDEST PUSH1 0x8 PUSH0 DUP2 SLOAD DUP1 SWAP3 SWAP2 SWAP1 PUSH2 0x6DF SWAP1 PUSH2 0x17CB JUMP JUMPDEST SWAP2 SWAP1 POP SSTORE POP PUSH1 0x40 MLOAD DUP1 PUSH2 0x100 ADD PUSH1 0x40 MSTORE DUP1 PUSH1 0x8 SLOAD DUP2 MSTORE PUSH1 0x20 ADD CALLER PUSH20 0xFFFFFFFFFFFFFFFFFFFFFFFFFFFFFFFFFFFFFFFF AND DUP2 MSTORE PUSH1 0x20 ADD PUSH0 PUSH1 0x3 DUP2 GT ISZERO PUSH2 0x727 JUMPI PUSH2 0x726 PUSH2 0x1394 JUMP JUMPDEST JUMPDEST DUP2 MSTORE PUSH1 0x20 ADD TIMESTAMP DUP2 MSTORE PUSH1 0x20 ADD TIMESTAMP DUP2 MSTORE PUSH1 0x20 ADD PUSH1 0x64 DUP2 MSTORE PUSH1 0x20 ADD PUSH1 0x1 ISZERO ISZERO DUP2 MSTORE PUSH1 0x20 ADD PUSH0 ISZERO ISZERO DUP2 MSTORE POP PUSH1 0x6 PUSH0 PUSH1 0x8 SLOAD DUP2 MSTORE PUSH1 0x20 ADD SWAP1 DUP2 MSTORE PUSH1 0x20 ADD PUSH0 KECCAK256 PUSH0 DUP3 ADD MLOAD DUP2 PUSH0 ADD SSTORE PUSH1 0x20 DUP3 ADD MLOAD DUP2 PUSH1 0x1 ADD PUSH0 PUSH2 0x100 EXP DUP2 SLOAD DUP2 PUSH20 0xFFFFFFFFFFFFFFFFFFFFFFFFFFFFFFFFFFFFFFFF MUL NOT AND SWAP1 DUP4 PUSH20 0xFFFFFFFFFFFFFFFFFFFFFFFFFFFFFFFFFFFFFFFF AND MUL OR SWAP1 SSTORE POP PUSH1 0x40 DUP3 ADD MLOAD DUP2 PUSH1 0x1 ADD PUSH1 0x14 PUSH2 0x100 EXP DUP2 SLOAD DUP2 PUSH1 0xFF MUL NOT AND SWAP1 DUP4 PUSH1 0x3 DUP2 GT ISZERO PUSH2 0x7DA JUMPI PUSH2 0x7D9 PUSH2 0x1394 JUMP JUMPDEST JUMPDEST MUL OR SWAP1 SSTORE POP PUSH1 0x60 DUP3 ADD MLOAD DUP2 PUSH1 0x2 ADD SSTORE PUSH1 0x80 DUP3 ADD MLOAD DUP2 PUSH1 0x3 ADD SSTORE PUSH1 0xA0 DUP3 ADD MLOAD DUP2 PUSH1 0x4 ADD SSTORE PUSH1 0xC0 DUP3 ADD MLOAD DUP2 PUSH1 0x5 ADD PUSH0 PUSH2 0x100 EXP DUP2 SLOAD DUP2 PUSH1 0xFF MUL NOT AND SWAP1 DUP4 ISZERO ISZERO MUL OR SWAP1 SSTORE POP PUSH1 0xE0 DUP3 ADD MLOAD DUP2 PUSH1 0x5 ADD PUSH1 0x1 PUSH2 0x100 EXP DUP2 SLOAD DUP2 PUSH1 0xFF MUL NOT AND SWAP1 DUP4 ISZERO ISZERO MUL OR SWAP1 SSTORE POP SWAP1 POP POP PUSH1 0x8 SLOAD SWAP1 POP SWAP1 JUMP JUMPDEST PUSH0 PUSH0 PUSH1 0x6 PUSH0 DUP5 DUP2 MSTORE PUSH1 0x20 ADD SWAP1 DUP2 MSTORE PUSH1 0x20 ADD PUSH0 KECCAK256 SWAP1 POP DUP1 PUSH1 0x5 ADD PUSH0 SWAP1 SLOAD SWAP1 PUSH2 0x100 EXP SWAP1 DIV PUSH1 0xFF AND ISZERO DUP1 PUSH2 0x887 JUMPI POP DUP1 PUSH1 0x5 ADD PUSH1 0x1 SWAP1 SLOAD SWAP1 PUSH2 0x100 EXP SWAP1 DIV PUSH1 0xFF AND JUMPDEST ISZERO PUSH2 0x895 JUMPI PUSH0 SWAP2 POP POP PUSH2 0x8F9 JUMP JUMPDEST PUSH0 DUP2 PUSH1 0x3 ADD SLOAD TIMESTAMP PUSH2 0x8A6 SWAP2 SWAP1 PUSH2 0x1812 JUMP JUMPDEST SWAP1 POP PUSH0 PUSH1 0x1E DUP3 PUSH2 0x8B6 SWAP2 SWAP1 PUSH2 0x1872 JUMP JUMPDEST SWAP1 POP PUSH0 PUSH1 0x2 PUSH1 0xFF AND DUP3 PUSH2 0x8C9 SWAP2 SWAP1 PUSH2 0x18A2 JUMP JUMPDEST SWAP1 POP DUP4 PUSH1 0x4 ADD SLOAD DUP2 LT PUSH2 0x8E2 JUMPI PUSH0 SWAP5 POP POP POP POP POP PUSH2 0x8F9 JUMP JUMPDEST DUP1 DUP5 PUSH1 0x4 ADD SLOAD PUSH2 0x8F2 SWAP2 SWAP1 PUSH2 0x1812 JUMP JUMPDEST SWAP5 POP POP POP POP POP JUMPDEST SWAP2 SWAP1 POP JUMP JUMPDEST PUSH1 0x1E DUP2 JUMP JUMPDEST PUSH7 0xAA87BEE538000 DUP2 JUMP JUMPDEST PUSH1 0x7 PUSH1 0x20 MSTORE DUP2 PUSH0 MSTORE PUSH1 0x40 PUSH0 KECCAK256 DUP2 DUP2 SLOAD DUP2 LT PUSH2 0x927 JUMPI PUSH0 DUP1 REVERT JUMPDEST SWAP1 PUSH0 MSTORE PUSH1 0x20 PUSH0 KECCAK256 ADD PUSH0 SWAP2 POP SWAP2 POP POP SLOAD DUP2 JUMP JUMPDEST PUSH1 0x9 PUSH0 SWAP1 SLOAD SWAP1 PUSH2 0x100 EXP SWAP1 DIV PUSH20 0xFFFFFFFFFFFFFFFFFFFFFFFFFFFFFFFFFFFFFFFF AND DUP2 JUMP JUMPDEST PUSH1 0x6 PUSH1 0x20 MSTORE DUP1 PUSH0 MSTORE PUSH1 0x40 PUSH0 KECCAK256 PUSH0 SWAP2 POP SWAP1 POP DUP1 PUSH0 ADD SLOAD SWAP1 DUP1 PUSH1 0x1 ADD PUSH0 SWAP1 SLOAD SWAP1 PUSH2 0x100 EXP SWAP1 DIV PUSH20 0xFFFFFFFFFFFFFFFFFFFFFFFFFFFFFFFFFFFFFFFF AND SWAP1 DUP1 PUSH1 0x1 ADD PUSH1 0x14 SWAP1 SLOAD SWAP1 PUSH2 0x100 EXP SWAP1 DIV PUSH1 0xFF AND SWAP1 DUP1 PUSH1 0x2 ADD SLOAD SWAP1 DUP1 PUSH1 0x3 ADD SLOAD SWAP1 DUP1 PUSH1 0x4 ADD SLOAD SWAP1 DUP1 PUSH1 0x5 ADD PUSH0 SWAP1 SLOAD SWAP1 PUSH2 0x100 EXP SWAP1 DIV PUSH1 0xFF AND SWAP1 DUP1 PUSH1 0x5 ADD PUSH1 0x1 SWAP1 SLOAD SWAP1 PUSH2 0x100 EXP SWAP1 DIV PUSH1 0xFF AND SWAP1 POP DUP9 JUMP JUMPDEST PUSH0 PUSH1 0x6 PUSH0 DUP4 DUP2 MSTORE PUSH1 0x20 ADD SWAP1 DUP2 MSTORE PUSH1 0x20 ADD PUSH0 KECCAK256 SWAP1 POP DUP1 PUSH1 0x5 ADD PUSH0 SWAP1 SLOAD SWAP1 PUSH2 0x100 EXP SWAP1 DIV PUSH1 0xFF AND PUSH2 0xA4B JUMPI PUSH1 0x40 MLOAD PUSH32 0x8C379A000000000000000000000000000000000000000000000000000000000 DUP2 MSTORE PUSH1 0x4 ADD PUSH2 0xA42 SWAP1 PUSH2 0x192D JUMP JUMPDEST PUSH1 0x40 MLOAD DUP1 SWAP2 SUB SWAP1 REVERT JUMPDEST DUP1 PUSH1 0x1 ADD PUSH0 SWAP1 SLOAD SWAP1 PUSH2 0x100 EXP SWAP1 DIV PUSH20 0xFFFFFFFFFFFFFFFFFFFFFFFFFFFFFFFFFFFFFFFF AND PUSH20 0xFFFFFFFFFFFFFFFFFFFFFFFFFFFFFFFFFFFFFFFF AND CALLER PUSH20 0xFFFFFFFFFFFFFFFFFFFFFFFFFFFFFFFFFFFFFFFF AND EQ PUSH2 0xADC JUMPI PUSH1 0x40 MLOAD PUSH32 0x8C379A000000000000000000000000000000000000000000000000000000000 DUP2 MSTORE PUSH1 0x4 ADD PUSH2 0xAD3 SWAP1 PUSH2 0x19BB JUMP JUMPDEST PUSH1 0x40 MLOAD DUP1 SWAP2 SUB SWAP1 REVERT JUMPDEST DUP1 PUSH1 0x5 ADD PUSH1 0x1 SWAP1 SLOAD SWAP1 PUSH2 0x100 EXP SWAP1 DIV PUSH1 0xFF AND ISZERO PUSH2 0xB2E JUMPI PUSH1 0x40 MLOAD PUSH32 0x8C379A000000000000000000000000000000000000000000000000000000000 DUP2 MSTORE PUSH1 0x4 ADD PUSH2 0xB25 SWAP1 PUSH2 0x1A23 JUMP JUMPDEST PUSH1 0x40 MLOAD DUP1 SWAP2 SUB SWAP1 REVERT JUMPDEST PUSH1 0x64 DUP2 PUSH1 0x4 ADD DUP2 SWAP1 SSTORE POP TIMESTAMP DUP2 PUSH1 0x3 ADD DUP2 SWAP1 SSTORE POP DUP2 PUSH32 0xD4B742B9BA48FFFA1F14267075A7793851770764117C423FD0A6550DFC8CB574 PUSH1 0x64 PUSH1 0x40 MLOAD PUSH2 0xB72 SWAP2 SWAP1 PUSH2 0x1A83 JUMP JUMPDEST PUSH1 0x40 MLOAD DUP1 SWAP2 SUB SWAP1 LOG2 PUSH2 0xB83 DUP3 PUSH2 0xB9D JUMP JUMPDEST POP POP JUMP JUMPDEST PUSH1 0x8 SLOAD DUP2 JUMP JUMPDEST PUSH1 0x2 DUP2 JUMP JUMPDEST PUSH7 0x38D7EA4C68000 DUP2 JUMP JUMPDEST PUSH0 PUSH1 0x6 PUSH0 DUP4 DUP2 MSTORE PUSH1 0x20 ADD SWAP1 DUP2 MSTORE PUSH1 0x20 ADD PUSH0 KECCAK256 SWAP1 POP DUP1 PUSH1 0x5 ADD PUSH0 SWAP1 SLOAD SWAP1 PUSH2 0x100 EXP SWAP1 DIV PUSH1 0xFF AND PUSH2 0xC01 JUMPI PUSH1 0x40 MLOAD PUSH32 0x8C379A000000000000000000000000000000000000000000000000000000000 DUP2 MSTORE PUSH1 0x4 ADD PUSH2 0xBF8 SWAP1 PUSH2 0x192D JUMP JUMPDEST PUSH1 0x40 MLOAD DUP1 SWAP2 SUB SWAP1 REVERT JUMPDEST PUSH2 0xC0A DUP3 PUSH2 0x1108 JUMP JUMPDEST DUP1 PUSH1 0x5 ADD PUSH1 0x1 SWAP1 SLOAD SWAP1 PUSH2 0x100 EXP SWAP1 DIV PUSH1 0xFF AND ISZERO PUSH2 0xC27 JUMPI POP PUSH2 0xD9A JUMP JUMPDEST PUSH0 DUP2 PUSH1 0x2 ADD SLOAD TIMESTAMP PUSH2 0xC38 SWAP2 SWAP1 PUSH2 0x1812 JUMP JUMPDEST SWAP1 POP PUSH0 DUP3 PUSH1 0x1 ADD PUSH1 0x14 SWAP1 SLOAD SWAP1 PUSH2 0x100 EXP SWAP1 DIV PUSH1 0xFF AND SWAP1 POP PUSH0 PUSH1 0x3 DUP2 GT ISZERO PUSH2 0xC62 JUMPI PUSH2 0xC61 PUSH2 0x1394 JUMP JUMPDEST JUMPDEST DUP2 PUSH1 0x3 DUP2 GT ISZERO PUSH2 0xC75 JUMPI PUSH2 0xC74 PUSH2 0x1394 JUMP JUMPDEST JUMPDEST SUB PUSH2 0xCBC JUMPI PUSH1 0x1 SWAP1 POP DUP4 PUSH32 0x338B8976706F9DA67298DDDFA1EA4FF7D99CCE68B9CA39C4F348994F8E2124A8 PUSH1 0x1 PUSH1 0x40 MLOAD PUSH2 0xCAF SWAP2 SWAP1 PUSH2 0x1A9C JUMP JUMPDEST PUSH1 0x40 MLOAD DUP1 SWAP2 SUB SWAP1 LOG2 PUSH2 0xD96 JUMP JUMPDEST PUSH1 0x1 PUSH1 0x3 DUP2 GT ISZERO PUSH2 0xCD0 JUMPI PUSH2 0xCCF PUSH2 0x1394 JUMP JUMPDEST JUMPDEST DUP2 PUSH1 0x3 DUP2 GT ISZERO PUSH2 0xCE3 JUMPI PUSH2 0xCE2 PUSH2 0x1394 JUMP JUMPDEST JUMPDEST SUB PUSH2 0xD2A JUMPI PUSH1 0x2 SWAP1 POP DUP4 PUSH32 0x338B8976706F9DA67298DDDFA1EA4FF7D99CCE68B9CA39C4F348994F8E2124A8 PUSH1 0x2 PUSH1 0x40 MLOAD PUSH2 0xD1D SWAP2 SWAP1 PUSH2 0x1A9C JUMP JUMPDEST PUSH1 0x40 MLOAD DUP1 SWAP2 SUB SWAP1 LOG2 PUSH2 0xD95 JUMP JUMPDEST PUSH1 0x2 PUSH1 0x3 DUP2 GT ISZERO PUSH2 0xD3E JUMPI PUSH2 0xD3D PUSH2 0x1394 JUMP JUMPDEST JUMPDEST DUP2 PUSH1 0x3 DUP2 GT ISZERO PUSH2 0xD51 JUMPI PUSH2 0xD50 PUSH2 0x1394 JUMP JUMPDEST JUMPDEST SUB PUSH2 0xD94 JUMPI PUSH1 0x3 SWAP1 POP DUP4 PUSH32 0x338B8976706F9DA67298DDDFA1EA4FF7D99CCE68B9CA39C4F348994F8E2124A8 PUSH1 0x3 PUSH1 0x40 MLOAD PUSH2 0xD8B SWAP2 SWAP1 PUSH2 0x1A9C JUMP JUMPDEST PUSH1 0x40 MLOAD DUP1 SWAP2 SUB SWAP1 LOG2 JUMPDEST JUMPDEST JUMPDEST POP POP POP JUMPDEST POP JUMP JUMPDEST PUSH0 PUSH1 0x6 PUSH0 DUP4 DUP2 MSTORE PUSH1 0x20 ADD SWAP1 DUP2 MSTORE PUSH1 0x20 ADD PUSH0 KECCAK256 SWAP1 POP DUP1 PUSH1 0x5 ADD PUSH0 SWAP1 SLOAD SWAP1 PUSH2 0x100 EXP SWAP1 DIV PUSH1 0xFF AND PUSH2 0xE01 JUMPI PUSH1 0x40 MLOAD PUSH32 0x8C379A000000000000000000000000000000000000000000000000000000000 DUP2 MSTORE PUSH1 0x4 ADD PUSH2 0xDF8 SWAP1 PUSH2 0x192D JUMP JUMPDEST PUSH1 0x40 MLOAD DUP1 SWAP2 SUB SWAP1 REVERT JUMPDEST DUP1 PUSH1 0x1 ADD PUSH0 SWAP1 SLOAD SWAP1 PUSH2 0x100 EXP SWAP1 DIV PUSH20 0xFFFFFFFFFFFFFFFFFFFFFFFFFFFFFFFFFFFFFFFF AND PUSH20 0xFFFFFFFFFFFFFFFFFFFFFFFFFFFFFFFFFFFFFFFF AND CALLER PUSH20 0xFFFFFFFFFFFFFFFFFFFFFFFFFFFFFFFFFFFFFFFF AND EQ PUSH2 0xE92 JUMPI PUSH1 0x40 MLOAD PUSH32 0x8C379A000000000000000000000000000000000000000000000000000000000 DUP2 MSTORE PUSH1 0x4 ADD PUSH2 0xE89 SWAP1 PUSH2 0x1AFF JUMP JUMPDEST PUSH1 0x40 MLOAD DUP1 SWAP2 SUB SWAP1 REVERT JUMPDEST DUP1 PUSH1 0x5 ADD PUSH1 0x1 SWAP1 SLOAD SWAP1 PUSH2 0x100 EXP SWAP1 DIV PUSH1 0xFF AND ISZERO PUSH2 0xEE4 JUMPI PUSH1 0x40 MLOAD PUSH32 0x8C379A000000000000000000000000000000000000000000000000000000000 DUP2 MSTORE PUSH1 0x4 ADD PUSH2 0xEDB SWAP1 PUSH2 0x1B67 JUMP JUMPDEST PUSH1 0x40 MLOAD DUP1 SWAP2 SUB SWAP1 REVERT JUMPDEST PUSH2 0xEED DUP3 PUSH2 0xB9D JUMP JUMPDEST PUSH1 0x3 DUP1 DUP2 GT ISZERO PUSH2 0xF00 JUMPI PUSH2 0xEFF PUSH2 0x1394 JUMP JUMPDEST JUMPDEST DUP2 PUSH1 0x1 ADD PUSH1 0x14 SWAP1 SLOAD SWAP1 PUSH2 0x100 EXP SWAP1 DIV PUSH1 0xFF AND PUSH1 0x3 DUP2 GT ISZERO PUSH2 0xF24 JUMPI PUSH2 0xF23 PUSH2 0x1394 JUMP JUMPDEST JUMPDEST EQ PUSH2 0xF64 JUMPI PUSH1 0x40 MLOAD PUSH32 0x8C379A000000000000000000000000000000000000000000000000000000000 DUP2 MSTORE PUSH1 0x4 ADD PUSH2 0xF5B SWAP1 PUSH2 0x1BCF JUMP JUMPDEST PUSH1 0x40 MLOAD DUP1 SWAP2 SUB SWAP1 REVERT JUMPDEST PUSH0 DUP2 PUSH1 0x5 ADD PUSH0 PUSH2 0x100 EXP DUP2 SLOAD DUP2 PUSH1 0xFF MUL NOT AND SWAP1 DUP4 ISZERO ISZERO MUL OR SWAP1 SSTORE POP CALLER PUSH20 0xFFFFFFFFFFFFFFFFFFFFFFFFFFFFFFFFFFFFFFFF AND DUP3 PUSH32 0x79F2138EA100070FF95B59C265DA7AA3C7A0F61595FE1BB2F5FDA2762F398847 PUSH7 0xAA87BEE538000 PUSH1 0x40 MLOAD PUSH2 0xFCD SWAP2 SWAP1 PUSH2 0x149D JUMP JUMPDEST PUSH1 0x40 MLOAD DUP1 SWAP2 SUB SWAP1 LOG3 POP POP JUMP JUMPDEST PUSH2 0xFE1 PUSH2 0x11A4 JUMP JUMPDEST PUSH0 PUSH1 0x6 PUSH0 DUP5 DUP2 MSTORE PUSH1 0x20 ADD SWAP1 DUP2 MSTORE PUSH1 0x20 ADD PUSH0 KECCAK256 PUSH1 0x40 MLOAD DUP1 PUSH2 0x100 ADD PUSH1 0x40 MSTORE SWAP1 DUP2 PUSH0 DUP3 ADD SLOAD DUP2 MSTORE PUSH1 0x20 ADD PUSH1 0x1 DUP3 ADD PUSH0 SWAP1 SLOAD SWAP1 PUSH2 0x100 EXP SWAP1 DIV PUSH20 0xFFFFFFFFFFFFFFFFFFFFFFFFFFFFFFFFFFFFFFFF AND PUSH20 0xFFFFFFFFFFFFFFFFFFFFFFFFFFFFFFFFFFFFFFFF AND PUSH20 0xFFFFFFFFFFFFFFFFFFFFFFFFFFFFFFFFFFFFFFFF AND DUP2 MSTORE PUSH1 0x20 ADD PUSH1 0x1 DUP3 ADD PUSH1 0x14 SWAP1 SLOAD SWAP1 PUSH2 0x100 EXP SWAP1 DIV PUSH1 0xFF AND PUSH1 0x3 DUP2 GT ISZERO PUSH2 0x1082 JUMPI PUSH2 0x1081 PUSH2 0x1394 JUMP JUMPDEST JUMPDEST PUSH1 0x3 DUP2 GT ISZERO PUSH2 0x1094 JUMPI PUSH2 0x1093 PUSH2 0x1394 JUMP JUMPDEST JUMPDEST DUP2 MSTORE PUSH1 0x20 ADD PUSH1 0x2 DUP3 ADD SLOAD DUP2 MSTORE PUSH1 0x20 ADD PUSH1 0x3 DUP3 ADD SLOAD DUP2 MSTORE PUSH1 0x20 ADD PUSH1 0x4 DUP3 ADD SLOAD DUP2 MSTORE PUSH1 0x20 ADD PUSH1 0x5 DUP3 ADD PUSH0 SWAP1 SLOAD SWAP1 PUSH2 0x100 EXP SWAP1 DIV PUSH1 0xFF AND ISZERO ISZERO ISZERO ISZERO DUP2 MSTORE PUSH1 0x20 ADD PUSH1 0x5 DUP3 ADD PUSH1 0x1 SWAP1 SLOAD SWAP1 PUSH2 0x100 EXP SWAP1 DIV PUSH1 0xFF AND ISZERO ISZERO ISZERO ISZERO DUP2 MSTORE POP POP SWAP1 POP PUSH2 0x10F6 DUP4 PUSH2 0x847 JUMP JUMPDEST DUP2 PUSH1 0xA0 ADD DUP2 DUP2 MSTORE POP POP DUP1 SWAP2 POP POP SWAP2 SWAP1 POP JUMP JUMPDEST PUSH0 PUSH1 0x6 PUSH0 DUP4 DUP2 MSTORE PUSH1 0x20 ADD SWAP1 DUP2 MSTORE PUSH1 0x20 ADD PUSH0 KECCAK256 SWAP1 POP PUSH0 PUSH2 0x1126 DUP4 PUSH2 0x847 JUMP JUMPDEST SWAP1 POP DUP1 DUP3 PUSH1 0x4 ADD DUP2 SWAP1 SSTORE POP PUSH0 DUP2 EQ DUP1 ISZERO PUSH2 0x114F JUMPI POP DUP2 PUSH1 0x5 ADD PUSH1 0x1 SWAP1 SLOAD SWAP1 PUSH2 0x100 EXP SWAP1 DIV PUSH1 0xFF AND ISZERO JUMPDEST ISZERO PUSH2 0x119F JUMPI PUSH1 0x1 DUP3 PUSH1 0x5 ADD PUSH1 0x1 PUSH2 0x100 EXP DUP2 SLOAD DUP2 PUSH1 0xFF MUL NOT AND SWAP1 DUP4 ISZERO ISZERO MUL OR SWAP1 SSTORE POP DUP3 PUSH32 0xCC296A21951F3E57F21AFB08547D835A0A9F0F06CC2867009CBE0CAE44D36BE9 PUSH1 0x40 MLOAD PUSH1 0x40 MLOAD DUP1 SWAP2 SUB SWAP1 LOG2 JUMPDEST POP POP POP JUMP JUMPDEST PUSH1 0x40 MLOAD DUP1 PUSH2 0x100 ADD PUSH1 0x40 MSTORE DUP1 PUSH0 DUP2 MSTORE PUSH1 0x20 ADD PUSH0 PUSH20 0xFFFFFFFFFFFFFFFFFFFFFFFFFFFFFFFFFFFFFFFF AND DUP2 MSTORE PUSH1 0x20 ADD PUSH0 PUSH1 0x3 DUP2 GT ISZERO PUSH2 0x11E5 JUMPI PUSH2 0x11E4 PUSH2 0x1394 JUMP JUMPDEST JUMPDEST DUP2 MSTORE PUSH1 0x20 ADD PUSH0 DUP2 MSTORE PUSH1 0x20 ADD PUSH0 DUP2 MSTORE PUSH1 0x20 ADD PUSH0 DUP2 MSTORE PUSH1 0x20 ADD PUSH0 ISZERO ISZERO DUP2 MSTORE PUSH1 0x20 ADD PUSH0 ISZERO ISZERO DUP2 MSTORE POP SWAP1 JUMP JUMPDEST PUSH0 PUSH0 REVERT JUMPDEST PUSH0 PUSH20 0xFFFFFFFFFFFFFFFFFFFFFFFFFFFFFFFFFFFFFFFF DUP3 AND SWAP1 POP SWAP2 SWAP1 POP JUMP JUMPDEST PUSH0 PUSH2 0x123A DUP3 PUSH2 0x1211 JUMP JUMPDEST SWAP1 POP SWAP2 SWAP1 POP JUMP JUMPDEST PUSH2 0x124A DUP2 PUSH2 0x1230 JUMP JUMPDEST DUP2 EQ PUSH2 0x1254 JUMPI PUSH0 PUSH0 REVERT JUMPDEST POP JUMP JUMPDEST PUSH0 DUP2 CALLDATALOAD SWAP1 POP PUSH2 0x1265 DUP2 PUSH2 0x1241 JUMP JUMPDEST SWAP3 SWAP2 POP POP JUMP JUMPDEST PUSH0 PUSH1 0x20 DUP3 DUP5 SUB SLT ISZERO PUSH2 0x1280 JUMPI PUSH2 0x127F PUSH2 0x120D JUMP JUMPDEST JUMPDEST PUSH0 PUSH2 0x128D DUP5 DUP3 DUP6 ADD PUSH2 0x1257 JUMP JUMPDEST SWAP2 POP POP SWAP3 SWAP2 POP POP JUMP JUMPDEST PUSH0 DUP2 MLOAD SWAP1 POP SWAP2 SWAP1 POP JUMP JUMPDEST PUSH0 DUP3 DUP3 MSTORE PUSH1 0x20 DUP3 ADD SWAP1 POP SWAP3 SWAP2 POP POP JUMP JUMPDEST PUSH0 DUP2 SWAP1 POP PUSH1 0x20 DUP3 ADD SWAP1 POP SWAP2 SWAP1 POP JUMP JUMPDEST PUSH0 DUP2 SWAP1 POP SWAP2 SWAP1 POP JUMP JUMPDEST PUSH2 0x12D1 DUP2 PUSH2 0x12BF JUMP JUMPDEST DUP3 MSTORE POP POP JUMP JUMPDEST PUSH0 PUSH2 0x12E2 DUP4 DUP4 PUSH2 0x12C8 JUMP JUMPDEST PUSH1 0x20 DUP4 ADD SWAP1 POP SWAP3 SWAP2 POP POP JUMP JUMPDEST PUSH0 PUSH1 0x20 DUP3 ADD SWAP1 POP SWAP2 SWAP1 POP JUMP JUMPDEST PUSH0 PUSH2 0x1304 DUP3 PUSH2 0x1296 JUMP JUMPDEST PUSH2 0x130E DUP2 DUP6 PUSH2 0x12A0 JUMP JUMPDEST SWAP4 POP PUSH2 0x1319 DUP4 PUSH2 0x12B0 JUMP JUMPDEST DUP1 PUSH0 JUMPDEST DUP4 DUP2 LT ISZERO PUSH2 0x1349 JUMPI DUP2 MLOAD PUSH2 0x1330 DUP9 DUP3 PUSH2 0x12D7 JUMP JUMPDEST SWAP8 POP PUSH2 0x133B DUP4 PUSH2 0x12EE JUMP JUMPDEST SWAP3 POP POP PUSH1 0x1 DUP2 ADD SWAP1 POP PUSH2 0x131C JUMP JUMPDEST POP DUP6 SWAP4 POP POP POP POP SWAP3 SWAP2 POP POP JUMP JUMPDEST PUSH0 PUSH1 0x20 DUP3 ADD SWAP1 POP DUP2 DUP2 SUB PUSH0 DUP4 ADD MSTORE PUSH2 0x136E DUP2 DUP5 PUSH2 0x12FA JUMP JUMPDEST SWAP1 POP SWAP3 SWAP2 POP POP JUMP JUMPDEST PUSH2 0x137F DUP2 PUSH2 0x12BF JUMP JUMPDEST DUP3 MSTORE POP POP JUMP JUMPDEST PUSH2 0x138E DUP2 PUSH2 0x1230 JUMP JUMPDEST DUP3 MSTORE POP POP JUMP JUMPDEST PUSH32 0x4E487B7100000000000000000000000000000000000000000000000000000000 PUSH0 MSTORE PUSH1 0x21 PUSH1 0x4 MSTORE PUSH1 0x24 PUSH0 REVERT JUMPDEST PUSH1 0x4 DUP2 LT PUSH2 0x13D2 JUMPI PUSH2 0x13D1 PUSH2 0x1394 JUMP JUMPDEST JUMPDEST POP JUMP JUMPDEST PUSH0 DUP2 SWAP1 POP PUSH2 0x13E2 DUP3 PUSH2 0x13C1 JUMP JUMPDEST SWAP2 SWAP1 POP JUMP JUMPDEST PUSH0 PUSH2 0x13F1 DUP3 PUSH2 0x13D5 JUMP JUMPDEST SWAP1 POP SWAP2 SWAP1 POP JUMP JUMPDEST PUSH2 0x1401 DUP2 PUSH2 0x13E7 JUMP JUMPDEST DUP3 MSTORE POP POP JUMP JUMPDEST PUSH0 DUP2 ISZERO ISZERO SWAP1 POP SWAP2 SWAP1 POP JUMP JUMPDEST PUSH2 0x141B DUP2 PUSH2 0x1407 JUMP JUMPDEST DUP3 MSTORE POP POP JUMP JUMPDEST PUSH0 PUSH2 0x100 DUP3 ADD SWAP1 POP PUSH2 0x1435 PUSH0 DUP4 ADD DUP12 PUSH2 0x1376 JUMP JUMPDEST PUSH2 0x1442 PUSH1 0x20 DUP4 ADD DUP11 PUSH2 0x1385 JUMP JUMPDEST PUSH2 0x144F PUSH1 0x40 DUP4 ADD DUP10 PUSH2 0x13F8 JUMP JUMPDEST PUSH2 0x145C PUSH1 0x60 DUP4 ADD DUP9 PUSH2 0x1376 JUMP JUMPDEST PUSH2 0x1469 PUSH1 0x80 DUP4 ADD DUP8 PUSH2 0x1376 JUMP JUMPDEST PUSH2 0x1476 PUSH1 0xA0 DUP4 ADD DUP7 PUSH2 0x1376 JUMP JUMPDEST PUSH2 0x1483 PUSH1 0xC0 DUP4 ADD DUP6 PUSH2 0x1412 JUMP JUMPDEST PUSH2 0x1490 PUSH1 0xE0 DUP4 ADD DUP5 PUSH2 0x1412 JUMP JUMPDEST SWAP10 SWAP9 POP POP POP POP POP POP POP POP POP JUMP JUMPDEST PUSH0 PUSH1 0x20 DUP3 ADD SWAP1 POP PUSH2 0x14B0 PUSH0 DUP4 ADD DUP5 PUSH2 0x1376 JUMP JUMPDEST SWAP3 SWAP2 POP POP JUMP JUMPDEST PUSH2 0x14BF DUP2 PUSH2 0x12BF JUMP JUMPDEST DUP2 EQ PUSH2 0x14C9 JUMPI PUSH0 PUSH0 REVERT JUMPDEST POP JUMP JUMPDEST PUSH0 DUP2 CALLDATALOAD SWAP1 POP PUSH2 0x14DA DUP2 PUSH2 0x14B6 JUMP JUMPDEST SWAP3 SWAP2 POP POP JUMP JUMPDEST PUSH0 PUSH1 0x20 DUP3 DUP5 SUB SLT ISZERO PUSH2 0x14F5 JUMPI PUSH2 0x14F4 PUSH2 0x120D JUMP JUMPDEST JUMPDEST PUSH0 PUSH2 0x1502 DUP5 DUP3 DUP6 ADD PUSH2 0x14CC JUMP JUMPDEST SWAP2 POP POP SWAP3 SWAP2 POP POP JUMP JUMPDEST PUSH0 PUSH0 PUSH1 0x40 DUP4 DUP6 SUB SLT ISZERO PUSH2 0x1521 JUMPI PUSH2 0x1520 PUSH2 0x120D JUMP JUMPDEST JUMPDEST PUSH0 PUSH2 0x152E DUP6 DUP3 DUP7 ADD PUSH2 0x1257 JUMP JUMPDEST SWAP3 POP POP PUSH1 0x20 PUSH2 0x153F DUP6 DUP3 DUP7 ADD PUSH2 0x14CC JUMP JUMPDEST SWAP2 POP POP SWAP3 POP SWAP3 SWAP1 POP JUMP JUMPDEST PUSH0 PUSH1 0x20 DUP3 ADD SWAP1 POP PUSH2 0x155C PUSH0 DUP4 ADD DUP5 PUSH2 0x1385 JUMP JUMPDEST SWAP3 SWAP2 POP POP JUMP JUMPDEST PUSH0 PUSH1 0xFF DUP3 AND SWAP1 POP SWAP2 SWAP1 POP JUMP JUMPDEST PUSH2 0x1577 DUP2 PUSH2 0x1562 JUMP JUMPDEST DUP3 MSTORE POP POP JUMP JUMPDEST PUSH0 PUSH1 0x20 DUP3 ADD SWAP1 POP PUSH2 0x1590 PUSH0 DUP4 ADD DUP5 PUSH2 0x156E JUMP JUMPDEST SWAP3 SWAP2 POP POP JUMP JUMPDEST PUSH2 0x159F DUP2 PUSH2 0x1230 JUMP JUMPDEST DUP3 MSTORE POP POP JUMP JUMPDEST PUSH2 0x15AE DUP2 PUSH2 0x13E7 JUMP JUMPDEST DUP3 MSTORE POP POP JUMP JUMPDEST PUSH2 0x15BD DUP2 PUSH2 0x1407 JUMP JUMPDEST DUP3 MSTORE POP POP JUMP JUMPDEST PUSH2 0x100 DUP3 ADD PUSH0 DUP3 ADD MLOAD PUSH2 0x15D8 PUSH0 DUP6 ADD DUP3 PUSH2 0x12C8 JUMP JUMPDEST POP PUSH1 0x20 DUP3 ADD MLOAD PUSH2 0x15EB PUSH1 0x20 DUP6 ADD DUP3 PUSH2 0x1596 JUMP JUMPDEST POP PUSH1 0x40 DUP3 ADD MLOAD PUSH2 0x15FE PUSH1 0x40 DUP6 ADD DUP3 PUSH2 0x15A5 JUMP JUMPDEST POP PUSH1 0x60 DUP3 ADD MLOAD PUSH2 0x1611 PUSH1 0x60 DUP6 ADD DUP3 PUSH2 0x12C8 JUMP JUMPDEST POP PUSH1 0x80 DUP3 ADD MLOAD PUSH2 0x1624 PUSH1 0x80 DUP6 ADD DUP3 PUSH2 0x12C8 JUMP JUMPDEST POP PUSH1 0xA0 DUP3 ADD MLOAD PUSH2 0x1637 PUSH1 0xA0 DUP6 ADD DUP3 PUSH2 0x12C8 JUMP JUMPDEST POP PUSH1 0xC0 DUP3 ADD MLOAD PUSH2 0x164A PUSH1 0xC0 DUP6 ADD DUP3 PUSH2 0x15B4 JUMP JUMPDEST POP PUSH1 0xE0 DUP3 ADD MLOAD PUSH2 0x165D PUSH1 0xE0 DUP6 ADD DUP3 PUSH2 0x15B4 JUMP JUMPDEST POP POP POP POP JUMP JUMPDEST PUSH0 PUSH2 0x100 DUP3 ADD SWAP1 POP PUSH2 0x1677 PUSH0 DUP4 ADD DUP5 PUSH2 0x15C3 JUMP JUMPDEST SWAP3 SWAP2 POP POP JUMP JUMPDEST PUSH0 DUP3 DUP3 MSTORE PUSH1 0x20 DUP3 ADD SWAP1 POP SWAP3 SWAP2 POP POP JUMP JUMPDEST PUSH32 0x42756B616E206F776E6572000000000000000000000000000000000000000000 PUSH0 DUP3 ADD MSTORE POP JUMP JUMPDEST PUSH0 PUSH2 0x16C1 PUSH1 0xB DUP4 PUSH2 0x167D JUMP JUMPDEST SWAP2 POP PUSH2 0x16CC DUP3 PUSH2 0x168D JUMP JUMPDEST PUSH1 0x20 DUP3 ADD SWAP1 POP SWAP2 SWAP1 POP JUMP JUMPDEST PUSH0 PUSH1 0x20 DUP3 ADD SWAP1 POP DUP2 DUP2 SUB PUSH0 DUP4 ADD MSTORE PUSH2 0x16EE DUP2 PUSH2 0x16B5 JUMP JUMPDEST SWAP1 POP SWAP2 SWAP1 POP JUMP JUMPDEST PUSH0 DUP2 SWAP1 POP SWAP3 SWAP2 POP POP JUMP JUMPDEST POP JUMP JUMPDEST PUSH0 PUSH2 0x170D PUSH0 DUP4 PUSH2 0x16F5 JUMP JUMPDEST SWAP2 POP PUSH2 0x1718 DUP3 PUSH2 0x16FF JUMP JUMPDEST PUSH0 DUP3 ADD SWAP1 POP SWAP2 SWAP1 POP JUMP JUMPDEST PUSH0 PUSH2 0x172C DUP3 PUSH2 0x1702 JUMP JUMPDEST SWAP2 POP DUP2 SWAP1 POP SWAP2 SWAP1 POP JUMP JUMPDEST PUSH32 0x5472616E7366657220676167616C000000000000000000000000000000000000 PUSH0 DUP3 ADD MSTORE POP JUMP JUMPDEST PUSH0 PUSH2 0x176A PUSH1 0xE DUP4 PUSH2 0x167D JUMP JUMPDEST SWAP2 POP PUSH2 0x1775 DUP3 PUSH2 0x1736 JUMP JUMPDEST PUSH1 0x20 DUP3 ADD SWAP1 POP SWAP2 SWAP1 POP JUMP JUMPDEST PUSH0 PUSH1 0x20 DUP3 ADD SWAP1 POP DUP2 DUP2 SUB PUSH0 DUP4 ADD MSTORE PUSH2 0x1797 DUP2 PUSH2 0x175E JUMP JUMPDEST SWAP1 POP SWAP2 SWAP1 POP JUMP JUMPDEST PUSH32 0x4E487B7100000000000000000000000000000000000000000000000000000000 PUSH0 MSTORE PUSH1 0x11 PUSH1 0x4 MSTORE PUSH1 0x24 PUSH0 REVERT JUMPDEST PUSH0 PUSH2 0x17D5 DUP3 PUSH2 0x12BF JUMP JUMPDEST SWAP2 POP PUSH32 0xFFFFFFFFFFFFFFFFFFFFFFFFFFFFFFFFFFFFFFFFFFFFFFFFFFFFFFFFFFFFFFFF DUP3 SUB PUSH2 0x1807 JUMPI PUSH2 0x1806 PUSH2 0x179E JUMP JUMPDEST JUMPDEST PUSH1 0x1 DUP3 ADD SWAP1 POP SWAP2 SWAP1 POP JUMP JUMPDEST PUSH0 PUSH2 0x181C DUP3 PUSH2 0x12BF JUMP JUMPDEST SWAP2 POP PUSH2 0x1827 DUP4 PUSH2 0x12BF JUMP JUMPDEST SWAP3 POP DUP3 DUP3 SUB SWAP1 POP DUP2 DUP2 GT ISZERO PUSH2 0x183F JUMPI PUSH2 0x183E PUSH2 0x179E JUMP JUMPDEST JUMPDEST SWAP3 SWAP2 POP POP JUMP JUMPDEST PUSH32 0x4E487B7100000000000000000000000000000000000000000000000000000000 PUSH0 MSTORE PUSH1 0x12 PUSH1 0x4 MSTORE PUSH1 0x24 PUSH0 REVERT JUMPDEST PUSH0 PUSH2 0x187C DUP3 PUSH2 0x12BF JUMP JUMPDEST SWAP2 POP PUSH2 0x1887 DUP4 PUSH2 0x12BF JUMP JUMPDEST SWAP3 POP DUP3 PUSH2 0x1897 JUMPI PUSH2 0x1896 PUSH2 0x1845 JUMP JUMPDEST JUMPDEST DUP3 DUP3 DIV SWAP1 POP SWAP3 SWAP2 POP POP JUMP JUMPDEST PUSH0 PUSH2 0x18AC DUP3 PUSH2 0x12BF JUMP JUMPDEST SWAP2 POP PUSH2 0x18B7 DUP4 PUSH2 0x12BF JUMP JUMPDEST SWAP3 POP DUP3 DUP3 MUL PUSH2 0x18C5 DUP2 PUSH2 0x12BF JUMP JUMPDEST SWAP2 POP DUP3 DUP3 DIV DUP5 EQ DUP4 ISZERO OR PUSH2 0x18DC JUMPI PUSH2 0x18DB PUSH2 0x179E JUMP JUMPDEST JUMPDEST POP SWAP3 SWAP2 POP POP JUMP JUMPDEST PUSH32 0x506C616E7420646F6573206E6F74206578697374000000000000000000000000 PUSH0 DUP3 ADD MSTORE POP JUMP JUMPDEST PUSH0 PUSH2 0x1917 PUSH1 0x14 DUP4 PUSH2 0x167D JUMP JUMPDEST SWAP2 POP PUSH2 0x1922 DUP3 PUSH2 0x18E3 JUMP JUMPDEST PUSH1 0x20 DUP3 ADD SWAP1 POP SWAP2 SWAP1 POP JUMP JUMPDEST PUSH0 PUSH1 0x20 DUP3 ADD SWAP1 POP DUP2 DUP2 SUB PUSH0 DUP4 ADD MSTORE PUSH2 0x1944 DUP2 PUSH2 0x190B JUMP JUMPDEST SWAP1 POP SWAP2 SWAP1 POP JUMP JUMPDEST PUSH32 0x4F6E6C792074686520706C616E74206F776E65722063616E2077617465722074 PUSH0 DUP3 ADD MSTORE PUSH32 0x686520706C616E74000000000000000000000000000000000000000000000000 PUSH1 0x20 DUP3 ADD MSTORE POP JUMP JUMPDEST PUSH0 PUSH2 0x19A5 PUSH1 0x28 DUP4 PUSH2 0x167D JUMP JUMPDEST SWAP2 POP PUSH2 0x19B0 DUP3 PUSH2 0x194B JUMP JUMPDEST PUSH1 0x40 DUP3 ADD SWAP1 POP SWAP2 SWAP1 POP JUMP JUMPDEST PUSH0 PUSH1 0x20 DUP3 ADD SWAP1 POP DUP2 DUP2 SUB PUSH0 DUP4 ADD MSTORE PUSH2 0x19D2 DUP2 PUSH2 0x1999 JUMP JUMPDEST SWAP1 POP SWAP2 SWAP1 POP JUMP JUMPDEST PUSH32 0x43616E6E6F742077617465722061206465616420706C616E7400000000000000 PUSH0 DUP3 ADD MSTORE POP JUMP JUMPDEST PUSH0 PUSH2 0x1A0D PUSH1 0x19 DUP4 PUSH2 0x167D JUMP JUMPDEST SWAP2 POP PUSH2 0x1A18 DUP3 PUSH2 0x19D9 JUMP JUMPDEST PUSH1 0x20 DUP3 ADD SWAP1 POP SWAP2 SWAP1 POP JUMP JUMPDEST PUSH0 PUSH1 0x20 DUP3 ADD SWAP1 POP DUP2 DUP2 SUB PUSH0 DUP4 ADD MSTORE PUSH2 0x1A3A DUP2 PUSH2 0x1A01 JUMP JUMPDEST SWAP1 POP SWAP2 SWAP1 POP JUMP JUMPDEST PUSH0 DUP2 SWAP1 POP SWAP2 SWAP1 POP JUMP JUMPDEST PUSH0 DUP2 SWAP1 POP SWAP2 SWAP1 POP JUMP JUMPDEST PUSH0 PUSH2 0x1A6D PUSH2 0x1A68 PUSH2 0x1A63 DUP5 PUSH2 0x1A41 JUMP JUMPDEST PUSH2 0x1A4A JUMP JUMPDEST PUSH2 0x1562 JUMP JUMPDEST SWAP1 POP SWAP2 SWAP1 POP JUMP JUMPDEST PUSH2 0x1A7D DUP2 PUSH2 0x1A53 JUMP JUMPDEST DUP3 MSTORE POP POP JUMP JUMPDEST PUSH0 PUSH1 0x20 DUP3 ADD SWAP1 POP PUSH2 0x1A96 PUSH0 DUP4 ADD DUP5 PUSH2 0x1A74 JUMP JUMPDEST SWAP3 SWAP2 POP POP JUMP JUMPDEST PUSH0 PUSH1 0x20 DUP3 ADD SWAP1 POP PUSH2 0x1AAF PUSH0 DUP4 ADD DUP5 PUSH2 0x13F8 JUMP JUMPDEST SWAP3 SWAP2 POP POP JUMP JUMPDEST PUSH32 0x4E6F7420746865206F776E6572206F662074686520706C616E74000000000000 PUSH0 DUP3 ADD MSTORE POP JUMP JUMPDEST PUSH0 PUSH2 0x1AE9 PUSH1 0x1A DUP4 PUSH2 0x167D JUMP JUMPDEST SWAP2 POP PUSH2 0x1AF4 DUP3 PUSH2 0x1AB5 JUMP JUMPDEST PUSH1 0x20 DUP3 ADD SWAP1 POP SWAP2 SWAP1 POP JUMP JUMPDEST PUSH0 PUSH1 0x20 DUP3 ADD SWAP1 POP DUP2 DUP2 SUB PUSH0 DUP4 ADD MSTORE PUSH2 0x1B16 DUP2 PUSH2 0x1ADD JUMP JUMPDEST SWAP1 POP SWAP2 SWAP1 POP JUMP JUMPDEST PUSH32 0x506C616E74206973206465616400000000000000000000000000000000000000 PUSH0 DUP3 ADD MSTORE POP JUMP JUMPDEST PUSH0 PUSH2 0x1B51 PUSH1 0xD DUP4 PUSH2 0x167D JUMP JUMPDEST SWAP2 POP PUSH2 0x1B5C DUP3 PUSH2 0x1B1D JUMP JUMPDEST PUSH1 0x20 DUP3 ADD SWAP1 POP SWAP2 SWAP1 POP JUMP JUMPDEST PUSH0 PUSH1 0x20 DUP3 ADD SWAP1 POP DUP2 DUP2 SUB PUSH0 DUP4 ADD MSTORE PUSH2 0x1B7E DUP2 PUSH2 0x1B45 JUMP JUMPDEST SWAP1 POP SWAP2 SWAP1 POP JUMP JUMPDEST PUSH32 0x506C616E74206973206E6F7420696E20626C6F6F6D696E672073746167650000 PUSH0 DUP3 ADD MSTORE POP JUMP JUMPDEST PUSH0 PUSH2 0x1BB9 PUSH1 0x1E DUP4 PUSH2 0x167D JUMP JUMPDEST SWAP2 POP PUSH2 0x1BC4 DUP3 PUSH2 0x1B85 JUMP JUMPDEST PUSH1 0x20 DUP3 ADD SWAP1 POP SWAP2 SWAP1 POP JUMP JUMPDEST PUSH0 PUSH1 0x20 DUP3 ADD SWAP1 POP DUP2 DUP2 SUB PUSH0 DUP4 ADD MSTORE PUSH2 0x1BE6 DUP2 PUSH2 0x1BAD JUMP JUMPDEST SWAP1 POP SWAP2 SWAP1 POP JUMP INVALID LOG2 PUSH5 0x6970667358 0x22 SLT KECCAK256 0xCA CALLVALUE PUSH0 0xBF 0x2C PC 0xAC PUSH6 0x3F5812EDD4B2 CALLDATALOAD 0xA7 CHAINID SWAP12 0xE 0xD2 DUP13 DUP8 DUP9 GASPRICE RETURNCONTRACT 0x70 RETURNDATACOPY PUSH17 0x7E8274F264736F6C634300081E00330000 "
				},
				"gasEstimates": {
					"creation": {
						"codeDepositCost": "1440600",
						"executionCost": "25769",
						"totalCost": "1466369"
					},
					"external": {
						"HARVEST_REWARD()": "414",
						"PLANT_PRICE()": "369",
						"STAGE_DURATION()": "415",
						"WATER_DEPLETION_RATE()": "353",
						"WATER_DEPLETION_TIME()": "392",
						"calculateWaterLevel(uint256)": "infinite",
						"getPlant(uint256)": "infinite",
						"getUserPlants(address)": "infinite",
						"harvestPlant(uint256)": "infinite",
						"myPlant()": "infinite",
						"owner()": "2531",
						"plantCounter()": "2514",
						"plantSeed()": "infinite",
						"plants(uint256)": "infinite",
						"updatePlantStage(uint256)": "infinite",
						"userPlants(address,uint256)": "infinite",
						"waterPlant(uint256)": "infinite",
						"withdraw()": "infinite"
					},
					"internal": {
						"updateWaterLevel(uint256)": "infinite"
					}
				},
				"methodIdentifiers": {
					"HARVEST_REWARD()": "891c0785",
					"PLANT_PRICE()": "cfc9a5f8",
					"STAGE_DURATION()": "51f9efde",
					"WATER_DEPLETION_RATE()": "bacb5ebd",
					"WATER_DEPLETION_TIME()": "7ed4c5be",
					"calculateWaterLevel(uint256)": "754e150d",
					"getPlant(uint256)": "ed0b1f5f",
					"getUserPlants(address)": "30cec0eb",
					"harvestPlant(uint256)": "e38f8448",
					"myPlant()": "3a8fdff0",
					"owner()": "8da5cb5b",
					"plantCounter()": "9c471749",
					"plantSeed()": "74119a38",
					"plants(uint256)": "8dd2361c",
					"updatePlantStage(uint256)": "ddd42596",
					"userPlants(address,uint256)": "8aee578b",
					"waterPlant(uint256)": "9886bcfa",
					"withdraw()": "3ccfd60b"
				}
			},
			"storageLayout": {
				"storage": [
					{
						"astId": 27,
						"contract": "contracts/LiskGarden.sol:LiskGarden",
						"label": "myPlant",
						"offset": 0,
						"slot": "0",
						"type": "t_struct(Plant)24_storage"
					},
					{
						"astId": 32,
						"contract": "contracts/LiskGarden.sol:LiskGarden",
						"label": "plants",
						"offset": 0,
						"slot": "6",
						"type": "t_mapping(t_uint256,t_struct(Plant)24_storage)"
					},
					{
						"astId": 37,
						"contract": "contracts/LiskGarden.sol:LiskGarden",
						"label": "userPlants",
						"offset": 0,
						"slot": "7",
						"type": "t_mapping(t_address,t_array(t_uint256)dyn_storage)"
					},
					{
						"astId": 39,
						"contract": "contracts/LiskGarden.sol:LiskGarden",
						"label": "plantCounter",
						"offset": 0,
						"slot": "8",
						"type": "t_uint256"
					},
					{
						"astId": 41,
						"contract": "contracts/LiskGarden.sol:LiskGarden",
						"label": "owner",
						"offset": 0,
						"slot": "9",
						"type": "t_address"
					}
				],
				"types": {
					"t_address": {
						"encoding": "inplace",
						"label": "address",
						"numberOfBytes": "20"
					},
					"t_array(t_uint256)dyn_storage": {
						"base": "t_uint256",
						"encoding": "dynamic_array",
						"label": "uint256[]",
						"numberOfBytes": "32"
					},
					"t_bool": {
						"encoding": "inplace",
						"label": "bool",
						"numberOfBytes": "1"
					},
					"t_enum(GrowthStage)6": {
						"encoding": "inplace",
						"label": "enum LiskGarden.GrowthStage",
						"numberOfBytes": "1"
					},
					"t_mapping(t_address,t_array(t_uint256)dyn_storage)": {
						"encoding": "mapping",
						"key": "t_address",
						"label": "mapping(address => uint256[])",
						"numberOfBytes": "32",
						"value": "t_array(t_uint256)dyn_storage"
					},
					"t_mapping(t_uint256,t_struct(Plant)24_storage)": {
						"encoding": "mapping",
						"key": "t_uint256",
						"label": "mapping(uint256 => struct LiskGarden.Plant)",
						"numberOfBytes": "32",
						"value": "t_struct(Plant)24_storage"
					},
					"t_struct(Plant)24_storage": {
						"encoding": "inplace",
						"label": "struct LiskGarden.Plant",
						"members": [
							{
								"astId": 8,
								"contract": "contracts/LiskGarden.sol:LiskGarden",
								"label": "id",
								"offset": 0,
								"slot": "0",
								"type": "t_uint256"
							},
							{
								"astId": 10,
								"contract": "contracts/LiskGarden.sol:LiskGarden",
								"label": "owner",
								"offset": 0,
								"slot": "1",
								"type": "t_address"
							},
							{
								"astId": 13,
								"contract": "contracts/LiskGarden.sol:LiskGarden",
								"label": "stage",
								"offset": 20,
								"slot": "1",
								"type": "t_enum(GrowthStage)6"
							},
							{
								"astId": 15,
								"contract": "contracts/LiskGarden.sol:LiskGarden",
								"label": "plantedDate",
								"offset": 0,
								"slot": "2",
								"type": "t_uint256"
							},
							{
								"astId": 17,
								"contract": "contracts/LiskGarden.sol:LiskGarden",
								"label": "lastWatered",
								"offset": 0,
								"slot": "3",
								"type": "t_uint256"
							},
							{
								"astId": 19,
								"contract": "contracts/LiskGarden.sol:LiskGarden",
								"label": "waterLevel",
								"offset": 0,
								"slot": "4",
								"type": "t_uint256"
							},
							{
								"astId": 21,
								"contract": "contracts/LiskGarden.sol:LiskGarden",
								"label": "exists",
								"offset": 0,
								"slot": "5",
								"type": "t_bool"
							},
							{
								"astId": 23,
								"contract": "contracts/LiskGarden.sol:LiskGarden",
								"label": "isDead",
								"offset": 1,
								"slot": "5",
								"type": "t_bool"
							}
						],
						"numberOfBytes": "192"
					},
					"t_uint256": {
						"encoding": "inplace",
						"label": "uint256",
						"numberOfBytes": "32"
					}
				}
			},
			"userdoc": {
				"kind": "user",
				"methods": {},
				"version": 1
			}
		}
	}
}